{"project/contracts/ReputationRegistry.sol":{"ReputationRegistry":{"abi":[{"inputs":[{"internalType":"address","name":"_identityRegistry","type":"address"}],"stateMutability":"nonpayable","type":"constructor"},{"inputs":[{"internalType":"address","name":"owner","type":"address"}],"name":"OwnableInvalidOwner","type":"error"},{"inputs":[{"internalType":"address","name":"account","type":"address"}],"name":"OwnableUnauthorizedAccount","type":"error"},{"anonymous":false,"inputs":[{"indexed":true,"internalType":"address","name":"system","type":"address"}],"name":"AutomatedSystemAdded","type":"event"},{"anonymous":false,"inputs":[{"indexed":true,"internalType":"address","name":"system","type":"address"}],"name":"AutomatedSystemRemoved","type":"event"},{"anonymous":false,"inputs":[{"indexed":true,"internalType":"uint256","name":"agentId","type":"uint256"},{"indexed":true,"internalType":"address","name":"client","type":"address"},{"indexed":false,"internalType":"int128","name":"value","type":"int128"},{"indexed":false,"internalType":"uint8","name":"valueDecimals","type":"uint8"},{"indexed":false,"internalType":"string","name":"tag1","type":"string"},{"indexed":false,"internalType":"string","name":"tag2","type":"string"},{"indexed":false,"internalType":"string","name":"comment","type":"string"}],"name":"FeedbackSubmitted","type":"event"},{"anonymous":false,"inputs":[{"indexed":true,"internalType":"address","name":"previousOwner","type":"address"},{"indexed":true,"internalType":"address","name":"newOwner","type":"address"}],"name":"OwnershipTransferred","type":"event"},{"anonymous":false,"inputs":[{"indexed":true,"internalType":"uint256","name":"agentId","type":"uint256"},{"indexed":true,"internalType":"address","name":"client","type":"address"},{"indexed":true,"internalType":"address","name":"responder","type":"address"},{"indexed":false,"internalType":"string","name":"text","type":"string"}],"name":"ResponseAppended","type":"event"},{"inputs":[{"internalType":"address","name":"system","type":"address"}],"name":"addAutomatedSystem","outputs":[],"stateMutability":"nonpayable","type":"function"},{"inputs":[{"internalType":"uint256","name":"agentId","type":"uint256"},{"internalType":"address","name":"client","type":"address"},{"internalType":"string","name":"text","type":"string"}],"name":"appendResponse","outputs":[],"stateMutability":"nonpayable","type":"function"},{"inputs":[{"internalType":"address","name":"","type":"address"}],"name":"automatedSystems","outputs":[{"internalType":"bool","name":"","type":"bool"}],"stateMutability":"view","type":"function"},{"inputs":[{"internalType":"uint256","name":"agentId","type":"uint256"}],"name":"getClients","outputs":[{"internalType":"address[]","name":"","type":"address[]"}],"stateMutability":"view","type":"function"},{"inputs":[{"internalType":"uint256","name":"agentId","type":"uint256"},{"internalType":"address","name":"client","type":"address"}],"name":"getFeedback","outputs":[{"components":[{"internalType":"uint256","name":"agentId","type":"uint256"},{"internalType":"address","name":"client","type":"address"},{"internalType":"int128","name":"value","type":"int128"},{"internalType":"uint8","name":"valueDecimals","type":"uint8"},{"internalType":"string","name":"tag1","type":"string"},{"internalType":"string","name":"tag2","type":"string"},{"internalType":"string","name":"comment","type":"string"},{"internalType":"uint256","name":"timestamp","type":"uint256"},{"internalType":"uint256","name":"responseCount","type":"uint256"}],"internalType":"struct ReputationRegistry.Feedback","name":"","type":"tuple"}],"stateMutability":"view","type":"function"},{"inputs":[{"internalType":"uint256","name":"agentId","type":"uint256"},{"internalType":"address","name":"client","type":"address"}],"name":"getResponses","outputs":[{"components":[{"internalType":"address","name":"responder","type":"address"},{"internalType":"string","name":"text","type":"string"},{"internalType":"uint256","name":"timestamp","type":"uint256"}],"internalType":"struct ReputationRegistry.Response[]","name":"","type":"tuple[]"}],"stateMutability":"view","type":"function"},{"inputs":[{"internalType":"uint256","name":"agentId","type":"uint256"}],"name":"getSummary","outputs":[{"internalType":"uint256","name":"count","type":"uint256"},{"internalType":"int256","name":"sum","type":"int256"},{"internalType":"int256","name":"mean","type":"int256"},{"internalType":"uint8","name":"valueDecimals","type":"uint8"}],"stateMutability":"view","type":"function"},{"inputs":[],"name":"getVersion","outputs":[{"internalType":"string","name":"","type":"string"}],"stateMutability":"pure","type":"function"},{"inputs":[],"name":"identityRegistry","outputs":[{"internalType":"contract IdentityRegistry","name":"","type":"address"}],"stateMutability":"view","type":"function"},{"inputs":[{"internalType":"address","name":"system","type":"address"}],"name":"isAutomatedSystem","outputs":[{"internalType":"bool","name":"","type":"bool"}],"stateMutability":"view","type":"function"},{"inputs":[],"name":"owner","outputs":[{"internalType":"address","name":"","type":"address"}],"stateMutability":"view","type":"function"},{"inputs":[{"internalType":"uint256","name":"agentId","type":"uint256"},{"internalType":"string","name":"tag1","type":"string"},{"internalType":"string","name":"tag2","type":"string"}],"name":"readAllFeedback","outputs":[{"components":[{"internalType":"uint256","name":"agentId","type":"uint256"},{"internalType":"address","name":"client","type":"address"},{"internalType":"int128","name":"value","type":"int128"},{"internalType":"uint8","name":"valueDecimals","type":"uint8"},{"internalType":"string","name":"tag1","type":"string"},{"internalType":"string","name":"tag2","type":"string"},{"internalType":"string","name":"comment","type":"string"},{"internalType":"uint256","name":"timestamp","type":"uint256"},{"internalType":"uint256","name":"responseCount","type":"uint256"}],"internalType":"struct ReputationRegistry.Feedback[]","name":"","type":"tuple[]"}],"stateMutability":"view","type":"function"},{"inputs":[{"internalType":"address","name":"system","type":"address"}],"name":"removeAutomatedSystem","outputs":[],"stateMutability":"nonpayable","type":"function"},{"inputs":[],"name":"renounceOwnership","outputs":[],"stateMutability":"nonpayable","type":"function"},{"inputs":[{"internalType":"uint256","name":"agentId","type":"uint256"},{"internalType":"int128","name":"value","type":"int128"},{"internalType":"uint8","name":"valueDecimals","type":"uint8"},{"internalType":"string","name":"tag1","type":"string"},{"internalType":"string","name":"tag2","type":"string"},{"internalType":"string","name":"comment","type":"string"}],"name":"submitFeedback","outputs":[],"stateMutability":"nonpayable","type":"function"},{"inputs":[{"internalType":"address","name":"newOwner","type":"address"}],"name":"transferOwnership","outputs":[],"stateMutability":"nonpayable","type":"function"}],"evm":{"bytecode":{"linkReferences":{},"object":"60a060405234801561000f575f5ffd5b506040516123bb3803806123bb83398101604081905261002e916100bd565b338061005357604051631e4fbdf760e01b81525f600482015260240160405180910390fd5b61005c8161006e565b506001600160a01b03166080526100ea565b5f80546001600160a01b038381166001600160a01b0319831681178455604051919092169283917f8be0079c531659141344cd1fd0a4f28419497f9722a3daafe3b4186f6b6457e09190a35050565b5f602082840312156100cd575f5ffd5b81516001600160a01b03811681146100e3575f5ffd5b9392505050565b6080516122a46101175f395f818161013401528181610dff01528181610f33015261123501526122a45ff3fe608060405234801561000f575f5ffd5b50600436106100fb575f3560e01c806375b63b381161009357806398963f511161006357806398963f511461028b578063aee144601461029e578063eb3cef1b146102d4578063f2fde38b146102e7575f5ffd5b806375b63b3814610233578063763139ea146102465780638499939f146102595780638da5cb5b1461027b575f5ffd5b806342dd519c116100ce57806342dd519c146101c9578063547d88a4146101e95780636ab4275514610209578063715018a614610229575f5ffd5b80630d8e6e2c146100ff578063134e18f41461012f578063172220111461016e5780631bbc279b1461018e575b5f5ffd5b60408051808201825260058152640322e312e360dc1b6020820152905161012691906119fe565b60405180910390f35b6101567f000000000000000000000000000000000000000000000000000000000000000081565b6040516001600160a01b039091168152602001610126565b61018161017c366004611a2b565b6102fa565b6040516101269190611a59565b6101b961019c366004611ae9565b6001600160a01b03165f9081526001602052604090205460ff1690565b6040519015158152602001610126565b6101dc6101d7366004611b04565b610455565b6040516101269190611b1b565b6101fc6101f7366004611c05565b6104be565b6040516101269190611d2d565b61021c610217366004611a2b565b610b43565b6040516101269190611d84565b610231610d7c565b005b610231610241366004611ae9565b610d8f565b610231610254366004611dab565b610ddf565b6101b9610267366004611ae9565b60016020525f908152604090205460ff1681565b5f546001600160a01b0316610156565b610231610299366004611e6a565b6111ba565b6102b16102ac366004611b04565b611426565b6040805194855260208501939093529183015260ff166060820152608001610126565b6102316102e2366004611ae9565b611806565b6102316102f5366004611ae9565b6118a4565b60605f838360405160200161032b92919091825260601b6bffffffffffffffffffffffff1916602082015260340190565b60408051601f1981840301815282825280516020918201205f8181526003835283812080548085028701850190955284865291955090929184015b82821015610447575f84815260209081902060408051606081019091526003850290910180546001600160a01b0316825260018101805492939192918401916103ae90611ea9565b80601f01602080910402602001604051908101604052809291908181526020018280546103da90611ea9565b80156104255780601f106103fc57610100808354040283529160200191610425565b820191905f5260205f20905b81548152906001019060200180831161040857829003601f168201915b5050505050815260200160028201548152505081526020019060010190610366565b505050509150505b92915050565b5f818152600460209081526040918290208054835181840281018401909452808452606093928301828280156104b257602002820191905f5260205f20905b81546001600160a01b03168152600190910190602001808311610494575b50505050509050919050565b5f83815260046020908152604080832080548251818502810185019093528083526060949383018282801561051a57602002820191905f5260205f20905b81546001600160a01b031681526001909101906020018083116104fc575b505087516020808a018290208951918a018290209697505f96909550935090151591501515845b86518110156107fd575f8b8152600260205260408120885182908a908590811061056d5761056d611ee1565b6020908102919091018101516001600160a01b0390811683528282019390935260409182015f20825161012081018452815481526001820154909416918401919091526002810154600f81900b92840192909252600160801b90910460ff1660608301526003810180546080840191906105e690611ea9565b80601f016020809104026020016040519081016040528092919081815260200182805461061290611ea9565b801561065d5780601f106106345761010080835404028352916020019161065d565b820191905f5260205f20905b81548152906001019060200180831161064057829003601f168201915b5050505050815260200160048201805461067690611ea9565b80601f01602080910402602001604051908101604052809291908181526020018280546106a290611ea9565b80156106ed5780601f106106c4576101008083540402835291602001916106ed565b820191905f5260205f20905b8154815290600101906020018083116106d057829003601f168201915b5050505050815260200160058201805461070690611ea9565b80601f016020809104026020016040519081016040528092919081815260200182805461073290611ea9565b801561077d5780601f106107545761010080835404028352916020019161077d565b820191905f5260205f20905b81548152906001019060200180831161076057829003601f168201915b505050918352505060068201546020820152600790910154604090910152905060018480156107b757508682608001518051906020012014155b156107bf57505f5b8380156107d75750858260a001518051906020012014155b156107df57505f5b80156107f357876107ef81611f09565b9850505b5050600101610541565b505f8567ffffffffffffffff81111561081857610818611b66565b60405190808252806020026020018201604052801561085157816020015b61083e61195c565b8152602001906001900390816108365790505b5090505f805b8851811015610b32575f8d81526002602052604081208a5182908c908590811061088357610883611ee1565b6020908102919091018101516001600160a01b0390811683528282019390935260409182015f20825161012081018452815481526001820154909416918401919091526002810154600f81900b92840192909252600160801b90910460ff1660608301526003810180546080840191906108fc90611ea9565b80601f016020809104026020016040519081016040528092919081815260200182805461092890611ea9565b80156109735780601f1061094a57610100808354040283529160200191610973565b820191905f5260205f20905b81548152906001019060200180831161095657829003601f168201915b5050505050815260200160048201805461098c90611ea9565b80601f01602080910402602001604051908101604052809291908181526020018280546109b890611ea9565b8015610a035780601f106109da57610100808354040283529160200191610a03565b820191905f5260205f20905b8154815290600101906020018083116109e657829003601f168201915b50505050508152602001600582018054610a1c90611ea9565b80601f0160208091040260200160405190810160405280929190818152602001828054610a4890611ea9565b8015610a935780601f10610a6a57610100808354040283529160200191610a93565b820191905f5260205f20905b815481529060010190602001808311610a7657829003601f168201915b50505091835250506006820154602082015260079091015460409091015290506001868015610acd57508882608001518051906020012014155b15610ad557505f5b858015610aed5750878260a001518051906020012014155b15610af557505f5b8015610b285781858581518110610b0e57610b0e611ee1565b60200260200101819052508380610b2490611f09565b9450505b5050600101610857565b50909b9a5050505050505050505050565b610b4b61195c565b5f8381526002602081815260408084206001600160a01b038781168652908352938190208151610120810183528154815260018201549095169285019290925291810154600f81900b92840192909252600160801b90910460ff166060830152600381018054608084019190610bc090611ea9565b80601f0160208091040260200160405190810160405280929190818152602001828054610bec90611ea9565b8015610c375780601f10610c0e57610100808354040283529160200191610c37565b820191905f5260205f20905b815481529060010190602001808311610c1a57829003601f168201915b50505050508152602001600482018054610c5090611ea9565b80601f0160208091040260200160405190810160405280929190818152602001828054610c7c90611ea9565b8015610cc75780601f10610c9e57610100808354040283529160200191610cc7565b820191905f5260205f20905b815481529060010190602001808311610caa57829003601f168201915b50505050508152602001600582018054610ce090611ea9565b80601f0160208091040260200160405190810160405280929190818152602001828054610d0c90611ea9565b8015610d575780601f10610d2e57610100808354040283529160200191610d57565b820191905f5260205f20905b815481529060010190602001808311610d3a57829003601f168201915b5050505050815260200160068201548152602001600782015481525050905092915050565b610d846118e1565b610d8d5f61190d565b565b610d976118e1565b6001600160a01b0381165f81815260016020526040808220805460ff19169055517f4cc417c2e89b3f7b0a176df6d4dae110f50794a0228922b8b4e12ebff40607089190a250565b6040516331a9108f60e11b8152600481018790525f906001600160a01b037f00000000000000000000000000000000000000000000000000000000000000001690636352211e90602401602060405180830381865afa158015610e44573d5f5f3e3d5ffd5b505050506040513d601f19601f82011682018060405250810190610e689190611f21565b6001600160a01b031603610eba5760405162461bcd60e51b81526020600482015260146024820152731059d95b9d081b9bdd081c9959da5cdd195c995960621b60448201526064015b60405180910390fd5b60128460ff161115610f015760405162461bcd60e51b815260206004820152601060248201526f496e76616c696420646563696d616c7360801b6044820152606401610eb1565b335f9081526001602052604090205460ff16610fe857604051636caf395f60e11b8152336004820152602481018790527f00000000000000000000000000000000000000000000000000000000000000006001600160a01b03169063d95e72be90604401602060405180830381865afa158015610f80573d5f5f3e3d5ffd5b505050506040513d601f19601f82011682018060405250810190610fa49190611f3c565b15610fe85760405162461bcd60e51b815260206004820152601460248201527343616e6e6f742073656c662d666565646261636b60601b6044820152606401610eb1565b5f8681526002602090815260408083203384529091528120600601549003611038575f8681526004602090815260408220805460018101825590835291200180546001600160a01b031916331790555b6040805161012081018252878152336020808301828152600f8a900b84860190815260ff808b1660608701908152608087018b815260a088018b905260c088018a90524260e08901525f61010089018190528f815260028088528a822098825297909652979094208651815592516001840180546001600160a01b03929092166001600160a01b0319909216919091179055905193820180549351909116600160801b0270ffffffffffffffffffffffffffffffffff199093166fffffffffffffffffffffffffffffffff9094169390931791909117909155915190919060038201906111259082611fa7565b5060a0820151600482019061113a9082611fa7565b5060c0820151600582019061114f9082611fa7565b5060e082015181600601556101008201518160070155905050336001600160a01b0316867f391398316e58f0637d3e1cf9bbcb422776cd105795e9a2a20ed7c9e004979df387878787876040516111aa959493929190612062565b60405180910390a3505050505050565b5f8381526002602090815260408083206001600160a01b03861684529091529020600601546112195760405162461bcd60e51b815260206004820152600b60248201526a4e6f20666565646261636b60a81b6044820152606401610eb1565b604051636caf395f60e11b8152336004820152602481018490527f00000000000000000000000000000000000000000000000000000000000000006001600160a01b03169063d95e72be90604401602060405180830381865afa158015611282573d5f5f3e3d5ffd5b505050506040513d601f19601f820116820180604052508101906112a69190611f3c565b6112e35760405162461bcd60e51b815260206004820152600e60248201526d139bdd08185d5d1a1bdc9a5e995960921b6044820152606401610eb1565b5f838360405160200161131292919091825260601b6bffffffffffffffffffffffff1916602082015260340190565b60408051808303601f1901815282825280516020918201205f81815260038084528482206060870186523387528487018981524296880196909652805460018082018355918452949092208651949091020180546001600160a01b0319166001600160a01b03909416939093178355925190945090918201906113959082611fa7565b506040918201516002918201555f86815260209182528281206001600160a01b03871682529091529081206007018054916113cf83611f09565b9190505550336001600160a01b0316836001600160a01b0316857f962e4269e46d6ac143cfbff1707071bed9723700910e6efce548cec3c8fe80308560405161141891906119fe565b60405180910390a450505050565b5f5f5f5f5f60045f8781526020019081526020015f2080548060200260200160405190810160405280929190818152602001828054801561148e57602002820191905f5260205f20905b81546001600160a01b03168152600190910190602001808311611470575b5050505050905080519450845f036114b2575f5f5f5f9450945094509450506117ff565b5f93506114bd6119b1565b5f5b8681101561178c575f888152600260205260408120845182908690859081106114ea576114ea611ee1565b6020908102919091018101516001600160a01b0390811683528282019390935260409182015f20825161012081018452815481526001820154909416918401919091526002810154600f81900b92840192909252600160801b90910460ff16606083015260038101805460808401919061156390611ea9565b80601f016020809104026020016040519081016040528092919081815260200182805461158f90611ea9565b80156115da5780601f106115b1576101008083540402835291602001916115da565b820191905f5260205f20905b8154815290600101906020018083116115bd57829003601f168201915b505050505081526020016004820180546115f390611ea9565b80601f016020809104026020016040519081016040528092919081815260200182805461161f90611ea9565b801561166a5780601f106116415761010080835404028352916020019161166a565b820191905f5260205f20905b81548152906001019060200180831161164d57829003601f168201915b5050505050815260200160058201805461168390611ea9565b80601f01602080910402602001604051908101604052809291908181526020018280546116af90611ea9565b80156116fa5780601f106116d1576101008083540402835291602001916116fa565b820191905f5260205f20905b8154815290600101906020018083116116dd57829003601f168201915b5050505050815260200160068201548152602001600782015481525050905082816060015160ff166013811061173257611732611ee1565b6020020180519061174282611f09565b90525060608101515f906117579060126120b8565b61176290600a6121b4565b8260400151600f0b61177491906121c2565b905061178081896121f1565b975050506001016114bf565b505f805b60128160ff16116117ee5781838260ff16601381106117b1576117b1611ee1565b602002015111156117dc57828160ff16601381106117d1576117d1611ee1565b602002015191508094505b806117e681612218565b915050611790565b506117f98787612236565b94505050505b9193509193565b61180e6118e1565b6001600160a01b0381166118565760405162461bcd60e51b815260206004820152600f60248201526e496e76616c6964206164647265737360881b6044820152606401610eb1565b6001600160a01b0381165f818152600160208190526040808320805460ff1916909217909155517f23a6b6472d6552349324292635248d241b1645fad970a38958643651edaaf08a9190a250565b6118ac6118e1565b6001600160a01b0381166118d557604051631e4fbdf760e01b81525f6004820152602401610eb1565b6118de8161190d565b50565b5f546001600160a01b03163314610d8d5760405163118cdaa760e01b8152336004820152602401610eb1565b5f80546001600160a01b038381166001600160a01b0319831681178455604051919092169283917f8be0079c531659141344cd1fd0a4f28419497f9722a3daafe3b4186f6b6457e09190a35050565b6040518061012001604052805f81526020015f6001600160a01b031681526020015f600f0b81526020015f60ff1681526020016060815260200160608152602001606081526020015f81526020015f81525090565b6040518061026001604052806013906020820280368337509192915050565b5f81518084528060208401602086015e5f602082860101526020601f19601f83011685010191505092915050565b602081525f611a1060208301846119d0565b9392505050565b6001600160a01b03811681146118de575f5ffd5b5f5f60408385031215611a3c575f5ffd5b823591506020830135611a4e81611a17565b809150509250929050565b5f602082016020835280845180835260408501915060408160051b8601019250602086015f5b82811015611add57868503603f19018452815180516001600160a01b03168652602080820151606091880182905290611aba908801826119d0565b604092830151979092019690965294506020938401939190910190600101611a7f565b50929695505050505050565b5f60208284031215611af9575f5ffd5b8135611a1081611a17565b5f60208284031215611b14575f5ffd5b5035919050565b602080825282518282018190525f918401906040840190835b81811015611b5b5783516001600160a01b0316835260209384019390920191600101611b34565b509095945050505050565b634e487b7160e01b5f52604160045260245ffd5b5f82601f830112611b89575f5ffd5b813567ffffffffffffffff811115611ba357611ba3611b66565b604051601f8201601f19908116603f0116810167ffffffffffffffff81118282101715611bd257611bd2611b66565b604052818152838201602001851015611be9575f5ffd5b816020850160208301375f918101602001919091529392505050565b5f5f5f60608486031215611c17575f5ffd5b83359250602084013567ffffffffffffffff811115611c34575f5ffd5b611c4086828701611b7a565b925050604084013567ffffffffffffffff811115611c5c575f5ffd5b611c6886828701611b7a565b9150509250925092565b805182525f6020820151611c9160208501826001600160a01b03169052565b506040820151611ca66040850182600f0b9052565b506060820151611cbb606085018260ff169052565b5060808201516101206080850152611cd76101208501826119d0565b905060a083015184820360a0860152611cf082826119d0565b91505060c083015184820360c0860152611d0a82826119d0565b91505060e083015160e08501526101008301516101008501528091505092915050565b5f602082016020835280845180835260408501915060408160051b8601019250602086015f5b82811015611add57603f19878603018452611d6f858351611c72565b94506020938401939190910190600101611d53565b602081525f611a106020830184611c72565b803560ff81168114611da6575f5ffd5b919050565b5f5f5f5f5f5f60c08789031215611dc0575f5ffd5b863595506020870135600f81900b8114611dd8575f5ffd5b9450611de660408801611d96565b9350606087013567ffffffffffffffff811115611e01575f5ffd5b611e0d89828a01611b7a565b935050608087013567ffffffffffffffff811115611e29575f5ffd5b611e3589828a01611b7a565b92505060a087013567ffffffffffffffff811115611e51575f5ffd5b611e5d89828a01611b7a565b9150509295509295509295565b5f5f5f60608486031215611e7c575f5ffd5b833592506020840135611e8e81611a17565b9150604084013567ffffffffffffffff811115611c5c575f5ffd5b600181811c90821680611ebd57607f821691505b602082108103611edb57634e487b7160e01b5f52602260045260245ffd5b50919050565b634e487b7160e01b5f52603260045260245ffd5b634e487b7160e01b5f52601160045260245ffd5b5f60018201611f1a57611f1a611ef5565b5060010190565b5f60208284031215611f31575f5ffd5b8151611a1081611a17565b5f60208284031215611f4c575f5ffd5b81518015158114611a10575f5ffd5b601f821115611fa257805f5260205f20601f840160051c81016020851015611f805750805b601f840160051c820191505b81811015611f9f575f8155600101611f8c565b50505b505050565b815167ffffffffffffffff811115611fc157611fc1611b66565b611fd581611fcf8454611ea9565b84611f5b565b6020601f821160018114612007575f8315611ff05750848201515b5f19600385901b1c1916600184901b178455611f9f565b5f84815260208120601f198516915b828110156120365787850151825560209485019460019092019101612016565b508482101561205357868401515f19600387901b60f8161c191681555b50505050600190811b01905550565b85600f0b815260ff8516602082015260a060408201525f61208660a08301866119d0565b828103606084015261209881866119d0565b905082810360808401526120ac81856119d0565b98975050505050505050565b60ff828116828216039081111561044f5761044f611ef5565b6001815b600184111561210c578085048111156120f0576120f0611ef5565b60018416156120fe57908102905b60019390931c9280026120d5565b935093915050565b5f826121225750600161044f565b8161212e57505f61044f565b8160018114612144576002811461214e5761216a565b600191505061044f565b60ff84111561215f5761215f611ef5565b50506001821b61044f565b5060208310610133831016604e8410600b841016171561218d575081810a61044f565b6121995f1984846120d1565b805f19048211156121ac576121ac611ef5565b029392505050565b5f611a1060ff841683612114565b8082025f8212600160ff1b841416156121dd576121dd611ef5565b818105831482151761044f5761044f611ef5565b8082018281125f83128015821682158216171561221057612210611ef5565b505092915050565b5f60ff821660ff810361222d5761222d611ef5565b60010192915050565b5f8261225057634e487b7160e01b5f52601260045260245ffd5b600160ff1b82145f198414161561226957612269611ef5565b50059056fea26469706673582212202c37adb72478dd38278314c8b3d0f52879a7ae55cd7510c7030b3494d0b4a4e964736f6c634300081c0033","opcodes":"PUSH1 0xA0 PUSH1 0x40 MSTORE CALLVALUE DUP1 ISZERO PUSH2 0xF JUMPI PUSH0 PUSH0 REVERT JUMPDEST POP PUSH1 0x40 MLOAD PUSH2 0x23BB CODESIZE SUB DUP1 PUSH2 0x23BB DUP4 CODECOPY DUP2 ADD PUSH1 0x40 DUP2 SWAP1 MSTORE PUSH2 0x2E SWAP2 PUSH2 0xBD JUMP JUMPDEST CALLER DUP1 PUSH2 0x53 JUMPI PUSH1 0x40 MLOAD PUSH4 0x1E4FBDF7 PUSH1 0xE0 SHL DUP2 MSTORE PUSH0 PUSH1 0x4 DUP3 ADD MSTORE PUSH1 0x24 ADD PUSH1 0x40 MLOAD DUP1 SWAP2 SUB SWAP1 REVERT JUMPDEST PUSH2 0x5C DUP2 PUSH2 0x6E JUMP JUMPDEST POP PUSH1 0x1 PUSH1 0x1 PUSH1 0xA0 SHL SUB AND PUSH1 0x80 MSTORE PUSH2 0xEA JUMP JUMPDEST PUSH0 DUP1 SLOAD PUSH1 0x1 PUSH1 0x1 PUSH1 0xA0 SHL SUB DUP4 DUP2 AND PUSH1 0x1 PUSH1 0x1 PUSH1 0xA0 SHL SUB NOT DUP4 AND DUP2 OR DUP5 SSTORE PUSH1 0x40 MLOAD SWAP2 SWAP1 SWAP3 AND SWAP3 DUP4 SWAP2 PUSH32 0x8BE0079C531659141344CD1FD0A4F28419497F9722A3DAAFE3B4186F6B6457E0 SWAP2 SWAP1 LOG3 POP POP JUMP JUMPDEST PUSH0 PUSH1 0x20 DUP3 DUP5 SUB SLT ISZERO PUSH2 0xCD JUMPI PUSH0 PUSH0 REVERT JUMPDEST DUP2 MLOAD PUSH1 0x1 PUSH1 0x1 PUSH1 0xA0 SHL SUB DUP2 AND DUP2 EQ PUSH2 0xE3 JUMPI PUSH0 PUSH0 REVERT JUMPDEST SWAP4 SWAP3 POP POP POP JUMP JUMPDEST PUSH1 0x80 MLOAD PUSH2 0x22A4 PUSH2 0x117 PUSH0 CODECOPY PUSH0 DUP2 DUP2 PUSH2 0x134 ADD MSTORE DUP2 DUP2 PUSH2 0xDFF ADD MSTORE DUP2 DUP2 PUSH2 0xF33 ADD MSTORE PUSH2 0x1235 ADD MSTORE PUSH2 0x22A4 PUSH0 RETURN INVALID PUSH1 0x80 PUSH1 0x40 MSTORE CALLVALUE DUP1 ISZERO PUSH2 0xF JUMPI PUSH0 PUSH0 REVERT JUMPDEST POP PUSH1 0x4 CALLDATASIZE LT PUSH2 0xFB JUMPI PUSH0 CALLDATALOAD PUSH1 0xE0 SHR DUP1 PUSH4 0x75B63B38 GT PUSH2 0x93 JUMPI DUP1 PUSH4 0x98963F51 GT PUSH2 0x63 JUMPI DUP1 PUSH4 0x98963F51 EQ PUSH2 0x28B JUMPI DUP1 PUSH4 0xAEE14460 EQ PUSH2 0x29E JUMPI DUP1 PUSH4 0xEB3CEF1B EQ PUSH2 0x2D4 JUMPI DUP1 PUSH4 0xF2FDE38B EQ PUSH2 0x2E7 JUMPI PUSH0 PUSH0 REVERT JUMPDEST DUP1 PUSH4 0x75B63B38 EQ PUSH2 0x233 JUMPI DUP1 PUSH4 0x763139EA EQ PUSH2 0x246 JUMPI DUP1 PUSH4 0x8499939F EQ PUSH2 0x259 JUMPI DUP1 PUSH4 0x8DA5CB5B EQ PUSH2 0x27B JUMPI PUSH0 PUSH0 REVERT JUMPDEST DUP1 PUSH4 0x42DD519C GT PUSH2 0xCE JUMPI DUP1 PUSH4 0x42DD519C EQ PUSH2 0x1C9 JUMPI DUP1 PUSH4 0x547D88A4 EQ PUSH2 0x1E9 JUMPI DUP1 PUSH4 0x6AB42755 EQ PUSH2 0x209 JUMPI DUP1 PUSH4 0x715018A6 EQ PUSH2 0x229 JUMPI PUSH0 PUSH0 REVERT JUMPDEST DUP1 PUSH4 0xD8E6E2C EQ PUSH2 0xFF JUMPI DUP1 PUSH4 0x134E18F4 EQ PUSH2 0x12F JUMPI DUP1 PUSH4 0x17222011 EQ PUSH2 0x16E JUMPI DUP1 PUSH4 0x1BBC279B EQ PUSH2 0x18E JUMPI JUMPDEST PUSH0 PUSH0 REVERT JUMPDEST PUSH1 0x40 DUP1 MLOAD DUP1 DUP3 ADD DUP3 MSTORE PUSH1 0x5 DUP2 MSTORE PUSH5 0x322E312E3 PUSH1 0xDC SHL PUSH1 0x20 DUP3 ADD MSTORE SWAP1 MLOAD PUSH2 0x126 SWAP2 SWAP1 PUSH2 0x19FE JUMP JUMPDEST PUSH1 0x40 MLOAD DUP1 SWAP2 SUB SWAP1 RETURN JUMPDEST PUSH2 0x156 PUSH32 0x0 DUP2 JUMP JUMPDEST PUSH1 0x40 MLOAD PUSH1 0x1 PUSH1 0x1 PUSH1 0xA0 SHL SUB SWAP1 SWAP2 AND DUP2 MSTORE PUSH1 0x20 ADD PUSH2 0x126 JUMP JUMPDEST PUSH2 0x181 PUSH2 0x17C CALLDATASIZE PUSH1 0x4 PUSH2 0x1A2B JUMP JUMPDEST PUSH2 0x2FA JUMP JUMPDEST PUSH1 0x40 MLOAD PUSH2 0x126 SWAP2 SWAP1 PUSH2 0x1A59 JUMP JUMPDEST PUSH2 0x1B9 PUSH2 0x19C CALLDATASIZE PUSH1 0x4 PUSH2 0x1AE9 JUMP JUMPDEST PUSH1 0x1 PUSH1 0x1 PUSH1 0xA0 SHL SUB AND PUSH0 SWAP1 DUP2 MSTORE PUSH1 0x1 PUSH1 0x20 MSTORE PUSH1 0x40 SWAP1 KECCAK256 SLOAD PUSH1 0xFF AND SWAP1 JUMP JUMPDEST PUSH1 0x40 MLOAD SWAP1 ISZERO ISZERO DUP2 MSTORE PUSH1 0x20 ADD PUSH2 0x126 JUMP JUMPDEST PUSH2 0x1DC PUSH2 0x1D7 CALLDATASIZE PUSH1 0x4 PUSH2 0x1B04 JUMP JUMPDEST PUSH2 0x455 JUMP JUMPDEST PUSH1 0x40 MLOAD PUSH2 0x126 SWAP2 SWAP1 PUSH2 0x1B1B JUMP JUMPDEST PUSH2 0x1FC PUSH2 0x1F7 CALLDATASIZE PUSH1 0x4 PUSH2 0x1C05 JUMP JUMPDEST PUSH2 0x4BE JUMP JUMPDEST PUSH1 0x40 MLOAD PUSH2 0x126 SWAP2 SWAP1 PUSH2 0x1D2D JUMP JUMPDEST PUSH2 0x21C PUSH2 0x217 CALLDATASIZE PUSH1 0x4 PUSH2 0x1A2B JUMP JUMPDEST PUSH2 0xB43 JUMP JUMPDEST PUSH1 0x40 MLOAD PUSH2 0x126 SWAP2 SWAP1 PUSH2 0x1D84 JUMP JUMPDEST PUSH2 0x231 PUSH2 0xD7C JUMP JUMPDEST STOP JUMPDEST PUSH2 0x231 PUSH2 0x241 CALLDATASIZE PUSH1 0x4 PUSH2 0x1AE9 JUMP JUMPDEST PUSH2 0xD8F JUMP JUMPDEST PUSH2 0x231 PUSH2 0x254 CALLDATASIZE PUSH1 0x4 PUSH2 0x1DAB JUMP JUMPDEST PUSH2 0xDDF JUMP JUMPDEST PUSH2 0x1B9 PUSH2 0x267 CALLDATASIZE PUSH1 0x4 PUSH2 0x1AE9 JUMP JUMPDEST PUSH1 0x1 PUSH1 0x20 MSTORE PUSH0 SWAP1 DUP2 MSTORE PUSH1 0x40 SWAP1 KECCAK256 SLOAD PUSH1 0xFF AND DUP2 JUMP JUMPDEST PUSH0 SLOAD PUSH1 0x1 PUSH1 0x1 PUSH1 0xA0 SHL SUB AND PUSH2 0x156 JUMP JUMPDEST PUSH2 0x231 PUSH2 0x299 CALLDATASIZE PUSH1 0x4 PUSH2 0x1E6A JUMP JUMPDEST PUSH2 0x11BA JUMP JUMPDEST PUSH2 0x2B1 PUSH2 0x2AC CALLDATASIZE PUSH1 0x4 PUSH2 0x1B04 JUMP JUMPDEST PUSH2 0x1426 JUMP JUMPDEST PUSH1 0x40 DUP1 MLOAD SWAP5 DUP6 MSTORE PUSH1 0x20 DUP6 ADD SWAP4 SWAP1 SWAP4 MSTORE SWAP2 DUP4 ADD MSTORE PUSH1 0xFF AND PUSH1 0x60 DUP3 ADD MSTORE PUSH1 0x80 ADD PUSH2 0x126 JUMP JUMPDEST PUSH2 0x231 PUSH2 0x2E2 CALLDATASIZE PUSH1 0x4 PUSH2 0x1AE9 JUMP JUMPDEST PUSH2 0x1806 JUMP JUMPDEST PUSH2 0x231 PUSH2 0x2F5 CALLDATASIZE PUSH1 0x4 PUSH2 0x1AE9 JUMP JUMPDEST PUSH2 0x18A4 JUMP JUMPDEST PUSH1 0x60 PUSH0 DUP4 DUP4 PUSH1 0x40 MLOAD PUSH1 0x20 ADD PUSH2 0x32B SWAP3 SWAP2 SWAP1 SWAP2 DUP3 MSTORE PUSH1 0x60 SHL PUSH12 0xFFFFFFFFFFFFFFFFFFFFFFFF NOT AND PUSH1 0x20 DUP3 ADD MSTORE PUSH1 0x34 ADD SWAP1 JUMP JUMPDEST PUSH1 0x40 DUP1 MLOAD PUSH1 0x1F NOT DUP2 DUP5 SUB ADD DUP2 MSTORE DUP3 DUP3 MSTORE DUP1 MLOAD PUSH1 0x20 SWAP2 DUP3 ADD KECCAK256 PUSH0 DUP2 DUP2 MSTORE PUSH1 0x3 DUP4 MSTORE DUP4 DUP2 KECCAK256 DUP1 SLOAD DUP1 DUP6 MUL DUP8 ADD DUP6 ADD SWAP1 SWAP6 MSTORE DUP5 DUP7 MSTORE SWAP2 SWAP6 POP SWAP1 SWAP3 SWAP2 DUP5 ADD JUMPDEST DUP3 DUP3 LT ISZERO PUSH2 0x447 JUMPI PUSH0 DUP5 DUP2 MSTORE PUSH1 0x20 SWAP1 DUP2 SWAP1 KECCAK256 PUSH1 0x40 DUP1 MLOAD PUSH1 0x60 DUP2 ADD SWAP1 SWAP2 MSTORE PUSH1 0x3 DUP6 MUL SWAP1 SWAP2 ADD DUP1 SLOAD PUSH1 0x1 PUSH1 0x1 PUSH1 0xA0 SHL SUB AND DUP3 MSTORE PUSH1 0x1 DUP2 ADD DUP1 SLOAD SWAP3 SWAP4 SWAP2 SWAP3 SWAP2 DUP5 ADD SWAP2 PUSH2 0x3AE SWAP1 PUSH2 0x1EA9 JUMP JUMPDEST DUP1 PUSH1 0x1F ADD PUSH1 0x20 DUP1 SWAP2 DIV MUL PUSH1 0x20 ADD PUSH1 0x40 MLOAD SWAP1 DUP2 ADD PUSH1 0x40 MSTORE DUP1 SWAP3 SWAP2 SWAP1 DUP2 DUP2 MSTORE PUSH1 0x20 ADD DUP3 DUP1 SLOAD PUSH2 0x3DA SWAP1 PUSH2 0x1EA9 JUMP JUMPDEST DUP1 ISZERO PUSH2 0x425 JUMPI DUP1 PUSH1 0x1F LT PUSH2 0x3FC JUMPI PUSH2 0x100 DUP1 DUP4 SLOAD DIV MUL DUP4 MSTORE SWAP2 PUSH1 0x20 ADD SWAP2 PUSH2 0x425 JUMP JUMPDEST DUP3 ADD SWAP2 SWAP1 PUSH0 MSTORE PUSH1 0x20 PUSH0 KECCAK256 SWAP1 JUMPDEST DUP2 SLOAD DUP2 MSTORE SWAP1 PUSH1 0x1 ADD SWAP1 PUSH1 0x20 ADD DUP1 DUP4 GT PUSH2 0x408 JUMPI DUP3 SWAP1 SUB PUSH1 0x1F AND DUP3 ADD SWAP2 JUMPDEST POP POP POP POP POP DUP2 MSTORE PUSH1 0x20 ADD PUSH1 0x2 DUP3 ADD SLOAD DUP2 MSTORE POP POP DUP2 MSTORE PUSH1 0x20 ADD SWAP1 PUSH1 0x1 ADD SWAP1 PUSH2 0x366 JUMP JUMPDEST POP POP POP POP SWAP2 POP POP JUMPDEST SWAP3 SWAP2 POP POP JUMP JUMPDEST PUSH0 DUP2 DUP2 MSTORE PUSH1 0x4 PUSH1 0x20 SWAP1 DUP2 MSTORE PUSH1 0x40 SWAP2 DUP3 SWAP1 KECCAK256 DUP1 SLOAD DUP4 MLOAD DUP2 DUP5 MUL DUP2 ADD DUP5 ADD SWAP1 SWAP5 MSTORE DUP1 DUP5 MSTORE PUSH1 0x60 SWAP4 SWAP3 DUP4 ADD DUP3 DUP3 DUP1 ISZERO PUSH2 0x4B2 JUMPI PUSH1 0x20 MUL DUP3 ADD SWAP2 SWAP1 PUSH0 MSTORE PUSH1 0x20 PUSH0 KECCAK256 SWAP1 JUMPDEST DUP2 SLOAD PUSH1 0x1 PUSH1 0x1 PUSH1 0xA0 SHL SUB AND DUP2 MSTORE PUSH1 0x1 SWAP1 SWAP2 ADD SWAP1 PUSH1 0x20 ADD DUP1 DUP4 GT PUSH2 0x494 JUMPI JUMPDEST POP POP POP POP POP SWAP1 POP SWAP2 SWAP1 POP JUMP JUMPDEST PUSH0 DUP4 DUP2 MSTORE PUSH1 0x4 PUSH1 0x20 SWAP1 DUP2 MSTORE PUSH1 0x40 DUP1 DUP4 KECCAK256 DUP1 SLOAD DUP3 MLOAD DUP2 DUP6 MUL DUP2 ADD DUP6 ADD SWAP1 SWAP4 MSTORE DUP1 DUP4 MSTORE PUSH1 0x60 SWAP5 SWAP4 DUP4 ADD DUP3 DUP3 DUP1 ISZERO PUSH2 0x51A JUMPI PUSH1 0x20 MUL DUP3 ADD SWAP2 SWAP1 PUSH0 MSTORE PUSH1 0x20 PUSH0 KECCAK256 SWAP1 JUMPDEST DUP2 SLOAD PUSH1 0x1 PUSH1 0x1 PUSH1 0xA0 SHL SUB AND DUP2 MSTORE PUSH1 0x1 SWAP1 SWAP2 ADD SWAP1 PUSH1 0x20 ADD DUP1 DUP4 GT PUSH2 0x4FC JUMPI JUMPDEST POP POP DUP8 MLOAD PUSH1 0x20 DUP1 DUP11 ADD DUP3 SWAP1 KECCAK256 DUP10 MLOAD SWAP2 DUP11 ADD DUP3 SWAP1 KECCAK256 SWAP7 SWAP8 POP PUSH0 SWAP7 SWAP1 SWAP6 POP SWAP4 POP SWAP1 ISZERO ISZERO SWAP2 POP ISZERO ISZERO DUP5 JUMPDEST DUP7 MLOAD DUP2 LT ISZERO PUSH2 0x7FD JUMPI PUSH0 DUP12 DUP2 MSTORE PUSH1 0x2 PUSH1 0x20 MSTORE PUSH1 0x40 DUP2 KECCAK256 DUP9 MLOAD DUP3 SWAP1 DUP11 SWAP1 DUP6 SWAP1 DUP2 LT PUSH2 0x56D JUMPI PUSH2 0x56D PUSH2 0x1EE1 JUMP JUMPDEST PUSH1 0x20 SWAP1 DUP2 MUL SWAP2 SWAP1 SWAP2 ADD DUP2 ADD MLOAD PUSH1 0x1 PUSH1 0x1 PUSH1 0xA0 SHL SUB SWAP1 DUP2 AND DUP4 MSTORE DUP3 DUP3 ADD SWAP4 SWAP1 SWAP4 MSTORE PUSH1 0x40 SWAP2 DUP3 ADD PUSH0 KECCAK256 DUP3 MLOAD PUSH2 0x120 DUP2 ADD DUP5 MSTORE DUP2 SLOAD DUP2 MSTORE PUSH1 0x1 DUP3 ADD SLOAD SWAP1 SWAP5 AND SWAP2 DUP5 ADD SWAP2 SWAP1 SWAP2 MSTORE PUSH1 0x2 DUP2 ADD SLOAD PUSH1 0xF DUP2 SWAP1 SIGNEXTEND SWAP3 DUP5 ADD SWAP3 SWAP1 SWAP3 MSTORE PUSH1 0x1 PUSH1 0x80 SHL SWAP1 SWAP2 DIV PUSH1 0xFF AND PUSH1 0x60 DUP4 ADD MSTORE PUSH1 0x3 DUP2 ADD DUP1 SLOAD PUSH1 0x80 DUP5 ADD SWAP2 SWAP1 PUSH2 0x5E6 SWAP1 PUSH2 0x1EA9 JUMP JUMPDEST DUP1 PUSH1 0x1F ADD PUSH1 0x20 DUP1 SWAP2 DIV MUL PUSH1 0x20 ADD PUSH1 0x40 MLOAD SWAP1 DUP2 ADD PUSH1 0x40 MSTORE DUP1 SWAP3 SWAP2 SWAP1 DUP2 DUP2 MSTORE PUSH1 0x20 ADD DUP3 DUP1 SLOAD PUSH2 0x612 SWAP1 PUSH2 0x1EA9 JUMP JUMPDEST DUP1 ISZERO PUSH2 0x65D JUMPI DUP1 PUSH1 0x1F LT PUSH2 0x634 JUMPI PUSH2 0x100 DUP1 DUP4 SLOAD DIV MUL DUP4 MSTORE SWAP2 PUSH1 0x20 ADD SWAP2 PUSH2 0x65D JUMP JUMPDEST DUP3 ADD SWAP2 SWAP1 PUSH0 MSTORE PUSH1 0x20 PUSH0 KECCAK256 SWAP1 JUMPDEST DUP2 SLOAD DUP2 MSTORE SWAP1 PUSH1 0x1 ADD SWAP1 PUSH1 0x20 ADD DUP1 DUP4 GT PUSH2 0x640 JUMPI DUP3 SWAP1 SUB PUSH1 0x1F AND DUP3 ADD SWAP2 JUMPDEST POP POP POP POP POP DUP2 MSTORE PUSH1 0x20 ADD PUSH1 0x4 DUP3 ADD DUP1 SLOAD PUSH2 0x676 SWAP1 PUSH2 0x1EA9 JUMP JUMPDEST DUP1 PUSH1 0x1F ADD PUSH1 0x20 DUP1 SWAP2 DIV MUL PUSH1 0x20 ADD PUSH1 0x40 MLOAD SWAP1 DUP2 ADD PUSH1 0x40 MSTORE DUP1 SWAP3 SWAP2 SWAP1 DUP2 DUP2 MSTORE PUSH1 0x20 ADD DUP3 DUP1 SLOAD PUSH2 0x6A2 SWAP1 PUSH2 0x1EA9 JUMP JUMPDEST DUP1 ISZERO PUSH2 0x6ED JUMPI DUP1 PUSH1 0x1F LT PUSH2 0x6C4 JUMPI PUSH2 0x100 DUP1 DUP4 SLOAD DIV MUL DUP4 MSTORE SWAP2 PUSH1 0x20 ADD SWAP2 PUSH2 0x6ED JUMP JUMPDEST DUP3 ADD SWAP2 SWAP1 PUSH0 MSTORE PUSH1 0x20 PUSH0 KECCAK256 SWAP1 JUMPDEST DUP2 SLOAD DUP2 MSTORE SWAP1 PUSH1 0x1 ADD SWAP1 PUSH1 0x20 ADD DUP1 DUP4 GT PUSH2 0x6D0 JUMPI DUP3 SWAP1 SUB PUSH1 0x1F AND DUP3 ADD SWAP2 JUMPDEST POP POP POP POP POP DUP2 MSTORE PUSH1 0x20 ADD PUSH1 0x5 DUP3 ADD DUP1 SLOAD PUSH2 0x706 SWAP1 PUSH2 0x1EA9 JUMP JUMPDEST DUP1 PUSH1 0x1F ADD PUSH1 0x20 DUP1 SWAP2 DIV MUL PUSH1 0x20 ADD PUSH1 0x40 MLOAD SWAP1 DUP2 ADD PUSH1 0x40 MSTORE DUP1 SWAP3 SWAP2 SWAP1 DUP2 DUP2 MSTORE PUSH1 0x20 ADD DUP3 DUP1 SLOAD PUSH2 0x732 SWAP1 PUSH2 0x1EA9 JUMP JUMPDEST DUP1 ISZERO PUSH2 0x77D JUMPI DUP1 PUSH1 0x1F LT PUSH2 0x754 JUMPI PUSH2 0x100 DUP1 DUP4 SLOAD DIV MUL DUP4 MSTORE SWAP2 PUSH1 0x20 ADD SWAP2 PUSH2 0x77D JUMP JUMPDEST DUP3 ADD SWAP2 SWAP1 PUSH0 MSTORE PUSH1 0x20 PUSH0 KECCAK256 SWAP1 JUMPDEST DUP2 SLOAD DUP2 MSTORE SWAP1 PUSH1 0x1 ADD SWAP1 PUSH1 0x20 ADD DUP1 DUP4 GT PUSH2 0x760 JUMPI DUP3 SWAP1 SUB PUSH1 0x1F AND DUP3 ADD SWAP2 JUMPDEST POP POP POP SWAP2 DUP4 MSTORE POP POP PUSH1 0x6 DUP3 ADD SLOAD PUSH1 0x20 DUP3 ADD MSTORE PUSH1 0x7 SWAP1 SWAP2 ADD SLOAD PUSH1 0x40 SWAP1 SWAP2 ADD MSTORE SWAP1 POP PUSH1 0x1 DUP5 DUP1 ISZERO PUSH2 0x7B7 JUMPI POP DUP7 DUP3 PUSH1 0x80 ADD MLOAD DUP1 MLOAD SWAP1 PUSH1 0x20 ADD KECCAK256 EQ ISZERO JUMPDEST ISZERO PUSH2 0x7BF JUMPI POP PUSH0 JUMPDEST DUP4 DUP1 ISZERO PUSH2 0x7D7 JUMPI POP DUP6 DUP3 PUSH1 0xA0 ADD MLOAD DUP1 MLOAD SWAP1 PUSH1 0x20 ADD KECCAK256 EQ ISZERO JUMPDEST ISZERO PUSH2 0x7DF JUMPI POP PUSH0 JUMPDEST DUP1 ISZERO PUSH2 0x7F3 JUMPI DUP8 PUSH2 0x7EF DUP2 PUSH2 0x1F09 JUMP JUMPDEST SWAP9 POP POP JUMPDEST POP POP PUSH1 0x1 ADD PUSH2 0x541 JUMP JUMPDEST POP PUSH0 DUP6 PUSH8 0xFFFFFFFFFFFFFFFF DUP2 GT ISZERO PUSH2 0x818 JUMPI PUSH2 0x818 PUSH2 0x1B66 JUMP JUMPDEST PUSH1 0x40 MLOAD SWAP1 DUP1 DUP3 MSTORE DUP1 PUSH1 0x20 MUL PUSH1 0x20 ADD DUP3 ADD PUSH1 0x40 MSTORE DUP1 ISZERO PUSH2 0x851 JUMPI DUP2 PUSH1 0x20 ADD JUMPDEST PUSH2 0x83E PUSH2 0x195C JUMP JUMPDEST DUP2 MSTORE PUSH1 0x20 ADD SWAP1 PUSH1 0x1 SWAP1 SUB SWAP1 DUP2 PUSH2 0x836 JUMPI SWAP1 POP JUMPDEST POP SWAP1 POP PUSH0 DUP1 JUMPDEST DUP9 MLOAD DUP2 LT ISZERO PUSH2 0xB32 JUMPI PUSH0 DUP14 DUP2 MSTORE PUSH1 0x2 PUSH1 0x20 MSTORE PUSH1 0x40 DUP2 KECCAK256 DUP11 MLOAD DUP3 SWAP1 DUP13 SWAP1 DUP6 SWAP1 DUP2 LT PUSH2 0x883 JUMPI PUSH2 0x883 PUSH2 0x1EE1 JUMP JUMPDEST PUSH1 0x20 SWAP1 DUP2 MUL SWAP2 SWAP1 SWAP2 ADD DUP2 ADD MLOAD PUSH1 0x1 PUSH1 0x1 PUSH1 0xA0 SHL SUB SWAP1 DUP2 AND DUP4 MSTORE DUP3 DUP3 ADD SWAP4 SWAP1 SWAP4 MSTORE PUSH1 0x40 SWAP2 DUP3 ADD PUSH0 KECCAK256 DUP3 MLOAD PUSH2 0x120 DUP2 ADD DUP5 MSTORE DUP2 SLOAD DUP2 MSTORE PUSH1 0x1 DUP3 ADD SLOAD SWAP1 SWAP5 AND SWAP2 DUP5 ADD SWAP2 SWAP1 SWAP2 MSTORE PUSH1 0x2 DUP2 ADD SLOAD PUSH1 0xF DUP2 SWAP1 SIGNEXTEND SWAP3 DUP5 ADD SWAP3 SWAP1 SWAP3 MSTORE PUSH1 0x1 PUSH1 0x80 SHL SWAP1 SWAP2 DIV PUSH1 0xFF AND PUSH1 0x60 DUP4 ADD MSTORE PUSH1 0x3 DUP2 ADD DUP1 SLOAD PUSH1 0x80 DUP5 ADD SWAP2 SWAP1 PUSH2 0x8FC SWAP1 PUSH2 0x1EA9 JUMP JUMPDEST DUP1 PUSH1 0x1F ADD PUSH1 0x20 DUP1 SWAP2 DIV MUL PUSH1 0x20 ADD PUSH1 0x40 MLOAD SWAP1 DUP2 ADD PUSH1 0x40 MSTORE DUP1 SWAP3 SWAP2 SWAP1 DUP2 DUP2 MSTORE PUSH1 0x20 ADD DUP3 DUP1 SLOAD PUSH2 0x928 SWAP1 PUSH2 0x1EA9 JUMP JUMPDEST DUP1 ISZERO PUSH2 0x973 JUMPI DUP1 PUSH1 0x1F LT PUSH2 0x94A JUMPI PUSH2 0x100 DUP1 DUP4 SLOAD DIV MUL DUP4 MSTORE SWAP2 PUSH1 0x20 ADD SWAP2 PUSH2 0x973 JUMP JUMPDEST DUP3 ADD SWAP2 SWAP1 PUSH0 MSTORE PUSH1 0x20 PUSH0 KECCAK256 SWAP1 JUMPDEST DUP2 SLOAD DUP2 MSTORE SWAP1 PUSH1 0x1 ADD SWAP1 PUSH1 0x20 ADD DUP1 DUP4 GT PUSH2 0x956 JUMPI DUP3 SWAP1 SUB PUSH1 0x1F AND DUP3 ADD SWAP2 JUMPDEST POP POP POP POP POP DUP2 MSTORE PUSH1 0x20 ADD PUSH1 0x4 DUP3 ADD DUP1 SLOAD PUSH2 0x98C SWAP1 PUSH2 0x1EA9 JUMP JUMPDEST DUP1 PUSH1 0x1F ADD PUSH1 0x20 DUP1 SWAP2 DIV MUL PUSH1 0x20 ADD PUSH1 0x40 MLOAD SWAP1 DUP2 ADD PUSH1 0x40 MSTORE DUP1 SWAP3 SWAP2 SWAP1 DUP2 DUP2 MSTORE PUSH1 0x20 ADD DUP3 DUP1 SLOAD PUSH2 0x9B8 SWAP1 PUSH2 0x1EA9 JUMP JUMPDEST DUP1 ISZERO PUSH2 0xA03 JUMPI DUP1 PUSH1 0x1F LT PUSH2 0x9DA JUMPI PUSH2 0x100 DUP1 DUP4 SLOAD DIV MUL DUP4 MSTORE SWAP2 PUSH1 0x20 ADD SWAP2 PUSH2 0xA03 JUMP JUMPDEST DUP3 ADD SWAP2 SWAP1 PUSH0 MSTORE PUSH1 0x20 PUSH0 KECCAK256 SWAP1 JUMPDEST DUP2 SLOAD DUP2 MSTORE SWAP1 PUSH1 0x1 ADD SWAP1 PUSH1 0x20 ADD DUP1 DUP4 GT PUSH2 0x9E6 JUMPI DUP3 SWAP1 SUB PUSH1 0x1F AND DUP3 ADD SWAP2 JUMPDEST POP POP POP POP POP DUP2 MSTORE PUSH1 0x20 ADD PUSH1 0x5 DUP3 ADD DUP1 SLOAD PUSH2 0xA1C SWAP1 PUSH2 0x1EA9 JUMP JUMPDEST DUP1 PUSH1 0x1F ADD PUSH1 0x20 DUP1 SWAP2 DIV MUL PUSH1 0x20 ADD PUSH1 0x40 MLOAD SWAP1 DUP2 ADD PUSH1 0x40 MSTORE DUP1 SWAP3 SWAP2 SWAP1 DUP2 DUP2 MSTORE PUSH1 0x20 ADD DUP3 DUP1 SLOAD PUSH2 0xA48 SWAP1 PUSH2 0x1EA9 JUMP JUMPDEST DUP1 ISZERO PUSH2 0xA93 JUMPI DUP1 PUSH1 0x1F LT PUSH2 0xA6A JUMPI PUSH2 0x100 DUP1 DUP4 SLOAD DIV MUL DUP4 MSTORE SWAP2 PUSH1 0x20 ADD SWAP2 PUSH2 0xA93 JUMP JUMPDEST DUP3 ADD SWAP2 SWAP1 PUSH0 MSTORE PUSH1 0x20 PUSH0 KECCAK256 SWAP1 JUMPDEST DUP2 SLOAD DUP2 MSTORE SWAP1 PUSH1 0x1 ADD SWAP1 PUSH1 0x20 ADD DUP1 DUP4 GT PUSH2 0xA76 JUMPI DUP3 SWAP1 SUB PUSH1 0x1F AND DUP3 ADD SWAP2 JUMPDEST POP POP POP SWAP2 DUP4 MSTORE POP POP PUSH1 0x6 DUP3 ADD SLOAD PUSH1 0x20 DUP3 ADD MSTORE PUSH1 0x7 SWAP1 SWAP2 ADD SLOAD PUSH1 0x40 SWAP1 SWAP2 ADD MSTORE SWAP1 POP PUSH1 0x1 DUP7 DUP1 ISZERO PUSH2 0xACD JUMPI POP DUP9 DUP3 PUSH1 0x80 ADD MLOAD DUP1 MLOAD SWAP1 PUSH1 0x20 ADD KECCAK256 EQ ISZERO JUMPDEST ISZERO PUSH2 0xAD5 JUMPI POP PUSH0 JUMPDEST DUP6 DUP1 ISZERO PUSH2 0xAED JUMPI POP DUP8 DUP3 PUSH1 0xA0 ADD MLOAD DUP1 MLOAD SWAP1 PUSH1 0x20 ADD KECCAK256 EQ ISZERO JUMPDEST ISZERO PUSH2 0xAF5 JUMPI POP PUSH0 JUMPDEST DUP1 ISZERO PUSH2 0xB28 JUMPI DUP2 DUP6 DUP6 DUP2 MLOAD DUP2 LT PUSH2 0xB0E JUMPI PUSH2 0xB0E PUSH2 0x1EE1 JUMP JUMPDEST PUSH1 0x20 MUL PUSH1 0x20 ADD ADD DUP2 SWAP1 MSTORE POP DUP4 DUP1 PUSH2 0xB24 SWAP1 PUSH2 0x1F09 JUMP JUMPDEST SWAP5 POP POP JUMPDEST POP POP PUSH1 0x1 ADD PUSH2 0x857 JUMP JUMPDEST POP SWAP1 SWAP12 SWAP11 POP POP POP POP POP POP POP POP POP POP POP JUMP JUMPDEST PUSH2 0xB4B PUSH2 0x195C JUMP JUMPDEST PUSH0 DUP4 DUP2 MSTORE PUSH1 0x2 PUSH1 0x20 DUP2 DUP2 MSTORE PUSH1 0x40 DUP1 DUP5 KECCAK256 PUSH1 0x1 PUSH1 0x1 PUSH1 0xA0 SHL SUB DUP8 DUP2 AND DUP7 MSTORE SWAP1 DUP4 MSTORE SWAP4 DUP2 SWAP1 KECCAK256 DUP2 MLOAD PUSH2 0x120 DUP2 ADD DUP4 MSTORE DUP2 SLOAD DUP2 MSTORE PUSH1 0x1 DUP3 ADD SLOAD SWAP1 SWAP6 AND SWAP3 DUP6 ADD SWAP3 SWAP1 SWAP3 MSTORE SWAP2 DUP2 ADD SLOAD PUSH1 0xF DUP2 SWAP1 SIGNEXTEND SWAP3 DUP5 ADD SWAP3 SWAP1 SWAP3 MSTORE PUSH1 0x1 PUSH1 0x80 SHL SWAP1 SWAP2 DIV PUSH1 0xFF AND PUSH1 0x60 DUP4 ADD MSTORE PUSH1 0x3 DUP2 ADD DUP1 SLOAD PUSH1 0x80 DUP5 ADD SWAP2 SWAP1 PUSH2 0xBC0 SWAP1 PUSH2 0x1EA9 JUMP JUMPDEST DUP1 PUSH1 0x1F ADD PUSH1 0x20 DUP1 SWAP2 DIV MUL PUSH1 0x20 ADD PUSH1 0x40 MLOAD SWAP1 DUP2 ADD PUSH1 0x40 MSTORE DUP1 SWAP3 SWAP2 SWAP1 DUP2 DUP2 MSTORE PUSH1 0x20 ADD DUP3 DUP1 SLOAD PUSH2 0xBEC SWAP1 PUSH2 0x1EA9 JUMP JUMPDEST DUP1 ISZERO PUSH2 0xC37 JUMPI DUP1 PUSH1 0x1F LT PUSH2 0xC0E JUMPI PUSH2 0x100 DUP1 DUP4 SLOAD DIV MUL DUP4 MSTORE SWAP2 PUSH1 0x20 ADD SWAP2 PUSH2 0xC37 JUMP JUMPDEST DUP3 ADD SWAP2 SWAP1 PUSH0 MSTORE PUSH1 0x20 PUSH0 KECCAK256 SWAP1 JUMPDEST DUP2 SLOAD DUP2 MSTORE SWAP1 PUSH1 0x1 ADD SWAP1 PUSH1 0x20 ADD DUP1 DUP4 GT PUSH2 0xC1A JUMPI DUP3 SWAP1 SUB PUSH1 0x1F AND DUP3 ADD SWAP2 JUMPDEST POP POP POP POP POP DUP2 MSTORE PUSH1 0x20 ADD PUSH1 0x4 DUP3 ADD DUP1 SLOAD PUSH2 0xC50 SWAP1 PUSH2 0x1EA9 JUMP JUMPDEST DUP1 PUSH1 0x1F ADD PUSH1 0x20 DUP1 SWAP2 DIV MUL PUSH1 0x20 ADD PUSH1 0x40 MLOAD SWAP1 DUP2 ADD PUSH1 0x40 MSTORE DUP1 SWAP3 SWAP2 SWAP1 DUP2 DUP2 MSTORE PUSH1 0x20 ADD DUP3 DUP1 SLOAD PUSH2 0xC7C SWAP1 PUSH2 0x1EA9 JUMP JUMPDEST DUP1 ISZERO PUSH2 0xCC7 JUMPI DUP1 PUSH1 0x1F LT PUSH2 0xC9E JUMPI PUSH2 0x100 DUP1 DUP4 SLOAD DIV MUL DUP4 MSTORE SWAP2 PUSH1 0x20 ADD SWAP2 PUSH2 0xCC7 JUMP JUMPDEST DUP3 ADD SWAP2 SWAP1 PUSH0 MSTORE PUSH1 0x20 PUSH0 KECCAK256 SWAP1 JUMPDEST DUP2 SLOAD DUP2 MSTORE SWAP1 PUSH1 0x1 ADD SWAP1 PUSH1 0x20 ADD DUP1 DUP4 GT PUSH2 0xCAA JUMPI DUP3 SWAP1 SUB PUSH1 0x1F AND DUP3 ADD SWAP2 JUMPDEST POP POP POP POP POP DUP2 MSTORE PUSH1 0x20 ADD PUSH1 0x5 DUP3 ADD DUP1 SLOAD PUSH2 0xCE0 SWAP1 PUSH2 0x1EA9 JUMP JUMPDEST DUP1 PUSH1 0x1F ADD PUSH1 0x20 DUP1 SWAP2 DIV MUL PUSH1 0x20 ADD PUSH1 0x40 MLOAD SWAP1 DUP2 ADD PUSH1 0x40 MSTORE DUP1 SWAP3 SWAP2 SWAP1 DUP2 DUP2 MSTORE PUSH1 0x20 ADD DUP3 DUP1 SLOAD PUSH2 0xD0C SWAP1 PUSH2 0x1EA9 JUMP JUMPDEST DUP1 ISZERO PUSH2 0xD57 JUMPI DUP1 PUSH1 0x1F LT PUSH2 0xD2E JUMPI PUSH2 0x100 DUP1 DUP4 SLOAD DIV MUL DUP4 MSTORE SWAP2 PUSH1 0x20 ADD SWAP2 PUSH2 0xD57 JUMP JUMPDEST DUP3 ADD SWAP2 SWAP1 PUSH0 MSTORE PUSH1 0x20 PUSH0 KECCAK256 SWAP1 JUMPDEST DUP2 SLOAD DUP2 MSTORE SWAP1 PUSH1 0x1 ADD SWAP1 PUSH1 0x20 ADD DUP1 DUP4 GT PUSH2 0xD3A JUMPI DUP3 SWAP1 SUB PUSH1 0x1F AND DUP3 ADD SWAP2 JUMPDEST POP POP POP POP POP DUP2 MSTORE PUSH1 0x20 ADD PUSH1 0x6 DUP3 ADD SLOAD DUP2 MSTORE PUSH1 0x20 ADD PUSH1 0x7 DUP3 ADD SLOAD DUP2 MSTORE POP POP SWAP1 POP SWAP3 SWAP2 POP POP JUMP JUMPDEST PUSH2 0xD84 PUSH2 0x18E1 JUMP JUMPDEST PUSH2 0xD8D PUSH0 PUSH2 0x190D JUMP JUMPDEST JUMP JUMPDEST PUSH2 0xD97 PUSH2 0x18E1 JUMP JUMPDEST PUSH1 0x1 PUSH1 0x1 PUSH1 0xA0 SHL SUB DUP2 AND PUSH0 DUP2 DUP2 MSTORE PUSH1 0x1 PUSH1 0x20 MSTORE PUSH1 0x40 DUP1 DUP3 KECCAK256 DUP1 SLOAD PUSH1 0xFF NOT AND SWAP1 SSTORE MLOAD PUSH32 0x4CC417C2E89B3F7B0A176DF6D4DAE110F50794A0228922B8B4E12EBFF4060708 SWAP2 SWAP1 LOG2 POP JUMP JUMPDEST PUSH1 0x40 MLOAD PUSH4 0x31A9108F PUSH1 0xE1 SHL DUP2 MSTORE PUSH1 0x4 DUP2 ADD DUP8 SWAP1 MSTORE PUSH0 SWAP1 PUSH1 0x1 PUSH1 0x1 PUSH1 0xA0 SHL SUB PUSH32 0x0 AND SWAP1 PUSH4 0x6352211E SWAP1 PUSH1 0x24 ADD PUSH1 0x20 PUSH1 0x40 MLOAD DUP1 DUP4 SUB DUP2 DUP7 GAS STATICCALL ISZERO DUP1 ISZERO PUSH2 0xE44 JUMPI RETURNDATASIZE PUSH0 PUSH0 RETURNDATACOPY RETURNDATASIZE PUSH0 REVERT JUMPDEST POP POP POP POP PUSH1 0x40 MLOAD RETURNDATASIZE PUSH1 0x1F NOT PUSH1 0x1F DUP3 ADD AND DUP3 ADD DUP1 PUSH1 0x40 MSTORE POP DUP2 ADD SWAP1 PUSH2 0xE68 SWAP2 SWAP1 PUSH2 0x1F21 JUMP JUMPDEST PUSH1 0x1 PUSH1 0x1 PUSH1 0xA0 SHL SUB AND SUB PUSH2 0xEBA JUMPI PUSH1 0x40 MLOAD PUSH3 0x461BCD PUSH1 0xE5 SHL DUP2 MSTORE PUSH1 0x20 PUSH1 0x4 DUP3 ADD MSTORE PUSH1 0x14 PUSH1 0x24 DUP3 ADD MSTORE PUSH20 0x1059D95B9D081B9BDD081C9959DA5CDD195C9959 PUSH1 0x62 SHL PUSH1 0x44 DUP3 ADD MSTORE PUSH1 0x64 ADD JUMPDEST PUSH1 0x40 MLOAD DUP1 SWAP2 SUB SWAP1 REVERT JUMPDEST PUSH1 0x12 DUP5 PUSH1 0xFF AND GT ISZERO PUSH2 0xF01 JUMPI PUSH1 0x40 MLOAD PUSH3 0x461BCD PUSH1 0xE5 SHL DUP2 MSTORE PUSH1 0x20 PUSH1 0x4 DUP3 ADD MSTORE PUSH1 0x10 PUSH1 0x24 DUP3 ADD MSTORE PUSH16 0x496E76616C696420646563696D616C73 PUSH1 0x80 SHL PUSH1 0x44 DUP3 ADD MSTORE PUSH1 0x64 ADD PUSH2 0xEB1 JUMP JUMPDEST CALLER PUSH0 SWAP1 DUP2 MSTORE PUSH1 0x1 PUSH1 0x20 MSTORE PUSH1 0x40 SWAP1 KECCAK256 SLOAD PUSH1 0xFF AND PUSH2 0xFE8 JUMPI PUSH1 0x40 MLOAD PUSH4 0x6CAF395F PUSH1 0xE1 SHL DUP2 MSTORE CALLER PUSH1 0x4 DUP3 ADD MSTORE PUSH1 0x24 DUP2 ADD DUP8 SWAP1 MSTORE PUSH32 0x0 PUSH1 0x1 PUSH1 0x1 PUSH1 0xA0 SHL SUB AND SWAP1 PUSH4 0xD95E72BE SWAP1 PUSH1 0x44 ADD PUSH1 0x20 PUSH1 0x40 MLOAD DUP1 DUP4 SUB DUP2 DUP7 GAS STATICCALL ISZERO DUP1 ISZERO PUSH2 0xF80 JUMPI RETURNDATASIZE PUSH0 PUSH0 RETURNDATACOPY RETURNDATASIZE PUSH0 REVERT JUMPDEST POP POP POP POP PUSH1 0x40 MLOAD RETURNDATASIZE PUSH1 0x1F NOT PUSH1 0x1F DUP3 ADD AND DUP3 ADD DUP1 PUSH1 0x40 MSTORE POP DUP2 ADD SWAP1 PUSH2 0xFA4 SWAP2 SWAP1 PUSH2 0x1F3C JUMP JUMPDEST ISZERO PUSH2 0xFE8 JUMPI PUSH1 0x40 MLOAD PUSH3 0x461BCD PUSH1 0xE5 SHL DUP2 MSTORE PUSH1 0x20 PUSH1 0x4 DUP3 ADD MSTORE PUSH1 0x14 PUSH1 0x24 DUP3 ADD MSTORE PUSH20 0x43616E6E6F742073656C662D666565646261636B PUSH1 0x60 SHL PUSH1 0x44 DUP3 ADD MSTORE PUSH1 0x64 ADD PUSH2 0xEB1 JUMP JUMPDEST PUSH0 DUP7 DUP2 MSTORE PUSH1 0x2 PUSH1 0x20 SWAP1 DUP2 MSTORE PUSH1 0x40 DUP1 DUP4 KECCAK256 CALLER DUP5 MSTORE SWAP1 SWAP2 MSTORE DUP2 KECCAK256 PUSH1 0x6 ADD SLOAD SWAP1 SUB PUSH2 0x1038 JUMPI PUSH0 DUP7 DUP2 MSTORE PUSH1 0x4 PUSH1 0x20 SWAP1 DUP2 MSTORE PUSH1 0x40 DUP3 KECCAK256 DUP1 SLOAD PUSH1 0x1 DUP2 ADD DUP3 SSTORE SWAP1 DUP4 MSTORE SWAP2 KECCAK256 ADD DUP1 SLOAD PUSH1 0x1 PUSH1 0x1 PUSH1 0xA0 SHL SUB NOT AND CALLER OR SWAP1 SSTORE JUMPDEST PUSH1 0x40 DUP1 MLOAD PUSH2 0x120 DUP2 ADD DUP3 MSTORE DUP8 DUP2 MSTORE CALLER PUSH1 0x20 DUP1 DUP4 ADD DUP3 DUP2 MSTORE PUSH1 0xF DUP11 SWAP1 SIGNEXTEND DUP5 DUP7 ADD SWAP1 DUP2 MSTORE PUSH1 0xFF DUP1 DUP12 AND PUSH1 0x60 DUP8 ADD SWAP1 DUP2 MSTORE PUSH1 0x80 DUP8 ADD DUP12 DUP2 MSTORE PUSH1 0xA0 DUP9 ADD DUP12 SWAP1 MSTORE PUSH1 0xC0 DUP9 ADD DUP11 SWAP1 MSTORE TIMESTAMP PUSH1 0xE0 DUP10 ADD MSTORE PUSH0 PUSH2 0x100 DUP10 ADD DUP2 SWAP1 MSTORE DUP16 DUP2 MSTORE PUSH1 0x2 DUP1 DUP9 MSTORE DUP11 DUP3 KECCAK256 SWAP9 DUP3 MSTORE SWAP8 SWAP1 SWAP7 MSTORE SWAP8 SWAP1 SWAP5 KECCAK256 DUP7 MLOAD DUP2 SSTORE SWAP3 MLOAD PUSH1 0x1 DUP5 ADD DUP1 SLOAD PUSH1 0x1 PUSH1 0x1 PUSH1 0xA0 SHL SUB SWAP3 SWAP1 SWAP3 AND PUSH1 0x1 PUSH1 0x1 PUSH1 0xA0 SHL SUB NOT SWAP1 SWAP3 AND SWAP2 SWAP1 SWAP2 OR SWAP1 SSTORE SWAP1 MLOAD SWAP4 DUP3 ADD DUP1 SLOAD SWAP4 MLOAD SWAP1 SWAP2 AND PUSH1 0x1 PUSH1 0x80 SHL MUL PUSH17 0xFFFFFFFFFFFFFFFFFFFFFFFFFFFFFFFFFF NOT SWAP1 SWAP4 AND PUSH16 0xFFFFFFFFFFFFFFFFFFFFFFFFFFFFFFFF SWAP1 SWAP5 AND SWAP4 SWAP1 SWAP4 OR SWAP2 SWAP1 SWAP2 OR SWAP1 SWAP2 SSTORE SWAP2 MLOAD SWAP1 SWAP2 SWAP1 PUSH1 0x3 DUP3 ADD SWAP1 PUSH2 0x1125 SWAP1 DUP3 PUSH2 0x1FA7 JUMP JUMPDEST POP PUSH1 0xA0 DUP3 ADD MLOAD PUSH1 0x4 DUP3 ADD SWAP1 PUSH2 0x113A SWAP1 DUP3 PUSH2 0x1FA7 JUMP JUMPDEST POP PUSH1 0xC0 DUP3 ADD MLOAD PUSH1 0x5 DUP3 ADD SWAP1 PUSH2 0x114F SWAP1 DUP3 PUSH2 0x1FA7 JUMP JUMPDEST POP PUSH1 0xE0 DUP3 ADD MLOAD DUP2 PUSH1 0x6 ADD SSTORE PUSH2 0x100 DUP3 ADD MLOAD DUP2 PUSH1 0x7 ADD SSTORE SWAP1 POP POP CALLER PUSH1 0x1 PUSH1 0x1 PUSH1 0xA0 SHL SUB AND DUP7 PUSH32 0x391398316E58F0637D3E1CF9BBCB422776CD105795E9A2A20ED7C9E004979DF3 DUP8 DUP8 DUP8 DUP8 DUP8 PUSH1 0x40 MLOAD PUSH2 0x11AA SWAP6 SWAP5 SWAP4 SWAP3 SWAP2 SWAP1 PUSH2 0x2062 JUMP JUMPDEST PUSH1 0x40 MLOAD DUP1 SWAP2 SUB SWAP1 LOG3 POP POP POP POP POP POP JUMP JUMPDEST PUSH0 DUP4 DUP2 MSTORE PUSH1 0x2 PUSH1 0x20 SWAP1 DUP2 MSTORE PUSH1 0x40 DUP1 DUP4 KECCAK256 PUSH1 0x1 PUSH1 0x1 PUSH1 0xA0 SHL SUB DUP7 AND DUP5 MSTORE SWAP1 SWAP2 MSTORE SWAP1 KECCAK256 PUSH1 0x6 ADD SLOAD PUSH2 0x1219 JUMPI PUSH1 0x40 MLOAD PUSH3 0x461BCD PUSH1 0xE5 SHL DUP2 MSTORE PUSH1 0x20 PUSH1 0x4 DUP3 ADD MSTORE PUSH1 0xB PUSH1 0x24 DUP3 ADD MSTORE PUSH11 0x4E6F20666565646261636B PUSH1 0xA8 SHL PUSH1 0x44 DUP3 ADD MSTORE PUSH1 0x64 ADD PUSH2 0xEB1 JUMP JUMPDEST PUSH1 0x40 MLOAD PUSH4 0x6CAF395F PUSH1 0xE1 SHL DUP2 MSTORE CALLER PUSH1 0x4 DUP3 ADD MSTORE PUSH1 0x24 DUP2 ADD DUP5 SWAP1 MSTORE PUSH32 0x0 PUSH1 0x1 PUSH1 0x1 PUSH1 0xA0 SHL SUB AND SWAP1 PUSH4 0xD95E72BE SWAP1 PUSH1 0x44 ADD PUSH1 0x20 PUSH1 0x40 MLOAD DUP1 DUP4 SUB DUP2 DUP7 GAS STATICCALL ISZERO DUP1 ISZERO PUSH2 0x1282 JUMPI RETURNDATASIZE PUSH0 PUSH0 RETURNDATACOPY RETURNDATASIZE PUSH0 REVERT JUMPDEST POP POP POP POP PUSH1 0x40 MLOAD RETURNDATASIZE PUSH1 0x1F NOT PUSH1 0x1F DUP3 ADD AND DUP3 ADD DUP1 PUSH1 0x40 MSTORE POP DUP2 ADD SWAP1 PUSH2 0x12A6 SWAP2 SWAP1 PUSH2 0x1F3C JUMP JUMPDEST PUSH2 0x12E3 JUMPI PUSH1 0x40 MLOAD PUSH3 0x461BCD PUSH1 0xE5 SHL DUP2 MSTORE PUSH1 0x20 PUSH1 0x4 DUP3 ADD MSTORE PUSH1 0xE PUSH1 0x24 DUP3 ADD MSTORE PUSH14 0x139BDD08185D5D1A1BDC9A5E9959 PUSH1 0x92 SHL PUSH1 0x44 DUP3 ADD MSTORE PUSH1 0x64 ADD PUSH2 0xEB1 JUMP JUMPDEST PUSH0 DUP4 DUP4 PUSH1 0x40 MLOAD PUSH1 0x20 ADD PUSH2 0x1312 SWAP3 SWAP2 SWAP1 SWAP2 DUP3 MSTORE PUSH1 0x60 SHL PUSH12 0xFFFFFFFFFFFFFFFFFFFFFFFF NOT AND PUSH1 0x20 DUP3 ADD MSTORE PUSH1 0x34 ADD SWAP1 JUMP JUMPDEST PUSH1 0x40 DUP1 MLOAD DUP1 DUP4 SUB PUSH1 0x1F NOT ADD DUP2 MSTORE DUP3 DUP3 MSTORE DUP1 MLOAD PUSH1 0x20 SWAP2 DUP3 ADD KECCAK256 PUSH0 DUP2 DUP2 MSTORE PUSH1 0x3 DUP1 DUP5 MSTORE DUP5 DUP3 KECCAK256 PUSH1 0x60 DUP8 ADD DUP7 MSTORE CALLER DUP8 MSTORE DUP5 DUP8 ADD DUP10 DUP2 MSTORE TIMESTAMP SWAP7 DUP9 ADD SWAP7 SWAP1 SWAP7 MSTORE DUP1 SLOAD PUSH1 0x1 DUP1 DUP3 ADD DUP4 SSTORE SWAP2 DUP5 MSTORE SWAP5 SWAP1 SWAP3 KECCAK256 DUP7 MLOAD SWAP5 SWAP1 SWAP2 MUL ADD DUP1 SLOAD PUSH1 0x1 PUSH1 0x1 PUSH1 0xA0 SHL SUB NOT AND PUSH1 0x1 PUSH1 0x1 PUSH1 0xA0 SHL SUB SWAP1 SWAP5 AND SWAP4 SWAP1 SWAP4 OR DUP4 SSTORE SWAP3 MLOAD SWAP1 SWAP5 POP SWAP1 SWAP2 DUP3 ADD SWAP1 PUSH2 0x1395 SWAP1 DUP3 PUSH2 0x1FA7 JUMP JUMPDEST POP PUSH1 0x40 SWAP2 DUP3 ADD MLOAD PUSH1 0x2 SWAP2 DUP3 ADD SSTORE PUSH0 DUP7 DUP2 MSTORE PUSH1 0x20 SWAP2 DUP3 MSTORE DUP3 DUP2 KECCAK256 PUSH1 0x1 PUSH1 0x1 PUSH1 0xA0 SHL SUB DUP8 AND DUP3 MSTORE SWAP1 SWAP2 MSTORE SWAP1 DUP2 KECCAK256 PUSH1 0x7 ADD DUP1 SLOAD SWAP2 PUSH2 0x13CF DUP4 PUSH2 0x1F09 JUMP JUMPDEST SWAP2 SWAP1 POP SSTORE POP CALLER PUSH1 0x1 PUSH1 0x1 PUSH1 0xA0 SHL SUB AND DUP4 PUSH1 0x1 PUSH1 0x1 PUSH1 0xA0 SHL SUB AND DUP6 PUSH32 0x962E4269E46D6AC143CFBFF1707071BED9723700910E6EFCE548CEC3C8FE8030 DUP6 PUSH1 0x40 MLOAD PUSH2 0x1418 SWAP2 SWAP1 PUSH2 0x19FE JUMP JUMPDEST PUSH1 0x40 MLOAD DUP1 SWAP2 SUB SWAP1 LOG4 POP POP POP POP JUMP JUMPDEST PUSH0 PUSH0 PUSH0 PUSH0 PUSH0 PUSH1 0x4 PUSH0 DUP8 DUP2 MSTORE PUSH1 0x20 ADD SWAP1 DUP2 MSTORE PUSH1 0x20 ADD PUSH0 KECCAK256 DUP1 SLOAD DUP1 PUSH1 0x20 MUL PUSH1 0x20 ADD PUSH1 0x40 MLOAD SWAP1 DUP2 ADD PUSH1 0x40 MSTORE DUP1 SWAP3 SWAP2 SWAP1 DUP2 DUP2 MSTORE PUSH1 0x20 ADD DUP3 DUP1 SLOAD DUP1 ISZERO PUSH2 0x148E JUMPI PUSH1 0x20 MUL DUP3 ADD SWAP2 SWAP1 PUSH0 MSTORE PUSH1 0x20 PUSH0 KECCAK256 SWAP1 JUMPDEST DUP2 SLOAD PUSH1 0x1 PUSH1 0x1 PUSH1 0xA0 SHL SUB AND DUP2 MSTORE PUSH1 0x1 SWAP1 SWAP2 ADD SWAP1 PUSH1 0x20 ADD DUP1 DUP4 GT PUSH2 0x1470 JUMPI JUMPDEST POP POP POP POP POP SWAP1 POP DUP1 MLOAD SWAP5 POP DUP5 PUSH0 SUB PUSH2 0x14B2 JUMPI PUSH0 PUSH0 PUSH0 PUSH0 SWAP5 POP SWAP5 POP SWAP5 POP SWAP5 POP POP PUSH2 0x17FF JUMP JUMPDEST PUSH0 SWAP4 POP PUSH2 0x14BD PUSH2 0x19B1 JUMP JUMPDEST PUSH0 JUMPDEST DUP7 DUP2 LT ISZERO PUSH2 0x178C JUMPI PUSH0 DUP9 DUP2 MSTORE PUSH1 0x2 PUSH1 0x20 MSTORE PUSH1 0x40 DUP2 KECCAK256 DUP5 MLOAD DUP3 SWAP1 DUP7 SWAP1 DUP6 SWAP1 DUP2 LT PUSH2 0x14EA JUMPI PUSH2 0x14EA PUSH2 0x1EE1 JUMP JUMPDEST PUSH1 0x20 SWAP1 DUP2 MUL SWAP2 SWAP1 SWAP2 ADD DUP2 ADD MLOAD PUSH1 0x1 PUSH1 0x1 PUSH1 0xA0 SHL SUB SWAP1 DUP2 AND DUP4 MSTORE DUP3 DUP3 ADD SWAP4 SWAP1 SWAP4 MSTORE PUSH1 0x40 SWAP2 DUP3 ADD PUSH0 KECCAK256 DUP3 MLOAD PUSH2 0x120 DUP2 ADD DUP5 MSTORE DUP2 SLOAD DUP2 MSTORE PUSH1 0x1 DUP3 ADD SLOAD SWAP1 SWAP5 AND SWAP2 DUP5 ADD SWAP2 SWAP1 SWAP2 MSTORE PUSH1 0x2 DUP2 ADD SLOAD PUSH1 0xF DUP2 SWAP1 SIGNEXTEND SWAP3 DUP5 ADD SWAP3 SWAP1 SWAP3 MSTORE PUSH1 0x1 PUSH1 0x80 SHL SWAP1 SWAP2 DIV PUSH1 0xFF AND PUSH1 0x60 DUP4 ADD MSTORE PUSH1 0x3 DUP2 ADD DUP1 SLOAD PUSH1 0x80 DUP5 ADD SWAP2 SWAP1 PUSH2 0x1563 SWAP1 PUSH2 0x1EA9 JUMP JUMPDEST DUP1 PUSH1 0x1F ADD PUSH1 0x20 DUP1 SWAP2 DIV MUL PUSH1 0x20 ADD PUSH1 0x40 MLOAD SWAP1 DUP2 ADD PUSH1 0x40 MSTORE DUP1 SWAP3 SWAP2 SWAP1 DUP2 DUP2 MSTORE PUSH1 0x20 ADD DUP3 DUP1 SLOAD PUSH2 0x158F SWAP1 PUSH2 0x1EA9 JUMP JUMPDEST DUP1 ISZERO PUSH2 0x15DA JUMPI DUP1 PUSH1 0x1F LT PUSH2 0x15B1 JUMPI PUSH2 0x100 DUP1 DUP4 SLOAD DIV MUL DUP4 MSTORE SWAP2 PUSH1 0x20 ADD SWAP2 PUSH2 0x15DA JUMP JUMPDEST DUP3 ADD SWAP2 SWAP1 PUSH0 MSTORE PUSH1 0x20 PUSH0 KECCAK256 SWAP1 JUMPDEST DUP2 SLOAD DUP2 MSTORE SWAP1 PUSH1 0x1 ADD SWAP1 PUSH1 0x20 ADD DUP1 DUP4 GT PUSH2 0x15BD JUMPI DUP3 SWAP1 SUB PUSH1 0x1F AND DUP3 ADD SWAP2 JUMPDEST POP POP POP POP POP DUP2 MSTORE PUSH1 0x20 ADD PUSH1 0x4 DUP3 ADD DUP1 SLOAD PUSH2 0x15F3 SWAP1 PUSH2 0x1EA9 JUMP JUMPDEST DUP1 PUSH1 0x1F ADD PUSH1 0x20 DUP1 SWAP2 DIV MUL PUSH1 0x20 ADD PUSH1 0x40 MLOAD SWAP1 DUP2 ADD PUSH1 0x40 MSTORE DUP1 SWAP3 SWAP2 SWAP1 DUP2 DUP2 MSTORE PUSH1 0x20 ADD DUP3 DUP1 SLOAD PUSH2 0x161F SWAP1 PUSH2 0x1EA9 JUMP JUMPDEST DUP1 ISZERO PUSH2 0x166A JUMPI DUP1 PUSH1 0x1F LT PUSH2 0x1641 JUMPI PUSH2 0x100 DUP1 DUP4 SLOAD DIV MUL DUP4 MSTORE SWAP2 PUSH1 0x20 ADD SWAP2 PUSH2 0x166A JUMP JUMPDEST DUP3 ADD SWAP2 SWAP1 PUSH0 MSTORE PUSH1 0x20 PUSH0 KECCAK256 SWAP1 JUMPDEST DUP2 SLOAD DUP2 MSTORE SWAP1 PUSH1 0x1 ADD SWAP1 PUSH1 0x20 ADD DUP1 DUP4 GT PUSH2 0x164D JUMPI DUP3 SWAP1 SUB PUSH1 0x1F AND DUP3 ADD SWAP2 JUMPDEST POP POP POP POP POP DUP2 MSTORE PUSH1 0x20 ADD PUSH1 0x5 DUP3 ADD DUP1 SLOAD PUSH2 0x1683 SWAP1 PUSH2 0x1EA9 JUMP JUMPDEST DUP1 PUSH1 0x1F ADD PUSH1 0x20 DUP1 SWAP2 DIV MUL PUSH1 0x20 ADD PUSH1 0x40 MLOAD SWAP1 DUP2 ADD PUSH1 0x40 MSTORE DUP1 SWAP3 SWAP2 SWAP1 DUP2 DUP2 MSTORE PUSH1 0x20 ADD DUP3 DUP1 SLOAD PUSH2 0x16AF SWAP1 PUSH2 0x1EA9 JUMP JUMPDEST DUP1 ISZERO PUSH2 0x16FA JUMPI DUP1 PUSH1 0x1F LT PUSH2 0x16D1 JUMPI PUSH2 0x100 DUP1 DUP4 SLOAD DIV MUL DUP4 MSTORE SWAP2 PUSH1 0x20 ADD SWAP2 PUSH2 0x16FA JUMP JUMPDEST DUP3 ADD SWAP2 SWAP1 PUSH0 MSTORE PUSH1 0x20 PUSH0 KECCAK256 SWAP1 JUMPDEST DUP2 SLOAD DUP2 MSTORE SWAP1 PUSH1 0x1 ADD SWAP1 PUSH1 0x20 ADD DUP1 DUP4 GT PUSH2 0x16DD JUMPI DUP3 SWAP1 SUB PUSH1 0x1F AND DUP3 ADD SWAP2 JUMPDEST POP POP POP POP POP DUP2 MSTORE PUSH1 0x20 ADD PUSH1 0x6 DUP3 ADD SLOAD DUP2 MSTORE PUSH1 0x20 ADD PUSH1 0x7 DUP3 ADD SLOAD DUP2 MSTORE POP POP SWAP1 POP DUP3 DUP2 PUSH1 0x60 ADD MLOAD PUSH1 0xFF AND PUSH1 0x13 DUP2 LT PUSH2 0x1732 JUMPI PUSH2 0x1732 PUSH2 0x1EE1 JUMP JUMPDEST PUSH1 0x20 MUL ADD DUP1 MLOAD SWAP1 PUSH2 0x1742 DUP3 PUSH2 0x1F09 JUMP JUMPDEST SWAP1 MSTORE POP PUSH1 0x60 DUP2 ADD MLOAD PUSH0 SWAP1 PUSH2 0x1757 SWAP1 PUSH1 0x12 PUSH2 0x20B8 JUMP JUMPDEST PUSH2 0x1762 SWAP1 PUSH1 0xA PUSH2 0x21B4 JUMP JUMPDEST DUP3 PUSH1 0x40 ADD MLOAD PUSH1 0xF SIGNEXTEND PUSH2 0x1774 SWAP2 SWAP1 PUSH2 0x21C2 JUMP JUMPDEST SWAP1 POP PUSH2 0x1780 DUP2 DUP10 PUSH2 0x21F1 JUMP JUMPDEST SWAP8 POP POP POP PUSH1 0x1 ADD PUSH2 0x14BF JUMP JUMPDEST POP PUSH0 DUP1 JUMPDEST PUSH1 0x12 DUP2 PUSH1 0xFF AND GT PUSH2 0x17EE JUMPI DUP2 DUP4 DUP3 PUSH1 0xFF AND PUSH1 0x13 DUP2 LT PUSH2 0x17B1 JUMPI PUSH2 0x17B1 PUSH2 0x1EE1 JUMP JUMPDEST PUSH1 0x20 MUL ADD MLOAD GT ISZERO PUSH2 0x17DC JUMPI DUP3 DUP2 PUSH1 0xFF AND PUSH1 0x13 DUP2 LT PUSH2 0x17D1 JUMPI PUSH2 0x17D1 PUSH2 0x1EE1 JUMP JUMPDEST PUSH1 0x20 MUL ADD MLOAD SWAP2 POP DUP1 SWAP5 POP JUMPDEST DUP1 PUSH2 0x17E6 DUP2 PUSH2 0x2218 JUMP JUMPDEST SWAP2 POP POP PUSH2 0x1790 JUMP JUMPDEST POP PUSH2 0x17F9 DUP8 DUP8 PUSH2 0x2236 JUMP JUMPDEST SWAP5 POP POP POP POP JUMPDEST SWAP2 SWAP4 POP SWAP2 SWAP4 JUMP JUMPDEST PUSH2 0x180E PUSH2 0x18E1 JUMP JUMPDEST PUSH1 0x1 PUSH1 0x1 PUSH1 0xA0 SHL SUB DUP2 AND PUSH2 0x1856 JUMPI PUSH1 0x40 MLOAD PUSH3 0x461BCD PUSH1 0xE5 SHL DUP2 MSTORE PUSH1 0x20 PUSH1 0x4 DUP3 ADD MSTORE PUSH1 0xF PUSH1 0x24 DUP3 ADD MSTORE PUSH15 0x496E76616C69642061646472657373 PUSH1 0x88 SHL PUSH1 0x44 DUP3 ADD MSTORE PUSH1 0x64 ADD PUSH2 0xEB1 JUMP JUMPDEST PUSH1 0x1 PUSH1 0x1 PUSH1 0xA0 SHL SUB DUP2 AND PUSH0 DUP2 DUP2 MSTORE PUSH1 0x1 PUSH1 0x20 DUP2 SWAP1 MSTORE PUSH1 0x40 DUP1 DUP4 KECCAK256 DUP1 SLOAD PUSH1 0xFF NOT AND SWAP1 SWAP3 OR SWAP1 SWAP2 SSTORE MLOAD PUSH32 0x23A6B6472D6552349324292635248D241B1645FAD970A38958643651EDAAF08A SWAP2 SWAP1 LOG2 POP JUMP JUMPDEST PUSH2 0x18AC PUSH2 0x18E1 JUMP JUMPDEST PUSH1 0x1 PUSH1 0x1 PUSH1 0xA0 SHL SUB DUP2 AND PUSH2 0x18D5 JUMPI PUSH1 0x40 MLOAD PUSH4 0x1E4FBDF7 PUSH1 0xE0 SHL DUP2 MSTORE PUSH0 PUSH1 0x4 DUP3 ADD MSTORE PUSH1 0x24 ADD PUSH2 0xEB1 JUMP JUMPDEST PUSH2 0x18DE DUP2 PUSH2 0x190D JUMP JUMPDEST POP JUMP JUMPDEST PUSH0 SLOAD PUSH1 0x1 PUSH1 0x1 PUSH1 0xA0 SHL SUB AND CALLER EQ PUSH2 0xD8D JUMPI PUSH1 0x40 MLOAD PUSH4 0x118CDAA7 PUSH1 0xE0 SHL DUP2 MSTORE CALLER PUSH1 0x4 DUP3 ADD MSTORE PUSH1 0x24 ADD PUSH2 0xEB1 JUMP JUMPDEST PUSH0 DUP1 SLOAD PUSH1 0x1 PUSH1 0x1 PUSH1 0xA0 SHL SUB DUP4 DUP2 AND PUSH1 0x1 PUSH1 0x1 PUSH1 0xA0 SHL SUB NOT DUP4 AND DUP2 OR DUP5 SSTORE PUSH1 0x40 MLOAD SWAP2 SWAP1 SWAP3 AND SWAP3 DUP4 SWAP2 PUSH32 0x8BE0079C531659141344CD1FD0A4F28419497F9722A3DAAFE3B4186F6B6457E0 SWAP2 SWAP1 LOG3 POP POP JUMP JUMPDEST PUSH1 0x40 MLOAD DUP1 PUSH2 0x120 ADD PUSH1 0x40 MSTORE DUP1 PUSH0 DUP2 MSTORE PUSH1 0x20 ADD PUSH0 PUSH1 0x1 PUSH1 0x1 PUSH1 0xA0 SHL SUB AND DUP2 MSTORE PUSH1 0x20 ADD PUSH0 PUSH1 0xF SIGNEXTEND DUP2 MSTORE PUSH1 0x20 ADD PUSH0 PUSH1 0xFF AND DUP2 MSTORE PUSH1 0x20 ADD PUSH1 0x60 DUP2 MSTORE PUSH1 0x20 ADD PUSH1 0x60 DUP2 MSTORE PUSH1 0x20 ADD PUSH1 0x60 DUP2 MSTORE PUSH1 0x20 ADD PUSH0 DUP2 MSTORE PUSH1 0x20 ADD PUSH0 DUP2 MSTORE POP SWAP1 JUMP JUMPDEST PUSH1 0x40 MLOAD DUP1 PUSH2 0x260 ADD PUSH1 0x40 MSTORE DUP1 PUSH1 0x13 SWAP1 PUSH1 0x20 DUP3 MUL DUP1 CALLDATASIZE DUP4 CALLDATACOPY POP SWAP2 SWAP3 SWAP2 POP POP JUMP JUMPDEST PUSH0 DUP2 MLOAD DUP1 DUP5 MSTORE DUP1 PUSH1 0x20 DUP5 ADD PUSH1 0x20 DUP7 ADD MCOPY PUSH0 PUSH1 0x20 DUP3 DUP7 ADD ADD MSTORE PUSH1 0x20 PUSH1 0x1F NOT PUSH1 0x1F DUP4 ADD AND DUP6 ADD ADD SWAP2 POP POP SWAP3 SWAP2 POP POP JUMP JUMPDEST PUSH1 0x20 DUP2 MSTORE PUSH0 PUSH2 0x1A10 PUSH1 0x20 DUP4 ADD DUP5 PUSH2 0x19D0 JUMP JUMPDEST SWAP4 SWAP3 POP POP POP JUMP JUMPDEST PUSH1 0x1 PUSH1 0x1 PUSH1 0xA0 SHL SUB DUP2 AND DUP2 EQ PUSH2 0x18DE JUMPI PUSH0 PUSH0 REVERT JUMPDEST PUSH0 PUSH0 PUSH1 0x40 DUP4 DUP6 SUB SLT ISZERO PUSH2 0x1A3C JUMPI PUSH0 PUSH0 REVERT JUMPDEST DUP3 CALLDATALOAD SWAP2 POP PUSH1 0x20 DUP4 ADD CALLDATALOAD PUSH2 0x1A4E DUP2 PUSH2 0x1A17 JUMP JUMPDEST DUP1 SWAP2 POP POP SWAP3 POP SWAP3 SWAP1 POP JUMP JUMPDEST PUSH0 PUSH1 0x20 DUP3 ADD PUSH1 0x20 DUP4 MSTORE DUP1 DUP5 MLOAD DUP1 DUP4 MSTORE PUSH1 0x40 DUP6 ADD SWAP2 POP PUSH1 0x40 DUP2 PUSH1 0x5 SHL DUP7 ADD ADD SWAP3 POP PUSH1 0x20 DUP7 ADD PUSH0 JUMPDEST DUP3 DUP2 LT ISZERO PUSH2 0x1ADD JUMPI DUP7 DUP6 SUB PUSH1 0x3F NOT ADD DUP5 MSTORE DUP2 MLOAD DUP1 MLOAD PUSH1 0x1 PUSH1 0x1 PUSH1 0xA0 SHL SUB AND DUP7 MSTORE PUSH1 0x20 DUP1 DUP3 ADD MLOAD PUSH1 0x60 SWAP2 DUP9 ADD DUP3 SWAP1 MSTORE SWAP1 PUSH2 0x1ABA SWAP1 DUP9 ADD DUP3 PUSH2 0x19D0 JUMP JUMPDEST PUSH1 0x40 SWAP3 DUP4 ADD MLOAD SWAP8 SWAP1 SWAP3 ADD SWAP7 SWAP1 SWAP7 MSTORE SWAP5 POP PUSH1 0x20 SWAP4 DUP5 ADD SWAP4 SWAP2 SWAP1 SWAP2 ADD SWAP1 PUSH1 0x1 ADD PUSH2 0x1A7F JUMP JUMPDEST POP SWAP3 SWAP7 SWAP6 POP POP POP POP POP POP JUMP JUMPDEST PUSH0 PUSH1 0x20 DUP3 DUP5 SUB SLT ISZERO PUSH2 0x1AF9 JUMPI PUSH0 PUSH0 REVERT JUMPDEST DUP2 CALLDATALOAD PUSH2 0x1A10 DUP2 PUSH2 0x1A17 JUMP JUMPDEST PUSH0 PUSH1 0x20 DUP3 DUP5 SUB SLT ISZERO PUSH2 0x1B14 JUMPI PUSH0 PUSH0 REVERT JUMPDEST POP CALLDATALOAD SWAP2 SWAP1 POP JUMP JUMPDEST PUSH1 0x20 DUP1 DUP3 MSTORE DUP3 MLOAD DUP3 DUP3 ADD DUP2 SWAP1 MSTORE PUSH0 SWAP2 DUP5 ADD SWAP1 PUSH1 0x40 DUP5 ADD SWAP1 DUP4 JUMPDEST DUP2 DUP2 LT ISZERO PUSH2 0x1B5B JUMPI DUP4 MLOAD PUSH1 0x1 PUSH1 0x1 PUSH1 0xA0 SHL SUB AND DUP4 MSTORE PUSH1 0x20 SWAP4 DUP5 ADD SWAP4 SWAP1 SWAP3 ADD SWAP2 PUSH1 0x1 ADD PUSH2 0x1B34 JUMP JUMPDEST POP SWAP1 SWAP6 SWAP5 POP POP POP POP POP JUMP JUMPDEST PUSH4 0x4E487B71 PUSH1 0xE0 SHL PUSH0 MSTORE PUSH1 0x41 PUSH1 0x4 MSTORE PUSH1 0x24 PUSH0 REVERT JUMPDEST PUSH0 DUP3 PUSH1 0x1F DUP4 ADD SLT PUSH2 0x1B89 JUMPI PUSH0 PUSH0 REVERT JUMPDEST DUP2 CALLDATALOAD PUSH8 0xFFFFFFFFFFFFFFFF DUP2 GT ISZERO PUSH2 0x1BA3 JUMPI PUSH2 0x1BA3 PUSH2 0x1B66 JUMP JUMPDEST PUSH1 0x40 MLOAD PUSH1 0x1F DUP3 ADD PUSH1 0x1F NOT SWAP1 DUP2 AND PUSH1 0x3F ADD AND DUP2 ADD PUSH8 0xFFFFFFFFFFFFFFFF DUP2 GT DUP3 DUP3 LT OR ISZERO PUSH2 0x1BD2 JUMPI PUSH2 0x1BD2 PUSH2 0x1B66 JUMP JUMPDEST PUSH1 0x40 MSTORE DUP2 DUP2 MSTORE DUP4 DUP3 ADD PUSH1 0x20 ADD DUP6 LT ISZERO PUSH2 0x1BE9 JUMPI PUSH0 PUSH0 REVERT JUMPDEST DUP2 PUSH1 0x20 DUP6 ADD PUSH1 0x20 DUP4 ADD CALLDATACOPY PUSH0 SWAP2 DUP2 ADD PUSH1 0x20 ADD SWAP2 SWAP1 SWAP2 MSTORE SWAP4 SWAP3 POP POP POP JUMP JUMPDEST PUSH0 PUSH0 PUSH0 PUSH1 0x60 DUP5 DUP7 SUB SLT ISZERO PUSH2 0x1C17 JUMPI PUSH0 PUSH0 REVERT JUMPDEST DUP4 CALLDATALOAD SWAP3 POP PUSH1 0x20 DUP5 ADD CALLDATALOAD PUSH8 0xFFFFFFFFFFFFFFFF DUP2 GT ISZERO PUSH2 0x1C34 JUMPI PUSH0 PUSH0 REVERT JUMPDEST PUSH2 0x1C40 DUP7 DUP3 DUP8 ADD PUSH2 0x1B7A JUMP JUMPDEST SWAP3 POP POP PUSH1 0x40 DUP5 ADD CALLDATALOAD PUSH8 0xFFFFFFFFFFFFFFFF DUP2 GT ISZERO PUSH2 0x1C5C JUMPI PUSH0 PUSH0 REVERT JUMPDEST PUSH2 0x1C68 DUP7 DUP3 DUP8 ADD PUSH2 0x1B7A JUMP JUMPDEST SWAP2 POP POP SWAP3 POP SWAP3 POP SWAP3 JUMP JUMPDEST DUP1 MLOAD DUP3 MSTORE PUSH0 PUSH1 0x20 DUP3 ADD MLOAD PUSH2 0x1C91 PUSH1 0x20 DUP6 ADD DUP3 PUSH1 0x1 PUSH1 0x1 PUSH1 0xA0 SHL SUB AND SWAP1 MSTORE JUMP JUMPDEST POP PUSH1 0x40 DUP3 ADD MLOAD PUSH2 0x1CA6 PUSH1 0x40 DUP6 ADD DUP3 PUSH1 0xF SIGNEXTEND SWAP1 MSTORE JUMP JUMPDEST POP PUSH1 0x60 DUP3 ADD MLOAD PUSH2 0x1CBB PUSH1 0x60 DUP6 ADD DUP3 PUSH1 0xFF AND SWAP1 MSTORE JUMP JUMPDEST POP PUSH1 0x80 DUP3 ADD MLOAD PUSH2 0x120 PUSH1 0x80 DUP6 ADD MSTORE PUSH2 0x1CD7 PUSH2 0x120 DUP6 ADD DUP3 PUSH2 0x19D0 JUMP JUMPDEST SWAP1 POP PUSH1 0xA0 DUP4 ADD MLOAD DUP5 DUP3 SUB PUSH1 0xA0 DUP7 ADD MSTORE PUSH2 0x1CF0 DUP3 DUP3 PUSH2 0x19D0 JUMP JUMPDEST SWAP2 POP POP PUSH1 0xC0 DUP4 ADD MLOAD DUP5 DUP3 SUB PUSH1 0xC0 DUP7 ADD MSTORE PUSH2 0x1D0A DUP3 DUP3 PUSH2 0x19D0 JUMP JUMPDEST SWAP2 POP POP PUSH1 0xE0 DUP4 ADD MLOAD PUSH1 0xE0 DUP6 ADD MSTORE PUSH2 0x100 DUP4 ADD MLOAD PUSH2 0x100 DUP6 ADD MSTORE DUP1 SWAP2 POP POP SWAP3 SWAP2 POP POP JUMP JUMPDEST PUSH0 PUSH1 0x20 DUP3 ADD PUSH1 0x20 DUP4 MSTORE DUP1 DUP5 MLOAD DUP1 DUP4 MSTORE PUSH1 0x40 DUP6 ADD SWAP2 POP PUSH1 0x40 DUP2 PUSH1 0x5 SHL DUP7 ADD ADD SWAP3 POP PUSH1 0x20 DUP7 ADD PUSH0 JUMPDEST DUP3 DUP2 LT ISZERO PUSH2 0x1ADD JUMPI PUSH1 0x3F NOT DUP8 DUP7 SUB ADD DUP5 MSTORE PUSH2 0x1D6F DUP6 DUP4 MLOAD PUSH2 0x1C72 JUMP JUMPDEST SWAP5 POP PUSH1 0x20 SWAP4 DUP5 ADD SWAP4 SWAP2 SWAP1 SWAP2 ADD SWAP1 PUSH1 0x1 ADD PUSH2 0x1D53 JUMP JUMPDEST PUSH1 0x20 DUP2 MSTORE PUSH0 PUSH2 0x1A10 PUSH1 0x20 DUP4 ADD DUP5 PUSH2 0x1C72 JUMP JUMPDEST DUP1 CALLDATALOAD PUSH1 0xFF DUP2 AND DUP2 EQ PUSH2 0x1DA6 JUMPI PUSH0 PUSH0 REVERT JUMPDEST SWAP2 SWAP1 POP JUMP JUMPDEST PUSH0 PUSH0 PUSH0 PUSH0 PUSH0 PUSH0 PUSH1 0xC0 DUP8 DUP10 SUB SLT ISZERO PUSH2 0x1DC0 JUMPI PUSH0 PUSH0 REVERT JUMPDEST DUP7 CALLDATALOAD SWAP6 POP PUSH1 0x20 DUP8 ADD CALLDATALOAD PUSH1 0xF DUP2 SWAP1 SIGNEXTEND DUP2 EQ PUSH2 0x1DD8 JUMPI PUSH0 PUSH0 REVERT JUMPDEST SWAP5 POP PUSH2 0x1DE6 PUSH1 0x40 DUP9 ADD PUSH2 0x1D96 JUMP JUMPDEST SWAP4 POP PUSH1 0x60 DUP8 ADD CALLDATALOAD PUSH8 0xFFFFFFFFFFFFFFFF DUP2 GT ISZERO PUSH2 0x1E01 JUMPI PUSH0 PUSH0 REVERT JUMPDEST PUSH2 0x1E0D DUP10 DUP3 DUP11 ADD PUSH2 0x1B7A JUMP JUMPDEST SWAP4 POP POP PUSH1 0x80 DUP8 ADD CALLDATALOAD PUSH8 0xFFFFFFFFFFFFFFFF DUP2 GT ISZERO PUSH2 0x1E29 JUMPI PUSH0 PUSH0 REVERT JUMPDEST PUSH2 0x1E35 DUP10 DUP3 DUP11 ADD PUSH2 0x1B7A JUMP JUMPDEST SWAP3 POP POP PUSH1 0xA0 DUP8 ADD CALLDATALOAD PUSH8 0xFFFFFFFFFFFFFFFF DUP2 GT ISZERO PUSH2 0x1E51 JUMPI PUSH0 PUSH0 REVERT JUMPDEST PUSH2 0x1E5D DUP10 DUP3 DUP11 ADD PUSH2 0x1B7A JUMP JUMPDEST SWAP2 POP POP SWAP3 SWAP6 POP SWAP3 SWAP6 POP SWAP3 SWAP6 JUMP JUMPDEST PUSH0 PUSH0 PUSH0 PUSH1 0x60 DUP5 DUP7 SUB SLT ISZERO PUSH2 0x1E7C JUMPI PUSH0 PUSH0 REVERT JUMPDEST DUP4 CALLDATALOAD SWAP3 POP PUSH1 0x20 DUP5 ADD CALLDATALOAD PUSH2 0x1E8E DUP2 PUSH2 0x1A17 JUMP JUMPDEST SWAP2 POP PUSH1 0x40 DUP5 ADD CALLDATALOAD PUSH8 0xFFFFFFFFFFFFFFFF DUP2 GT ISZERO PUSH2 0x1C5C JUMPI PUSH0 PUSH0 REVERT JUMPDEST PUSH1 0x1 DUP2 DUP2 SHR SWAP1 DUP3 AND DUP1 PUSH2 0x1EBD JUMPI PUSH1 0x7F DUP3 AND SWAP2 POP JUMPDEST PUSH1 0x20 DUP3 LT DUP2 SUB PUSH2 0x1EDB JUMPI PUSH4 0x4E487B71 PUSH1 0xE0 SHL PUSH0 MSTORE PUSH1 0x22 PUSH1 0x4 MSTORE PUSH1 0x24 PUSH0 REVERT JUMPDEST POP SWAP2 SWAP1 POP JUMP JUMPDEST PUSH4 0x4E487B71 PUSH1 0xE0 SHL PUSH0 MSTORE PUSH1 0x32 PUSH1 0x4 MSTORE PUSH1 0x24 PUSH0 REVERT JUMPDEST PUSH4 0x4E487B71 PUSH1 0xE0 SHL PUSH0 MSTORE PUSH1 0x11 PUSH1 0x4 MSTORE PUSH1 0x24 PUSH0 REVERT JUMPDEST PUSH0 PUSH1 0x1 DUP3 ADD PUSH2 0x1F1A JUMPI PUSH2 0x1F1A PUSH2 0x1EF5 JUMP JUMPDEST POP PUSH1 0x1 ADD SWAP1 JUMP JUMPDEST PUSH0 PUSH1 0x20 DUP3 DUP5 SUB SLT ISZERO PUSH2 0x1F31 JUMPI PUSH0 PUSH0 REVERT JUMPDEST DUP2 MLOAD PUSH2 0x1A10 DUP2 PUSH2 0x1A17 JUMP JUMPDEST PUSH0 PUSH1 0x20 DUP3 DUP5 SUB SLT ISZERO PUSH2 0x1F4C JUMPI PUSH0 PUSH0 REVERT JUMPDEST DUP2 MLOAD DUP1 ISZERO ISZERO DUP2 EQ PUSH2 0x1A10 JUMPI PUSH0 PUSH0 REVERT JUMPDEST PUSH1 0x1F DUP3 GT ISZERO PUSH2 0x1FA2 JUMPI DUP1 PUSH0 MSTORE PUSH1 0x20 PUSH0 KECCAK256 PUSH1 0x1F DUP5 ADD PUSH1 0x5 SHR DUP2 ADD PUSH1 0x20 DUP6 LT ISZERO PUSH2 0x1F80 JUMPI POP DUP1 JUMPDEST PUSH1 0x1F DUP5 ADD PUSH1 0x5 SHR DUP3 ADD SWAP2 POP JUMPDEST DUP2 DUP2 LT ISZERO PUSH2 0x1F9F JUMPI PUSH0 DUP2 SSTORE PUSH1 0x1 ADD PUSH2 0x1F8C JUMP JUMPDEST POP POP JUMPDEST POP POP POP JUMP JUMPDEST DUP2 MLOAD PUSH8 0xFFFFFFFFFFFFFFFF DUP2 GT ISZERO PUSH2 0x1FC1 JUMPI PUSH2 0x1FC1 PUSH2 0x1B66 JUMP JUMPDEST PUSH2 0x1FD5 DUP2 PUSH2 0x1FCF DUP5 SLOAD PUSH2 0x1EA9 JUMP JUMPDEST DUP5 PUSH2 0x1F5B JUMP JUMPDEST PUSH1 0x20 PUSH1 0x1F DUP3 GT PUSH1 0x1 DUP2 EQ PUSH2 0x2007 JUMPI PUSH0 DUP4 ISZERO PUSH2 0x1FF0 JUMPI POP DUP5 DUP3 ADD MLOAD JUMPDEST PUSH0 NOT PUSH1 0x3 DUP6 SWAP1 SHL SHR NOT AND PUSH1 0x1 DUP5 SWAP1 SHL OR DUP5 SSTORE PUSH2 0x1F9F JUMP JUMPDEST PUSH0 DUP5 DUP2 MSTORE PUSH1 0x20 DUP2 KECCAK256 PUSH1 0x1F NOT DUP6 AND SWAP2 JUMPDEST DUP3 DUP2 LT ISZERO PUSH2 0x2036 JUMPI DUP8 DUP6 ADD MLOAD DUP3 SSTORE PUSH1 0x20 SWAP5 DUP6 ADD SWAP5 PUSH1 0x1 SWAP1 SWAP3 ADD SWAP2 ADD PUSH2 0x2016 JUMP JUMPDEST POP DUP5 DUP3 LT ISZERO PUSH2 0x2053 JUMPI DUP7 DUP5 ADD MLOAD PUSH0 NOT PUSH1 0x3 DUP8 SWAP1 SHL PUSH1 0xF8 AND SHR NOT AND DUP2 SSTORE JUMPDEST POP POP POP POP PUSH1 0x1 SWAP1 DUP2 SHL ADD SWAP1 SSTORE POP JUMP JUMPDEST DUP6 PUSH1 0xF SIGNEXTEND DUP2 MSTORE PUSH1 0xFF DUP6 AND PUSH1 0x20 DUP3 ADD MSTORE PUSH1 0xA0 PUSH1 0x40 DUP3 ADD MSTORE PUSH0 PUSH2 0x2086 PUSH1 0xA0 DUP4 ADD DUP7 PUSH2 0x19D0 JUMP JUMPDEST DUP3 DUP2 SUB PUSH1 0x60 DUP5 ADD MSTORE PUSH2 0x2098 DUP2 DUP7 PUSH2 0x19D0 JUMP JUMPDEST SWAP1 POP DUP3 DUP2 SUB PUSH1 0x80 DUP5 ADD MSTORE PUSH2 0x20AC DUP2 DUP6 PUSH2 0x19D0 JUMP JUMPDEST SWAP9 SWAP8 POP POP POP POP POP POP POP POP JUMP JUMPDEST PUSH1 0xFF DUP3 DUP2 AND DUP3 DUP3 AND SUB SWAP1 DUP2 GT ISZERO PUSH2 0x44F JUMPI PUSH2 0x44F PUSH2 0x1EF5 JUMP JUMPDEST PUSH1 0x1 DUP2 JUMPDEST PUSH1 0x1 DUP5 GT ISZERO PUSH2 0x210C JUMPI DUP1 DUP6 DIV DUP2 GT ISZERO PUSH2 0x20F0 JUMPI PUSH2 0x20F0 PUSH2 0x1EF5 JUMP JUMPDEST PUSH1 0x1 DUP5 AND ISZERO PUSH2 0x20FE JUMPI SWAP1 DUP2 MUL SWAP1 JUMPDEST PUSH1 0x1 SWAP4 SWAP1 SWAP4 SHR SWAP3 DUP1 MUL PUSH2 0x20D5 JUMP JUMPDEST SWAP4 POP SWAP4 SWAP2 POP POP JUMP JUMPDEST PUSH0 DUP3 PUSH2 0x2122 JUMPI POP PUSH1 0x1 PUSH2 0x44F JUMP JUMPDEST DUP2 PUSH2 0x212E JUMPI POP PUSH0 PUSH2 0x44F JUMP JUMPDEST DUP2 PUSH1 0x1 DUP2 EQ PUSH2 0x2144 JUMPI PUSH1 0x2 DUP2 EQ PUSH2 0x214E JUMPI PUSH2 0x216A JUMP JUMPDEST PUSH1 0x1 SWAP2 POP POP PUSH2 0x44F JUMP JUMPDEST PUSH1 0xFF DUP5 GT ISZERO PUSH2 0x215F JUMPI PUSH2 0x215F PUSH2 0x1EF5 JUMP JUMPDEST POP POP PUSH1 0x1 DUP3 SHL PUSH2 0x44F JUMP JUMPDEST POP PUSH1 0x20 DUP4 LT PUSH2 0x133 DUP4 LT AND PUSH1 0x4E DUP5 LT PUSH1 0xB DUP5 LT AND OR ISZERO PUSH2 0x218D JUMPI POP DUP2 DUP2 EXP PUSH2 0x44F JUMP JUMPDEST PUSH2 0x2199 PUSH0 NOT DUP5 DUP5 PUSH2 0x20D1 JUMP JUMPDEST DUP1 PUSH0 NOT DIV DUP3 GT ISZERO PUSH2 0x21AC JUMPI PUSH2 0x21AC PUSH2 0x1EF5 JUMP JUMPDEST MUL SWAP4 SWAP3 POP POP POP JUMP JUMPDEST PUSH0 PUSH2 0x1A10 PUSH1 0xFF DUP5 AND DUP4 PUSH2 0x2114 JUMP JUMPDEST DUP1 DUP3 MUL PUSH0 DUP3 SLT PUSH1 0x1 PUSH1 0xFF SHL DUP5 EQ AND ISZERO PUSH2 0x21DD JUMPI PUSH2 0x21DD PUSH2 0x1EF5 JUMP JUMPDEST DUP2 DUP2 SDIV DUP4 EQ DUP3 ISZERO OR PUSH2 0x44F JUMPI PUSH2 0x44F PUSH2 0x1EF5 JUMP JUMPDEST DUP1 DUP3 ADD DUP3 DUP2 SLT PUSH0 DUP4 SLT DUP1 ISZERO DUP3 AND DUP3 ISZERO DUP3 AND OR ISZERO PUSH2 0x2210 JUMPI PUSH2 0x2210 PUSH2 0x1EF5 JUMP JUMPDEST POP POP SWAP3 SWAP2 POP POP JUMP JUMPDEST PUSH0 PUSH1 0xFF DUP3 AND PUSH1 0xFF DUP2 SUB PUSH2 0x222D JUMPI PUSH2 0x222D PUSH2 0x1EF5 JUMP JUMPDEST PUSH1 0x1 ADD SWAP3 SWAP2 POP POP JUMP JUMPDEST PUSH0 DUP3 PUSH2 0x2250 JUMPI PUSH4 0x4E487B71 PUSH1 0xE0 SHL PUSH0 MSTORE PUSH1 0x12 PUSH1 0x4 MSTORE PUSH1 0x24 PUSH0 REVERT JUMPDEST PUSH1 0x1 PUSH1 0xFF SHL DUP3 EQ PUSH0 NOT DUP5 EQ AND ISZERO PUSH2 0x2269 JUMPI PUSH2 0x2269 PUSH2 0x1EF5 JUMP JUMPDEST POP SDIV SWAP1 JUMP INVALID LOG2 PUSH5 0x6970667358 0x22 SLT KECCAK256 0x2C CALLDATACOPY 0xAD 0xB7 0x24 PUSH25 0xDD38278314C8B3D0F52879A7AE55CD7510C7030B3494D0B4A4 0xE9 PUSH5 0x736F6C6343 STOP ADDMOD SHR STOP CALLER "},"methodIdentifiers":{"addAutomatedSystem(address)":"eb3cef1b","appendResponse(uint256,address,string)":"98963f51","automatedSystems(address)":"8499939f","getClients(uint256)":"42dd519c","getFeedback(uint256,address)":"6ab42755","getResponses(uint256,address)":"17222011","getSummary(uint256)":"aee14460","getVersion()":"0d8e6e2c","identityRegistry()":"134e18f4","isAutomatedSystem(address)":"1bbc279b","owner()":"8da5cb5b","readAllFeedback(uint256,string,string)":"547d88a4","removeAutomatedSystem(address)":"75b63b38","renounceOwnership()":"715018a6","submitFeedback(uint256,int128,uint8,string,string,string)":"763139ea","transferOwnership(address)":"f2fde38b"}}}}}