{"project/contracts/IdentityRegistry.sol":{"IdentityRegistry":{"abi":[{"inputs":[],"stateMutability":"nonpayable","type":"constructor"},{"inputs":[{"internalType":"address","name":"sender","type":"address"},{"internalType":"uint256","name":"tokenId","type":"uint256"},{"internalType":"address","name":"owner","type":"address"}],"name":"ERC721IncorrectOwner","type":"error"},{"inputs":[{"internalType":"address","name":"operator","type":"address"},{"internalType":"uint256","name":"tokenId","type":"uint256"}],"name":"ERC721InsufficientApproval","type":"error"},{"inputs":[{"internalType":"address","name":"approver","type":"address"}],"name":"ERC721InvalidApprover","type":"error"},{"inputs":[{"internalType":"address","name":"operator","type":"address"}],"name":"ERC721InvalidOperator","type":"error"},{"inputs":[{"internalType":"address","name":"owner","type":"address"}],"name":"ERC721InvalidOwner","type":"error"},{"inputs":[{"internalType":"address","name":"receiver","type":"address"}],"name":"ERC721InvalidReceiver","type":"error"},{"inputs":[{"internalType":"address","name":"sender","type":"address"}],"name":"ERC721InvalidSender","type":"error"},{"inputs":[{"internalType":"uint256","name":"tokenId","type":"uint256"}],"name":"ERC721NonexistentToken","type":"error"},{"inputs":[],"name":"InvalidShortString","type":"error"},{"inputs":[{"internalType":"address","name":"owner","type":"address"}],"name":"OwnableInvalidOwner","type":"error"},{"inputs":[{"internalType":"address","name":"account","type":"address"}],"name":"OwnableUnauthorizedAccount","type":"error"},{"inputs":[{"internalType":"string","name":"str","type":"string"}],"name":"StringTooLong","type":"error"},{"anonymous":false,"inputs":[{"indexed":true,"internalType":"address","name":"owner","type":"address"},{"indexed":true,"internalType":"address","name":"approved","type":"address"},{"indexed":true,"internalType":"uint256","name":"tokenId","type":"uint256"}],"name":"Approval","type":"event"},{"anonymous":false,"inputs":[{"indexed":true,"internalType":"address","name":"owner","type":"address"},{"indexed":true,"internalType":"address","name":"operator","type":"address"},{"indexed":false,"internalType":"bool","name":"approved","type":"bool"}],"name":"ApprovalForAll","type":"event"},{"anonymous":false,"inputs":[{"indexed":false,"internalType":"uint256","name":"_fromTokenId","type":"uint256"},{"indexed":false,"internalType":"uint256","name":"_toTokenId","type":"uint256"}],"name":"BatchMetadataUpdate","type":"event"},{"anonymous":false,"inputs":[],"name":"EIP712DomainChanged","type":"event"},{"anonymous":false,"inputs":[{"indexed":true,"internalType":"uint256","name":"agentId","type":"uint256"},{"indexed":true,"internalType":"string","name":"indexedMetadataKey","type":"string"},{"indexed":false,"internalType":"string","name":"metadataKey","type":"string"},{"indexed":false,"internalType":"bytes","name":"metadataValue","type":"bytes"}],"name":"MetadataSet","type":"event"},{"anonymous":false,"inputs":[{"indexed":false,"internalType":"uint256","name":"_tokenId","type":"uint256"}],"name":"MetadataUpdate","type":"event"},{"anonymous":false,"inputs":[{"indexed":true,"internalType":"address","name":"previousOwner","type":"address"},{"indexed":true,"internalType":"address","name":"newOwner","type":"address"}],"name":"OwnershipTransferred","type":"event"},{"anonymous":false,"inputs":[{"indexed":true,"internalType":"uint256","name":"agentId","type":"uint256"},{"indexed":false,"internalType":"string","name":"agentURI","type":"string"},{"indexed":true,"internalType":"address","name":"owner","type":"address"}],"name":"Registered","type":"event"},{"anonymous":false,"inputs":[{"indexed":true,"internalType":"address","name":"registrar","type":"address"}],"name":"RegistrarAdded","type":"event"},{"anonymous":false,"inputs":[{"indexed":true,"internalType":"address","name":"registrar","type":"address"}],"name":"RegistrarRemoved","type":"event"},{"anonymous":false,"inputs":[{"indexed":true,"internalType":"address","name":"from","type":"address"},{"indexed":true,"internalType":"address","name":"to","type":"address"},{"indexed":true,"internalType":"uint256","name":"tokenId","type":"uint256"}],"name":"Transfer","type":"event"},{"anonymous":false,"inputs":[{"indexed":true,"internalType":"uint256","name":"agentId","type":"uint256"},{"indexed":false,"internalType":"string","name":"newURI","type":"string"},{"indexed":true,"internalType":"address","name":"updatedBy","type":"address"}],"name":"URIUpdated","type":"event"},{"inputs":[{"internalType":"address","name":"registrar","type":"address"}],"name":"addRegistrar","outputs":[],"stateMutability":"nonpayable","type":"function"},{"inputs":[{"internalType":"address","name":"to","type":"address"},{"internalType":"uint256","name":"tokenId","type":"uint256"}],"name":"approve","outputs":[],"stateMutability":"nonpayable","type":"function"},{"inputs":[{"internalType":"address","name":"owner","type":"address"}],"name":"balanceOf","outputs":[{"internalType":"uint256","name":"","type":"uint256"}],"stateMutability":"view","type":"function"},{"inputs":[],"name":"eip712Domain","outputs":[{"internalType":"bytes1","name":"fields","type":"bytes1"},{"internalType":"string","name":"name","type":"string"},{"internalType":"string","name":"version","type":"string"},{"internalType":"uint256","name":"chainId","type":"uint256"},{"internalType":"address","name":"verifyingContract","type":"address"},{"internalType":"bytes32","name":"salt","type":"bytes32"},{"internalType":"uint256[]","name":"extensions","type":"uint256[]"}],"stateMutability":"view","type":"function"},{"inputs":[{"internalType":"uint256","name":"agentId","type":"uint256"}],"name":"getAgentWallet","outputs":[{"internalType":"address","name":"","type":"address"}],"stateMutability":"view","type":"function"},{"inputs":[{"internalType":"uint256","name":"tokenId","type":"uint256"}],"name":"getApproved","outputs":[{"internalType":"address","name":"","type":"address"}],"stateMutability":"view","type":"function"},{"inputs":[{"internalType":"uint256","name":"agentId","type":"uint256"},{"internalType":"string","name":"metadataKey","type":"string"}],"name":"getMetadata","outputs":[{"internalType":"bytes","name":"","type":"bytes"}],"stateMutability":"view","type":"function"},{"inputs":[{"internalType":"address","name":"owner","type":"address"},{"internalType":"address","name":"operator","type":"address"}],"name":"isApprovedForAll","outputs":[{"internalType":"bool","name":"","type":"bool"}],"stateMutability":"view","type":"function"},{"inputs":[{"internalType":"address","name":"spender","type":"address"},{"internalType":"uint256","name":"agentId","type":"uint256"}],"name":"isAuthorizedOrOwner","outputs":[{"internalType":"bool","name":"","type":"bool"}],"stateMutability":"view","type":"function"},{"inputs":[],"name":"name","outputs":[{"internalType":"string","name":"","type":"string"}],"stateMutability":"view","type":"function"},{"inputs":[],"name":"owner","outputs":[{"internalType":"address","name":"","type":"address"}],"stateMutability":"view","type":"function"},{"inputs":[{"internalType":"uint256","name":"tokenId","type":"uint256"}],"name":"ownerOf","outputs":[{"internalType":"address","name":"","type":"address"}],"stateMutability":"view","type":"function"},{"inputs":[{"internalType":"string","name":"agentURI","type":"string"}],"name":"register","outputs":[{"internalType":"uint256","name":"agentId","type":"uint256"}],"stateMutability":"nonpayable","type":"function"},{"inputs":[{"internalType":"address","name":"owner","type":"address"},{"internalType":"string","name":"agentURI","type":"string"}],"name":"registerFor","outputs":[{"internalType":"uint256","name":"agentId","type":"uint256"}],"stateMutability":"nonpayable","type":"function"},{"inputs":[{"internalType":"address","name":"","type":"address"}],"name":"registrars","outputs":[{"internalType":"bool","name":"","type":"bool"}],"stateMutability":"view","type":"function"},{"inputs":[{"internalType":"address","name":"registrar","type":"address"}],"name":"removeRegistrar","outputs":[],"stateMutability":"nonpayable","type":"function"},{"inputs":[],"name":"renounceOwnership","outputs":[],"stateMutability":"nonpayable","type":"function"},{"inputs":[{"internalType":"address","name":"from","type":"address"},{"internalType":"address","name":"to","type":"address"},{"internalType":"uint256","name":"tokenId","type":"uint256"}],"name":"safeTransferFrom","outputs":[],"stateMutability":"nonpayable","type":"function"},{"inputs":[{"internalType":"address","name":"from","type":"address"},{"internalType":"address","name":"to","type":"address"},{"internalType":"uint256","name":"tokenId","type":"uint256"},{"internalType":"bytes","name":"data","type":"bytes"}],"name":"safeTransferFrom","outputs":[],"stateMutability":"nonpayable","type":"function"},{"inputs":[{"internalType":"uint256","name":"agentId","type":"uint256"},{"internalType":"string","name":"newURI","type":"string"}],"name":"setAgentURI","outputs":[],"stateMutability":"nonpayable","type":"function"},{"inputs":[{"internalType":"uint256","name":"agentId","type":"uint256"},{"internalType":"address","name":"newWallet","type":"address"},{"internalType":"uint256","name":"deadline","type":"uint256"},{"internalType":"bytes","name":"signature","type":"bytes"}],"name":"setAgentWallet","outputs":[],"stateMutability":"nonpayable","type":"function"},{"inputs":[{"internalType":"address","name":"operator","type":"address"},{"internalType":"bool","name":"approved","type":"bool"}],"name":"setApprovalForAll","outputs":[],"stateMutability":"nonpayable","type":"function"},{"inputs":[{"internalType":"uint256","name":"agentId","type":"uint256"},{"internalType":"string","name":"metadataKey","type":"string"},{"internalType":"bytes","name":"metadataValue","type":"bytes"}],"name":"setMetadata","outputs":[],"stateMutability":"nonpayable","type":"function"},{"inputs":[{"internalType":"bytes4","name":"interfaceId","type":"bytes4"}],"name":"supportsInterface","outputs":[{"internalType":"bool","name":"","type":"bool"}],"stateMutability":"view","type":"function"},{"inputs":[],"name":"symbol","outputs":[{"internalType":"string","name":"","type":"string"}],"stateMutability":"view","type":"function"},{"inputs":[{"internalType":"uint256","name":"tokenId","type":"uint256"}],"name":"tokenURI","outputs":[{"internalType":"string","name":"","type":"string"}],"stateMutability":"view","type":"function"},{"inputs":[{"internalType":"address","name":"from","type":"address"},{"internalType":"address","name":"to","type":"address"},{"internalType":"uint256","name":"tokenId","type":"uint256"}],"name":"transferFrom","outputs":[],"stateMutability":"nonpayable","type":"function"},{"inputs":[{"internalType":"address","name":"newOwner","type":"address"}],"name":"transferOwnership","outputs":[],"stateMutability":"nonpayable","type":"function"},{"inputs":[{"internalType":"uint256","name":"agentId","type":"uint256"}],"name":"unsetAgentWallet","outputs":[],"stateMutability":"nonpayable","type":"function"}],"evm":{"bytecode":{"linkReferences":{},"object":"610160604052348015610010575f5ffd5b506040518060400160405280601781526020017f455243383030344964656e746974795265676973747279000000000000000000815250604051806040016040528060018152602001603160f81b815250336040518060400160405280600d81526020016c4167656e744964656e7469747960981b815250604051806040016040528060058152602001641051d1539560da1b815250815f90816100b49190610308565b5060016100c18282610308565b5050506001600160a01b0381166100f257604051631e4fbdf760e01b81525f60048201526024015b60405180910390fd5b6100fb816101b0565b50610107826008610201565b61012052610116816009610201565b61014052815160208084019190912060e052815190820120610100524660a0526101a260e05161010051604080517f8b73c3c69bb8fe3d512ecc4cf759cc79239f7b179b0ffacaa9a75d522b39400f60208201529081019290925260608201524660808201523060a08201525f9060c00160405160208183030381529060405280519060200120905090565b60805250503060c05261041a565b600780546001600160a01b038381166001600160a01b0319831681179093556040519116919082907f8be0079c531659141344cd1fd0a4f28419497f9722a3daafe3b4186f6b6457e0905f90a35050565b5f60208351101561021c5761021583610233565b905061022d565b816102278482610308565b5060ff90505b92915050565b5f5f829050601f8151111561025d578260405163305a27a960e01b81526004016100e991906103c2565b8051610268826103f7565b179392505050565b634e487b7160e01b5f52604160045260245ffd5b600181811c9082168061029857607f821691505b6020821081036102b657634e487b7160e01b5f52602260045260245ffd5b50919050565b601f82111561030357805f5260205f20601f840160051c810160208510156102e15750805b601f840160051c820191505b81811015610300575f81556001016102ed565b50505b505050565b81516001600160401b0381111561032157610321610270565b6103358161032f8454610284565b846102bc565b6020601f821160018114610367575f83156103505750848201515b5f19600385901b1c1916600184901b178455610300565b5f84815260208120601f198516915b828110156103965787850151825560209485019460019092019101610376565b50848210156103b357868401515f19600387901b60f8161c191681555b50505050600190811b01905550565b602081525f82518060208401528060208501604085015e5f604082850101526040601f19601f83011684010191505092915050565b805160208083015191908110156102b6575f1960209190910360031b1b16919050565b60805160a05160c05160e051610100516101205161014051612aa161046b5f395f61177c01525f61174a01525f611d0901525f611ce101525f611c3c01525f611c6601525f611c900152612aa15ff3fe608060405234801561000f575f5ffd5b50600436106101c5575f3560e01c8063715018a6116100fe578063b88d4fde1161009e578063d95e72be1161006e578063d95e72be146103e2578063e985e9c5146103f5578063f2c298be14610408578063f2fde38b1461041b575f5ffd5b8063b88d4fde14610396578063ba904eed146103a9578063c87b56dd146103bc578063cb4799f2146103cf575f5ffd5b80638da5cb5b116100d95780638da5cb5b1461035757806395d89b4114610368578063a22cb46514610370578063af92a69314610383575f5ffd5b8063715018a61461031257806384b0196e1461031a57806389aeca7614610335575f5ffd5b80632d1ef5ae11610169578063466648da11610144578063466648da146102b8578063498163fd146102cb5780636352211e146102ec57806370a08231146102ff575f5ffd5b80632d1ef5ae1461027f5780633fddcf191461029257806342842e0e146102a5575f5ffd5b8063081812fc116101a4578063081812fc14610231578063095ea7b3146102445780630af28bd31461025957806323b872dd1461026c575f5ffd5b8062339509146101c957806301ffc9a7146101f957806306fdde031461021c575b5f5ffd5b6101dc6101d7366004612170565b61042e565b6040516001600160a01b0390911681526020015b60405180910390f35b61020c61020736600461219c565b6104f5565b60405190151581526020016101f0565b61022461051f565b6040516101f091906121e5565b6101dc61023f366004612170565b6105ae565b610257610252366004612212565b6105d5565b005b61025761026736600461227e565b6105e4565b61025761027a3660046122c5565b6106de565b61025761028d3660046122ff565b610767565b6102576102a0366004612170565b610b61565b6102576102b33660046122c5565b610c4b565b6102576102c6366004612404565b610c6a565b6102de6102d936600461246f565b610da8565b6040519081526020016101f0565b6101dc6102fa366004612170565b610f67565b6102de61030d3660046124b9565b610f71565b610257610fb6565b610322610fc9565b6040516101f097969594939291906124d2565b61020c6103433660046124b9565b600c6020525f908152604090205460ff1681565b6007546001600160a01b03166101dc565b61022461100b565b61025761037e366004612568565b61101a565b6102576103913660046124b9565b611025565b6102576103a43660046125a1565b6110c0565b6102576103b73660046124b9565b6110d8565b6102246103ca366004612170565b611128565b6102246103dd366004612604565b611233565b61020c6103f0366004612212565b6112f1565b61020c610403366004612631565b611309565b6102de610416366004612662565b611336565b6102576104293660046124b9565b611451565b5f818152600b6020526040808220905182919061044a90612693565b90815260200160405180910390208054610463906126aa565b80601f016020809104026020016040519081016040528092919081815260200182805461048f906126aa565b80156104da5780601f106104b1576101008083540402835291602001916104da565b820191905f5260205f20905b8154815290600101906020018083116104bd57829003601f168201915b50505050509050806104eb906126e2565b60601c9392505050565b5f6001600160e01b03198216632483248360e11b148061051957506105198261148e565b92915050565b60605f805461052d906126aa565b80601f0160208091040260200160405190810160405280929190818152602001828054610559906126aa565b80156105a45780601f1061057b576101008083540402835291602001916105a4565b820191905f5260205f20905b81548152906001019060200180831161058757829003601f168201915b5050505050905090565b5f6105b8826114dd565b505f828152600460205260409020546001600160a01b0316610519565b6105e0828233611515565b5050565b5f6105ee84610f67565b9050336001600160a01b038216148061060c575061060c8133611309565b80610630575061061b846105ae565b6001600160a01b0316336001600160a01b0316145b6106555760405162461bcd60e51b815260040161064c90612735565b60405180910390fd5b6106948484848080601f0160208091040260200160405190810160405280939291908181526020018383808284375f9201919091525061152292505050565b336001600160a01b0316847f3a2c7fffc2cba7582c690e3b82c453ea02a308326a98a3ad7576c606336409fb85856040516106d0929190612785565b60405180910390a350505050565b6001600160a01b03821661070757604051633250574960e11b81525f600482015260240161064c565b5f610713838333611571565b9050836001600160a01b0316816001600160a01b031614610761576040516364283d7b60e01b81526001600160a01b038086166004830152602482018490528216604482015260640161064c565b50505050565b5f61077186610f67565b9050336001600160a01b038216148061078f575061078f8133611309565b806107b3575061079e866105ae565b6001600160a01b0316336001600160a01b0316145b6107cf5760405162461bcd60e51b815260040161064c90612735565b6001600160a01b0385166108125760405162461bcd60e51b815260206004820152600a602482015269189859081dd85b1b195d60b21b604482015260640161064c565b8342111561084c5760405162461bcd60e51b8152602060048201526007602482015266195e1c1a5c995960ca1b604482015260640161064c565b61085861012c426127ac565b84111561089a5760405162461bcd60e51b815260206004820152601060248201526f3232b0b23634b732903a37b7903330b960811b604482015260640161064c565b604080517f678b53cd718d595370ab070ebf48edfdcd834beac116bf23e625fc7f4d5b7d3260208201529081018790526001600160a01b0380871660608301528216608082015260a081018590525f9060c0016040516020818303038152906040528051906020012090505f61090f82611637565b90505f5f6109528388888080601f0160208091040260200160405190810160405280939291908181526020018383808284375f9201919091525061166392505050565b5090925090505f81600381111561096b5761096b6127bf565b14158061098a5750886001600160a01b0316826001600160a01b031614155b15610aab575f5f8a6001600160a01b0316858a8a6040516024016109b0939291906127d3565b60408051601f198184030181529181526020820180516001600160e01b0316630b135d3f60e11b179052516109e59190612803565b5f60405180830381855afa9150503d805f8114610a1d576040519150601f19603f3d011682016040523d82523d5f602084013e610a22565b606091505b5091509150818015610a3657506020815110155b8015610a6757508051630b135d3f60e11b90610a5b908301602090810190840161280e565b6001600160e01b031916145b610aa85760405162461bcd60e51b8152602060048201526012602482015271696e76616c69642077616c6c65742073696760701b604482015260640161064c565b50505b88604051602001610abc9190612829565b60408051601f198184030181528282525f8d8152600b602052919091209091610ae490612693565b90815260200160405180910390209081610afe919061288a565b50604051610b0b90612693565b60405180910390208a5f516020612a4c5f395f51905f528b604051602001610b339190612829565b60408051601f1981840301815290829052610b4d91612944565b60405180910390a350505050505050505050565b5f610b6b82610f67565b9050336001600160a01b0382161480610b895750610b898133611309565b80610bad5750610b98826105ae565b6001600160a01b0316336001600160a01b0316145b610bc95760405162461bcd60e51b815260040161064c90612735565b60405180602001604052805f815250600b5f8481526020019081526020015f20604051610bf590612693565b90815260200160405180910390209081610c0f919061288a565b50604051610c1c90612693565b6040518091039020825f516020612a4c5f395f51905f52604051610c3f90612980565b60405180910390a35050565b610c6583838360405180602001604052805f8152506110c0565b505050565b5f838152600260205260409020546001600160a01b031633811480610c945750610c948133611309565b80610cb85750610ca3846105ae565b6001600160a01b0316336001600160a01b0316145b610cd45760405162461bcd60e51b815260040161064c90612735565b825160208401207fd539ef6cd918df2ebca3f2499081ca12587c60ad490e0aadf59f8771ecd4b1c701610d385760405162461bcd60e51b815260206004820152600c60248201526b7265736572766564206b657960a01b604482015260640161064c565b81600b5f8681526020019081526020015f2084604051610d589190612803565b90815260200160405180910390209081610d72919061288a565b5082604051610d819190612803565b6040518091039020845f516020612a4c5f395f51905f5285856040516106d09291906129bf565b335f908152600c602052604081205460ff16610e065760405162461bcd60e51b815260206004820152601860248201527f4e6f7420617574686f72697a6564207265676973747261720000000000000000604482015260640161064c565b6001600160a01b038316610e4c5760405162461bcd60e51b815260206004820152600d60248201526c24b73b30b634b21037bbb732b960991b604482015260640161064c565b600a8054905f610e5b836129e3565b91905055905082604051602001610e729190612829565b60408051601f198184030181528282525f848152600b602052919091209091610e9a90612693565b90815260200160405180910390209081610eb4919061288a565b50610ebf83826116ac565b610ec98183611522565b826001600160a01b0316817fca52e62c367d81bb2e328eb795f7c7ba24afb478408a26c0e201d155c449bc4a84604051610f0391906121e5565b60405180910390a3604051610f1790612693565b6040518091039020815f516020612a4c5f395f51905f5285604051602001610f3f9190612829565b60408051601f1981840301815290829052610f5991612944565b60405180910390a392915050565b5f610519826114dd565b5f6001600160a01b038216610f9b576040516322718ad960e21b81525f600482015260240161064c565b506001600160a01b03165f9081526003602052604090205490565b610fbe6116c5565b610fc75f6116f2565b565b5f6060805f5f5f6060610fda611743565b610fe2611775565b604080515f80825260208201909252600f60f81b9b939a50919850469750309650945092509050565b60606001805461052d906126aa565b6105e03383836117a2565b61102d6116c5565b6001600160a01b0381166110755760405162461bcd60e51b815260206004820152600f60248201526e496e76616c6964206164647265737360881b604482015260640161064c565b6001600160a01b0381165f818152600c6020526040808220805460ff19166001179055517f5c38ce8ff8864a9d2a5ff5aec72a88770e38d181dea59173fde1247cdaa1aea39190a250565b6110cb8484846106de565b6107613385858585611840565b6110e06116c5565b6001600160a01b0381165f818152600c6020526040808220805460ff19169055517f81cb97a294b3ff5f91ef4048b3173c7f8f6943d9750add2071199061165e5f579190a250565b6060611133826114dd565b505f828152600660205260408120805461114c906126aa565b80601f0160208091040260200160405190810160405280929190818152602001828054611178906126aa565b80156111c35780601f1061119a576101008083540402835291602001916111c3565b820191905f5260205f20905b8154815290600101906020018083116111a657829003601f168201915b505050505090505f6111df60408051602081019091525f815290565b905080515f036111f0575092915050565b81511561122257808260405160200161120a9291906129fb565b60405160208183030381529060405292505050919050565b61122b84611968565b949350505050565b6060600b5f8481526020019081526020015f20826040516112549190612803565b9081526020016040518091039020805461126d906126aa565b80601f0160208091040260200160405190810160405280929190818152602001828054611299906126aa565b80156112e45780601f106112bb576101008083540402835291602001916112e4565b820191905f5260205f20905b8154815290600101906020018083116112c757829003601f168201915b5050505050905092915050565b5f5f6112fc83610f67565b905061122b8185856119d9565b6001600160a01b039182165f90815260056020908152604080832093909416825291909152205460ff1690565b600a80545f9182611346836129e3565b9190505590503360405160200161135d9190612829565b60408051601f198184030181528282525f848152600b60205291909120909161138590612693565b9081526020016040518091039020908161139f919061288a565b506113aa33826116ac565b6113b48183611522565b336001600160a01b0316817fca52e62c367d81bb2e328eb795f7c7ba24afb478408a26c0e201d155c449bc4a846040516113ee91906121e5565b60405180910390a360405161140290612693565b6040518091039020815f516020612a4c5f395f51905f523360405160200161142a9190612829565b60408051601f198184030181529082905261144491612944565b60405180910390a3919050565b6114596116c5565b6001600160a01b03811661148257604051631e4fbdf760e01b81525f600482015260240161064c565b61148b816116f2565b50565b5f6001600160e01b031982166380ac58cd60e01b14806114be57506001600160e01b03198216635b5e139f60e01b145b8061051957506301ffc9a760e01b6001600160e01b0319831614610519565b5f818152600260205260408120546001600160a01b03168061051957604051637e27328960e01b81526004810184905260240161064c565b610c658383836001611a3a565b5f828152600660205260409020611539828261288a565b506040518281527ff8e1a15aba9398e019f0b49df1a4fde98ee17ae345cb5f6b5e2c27f5033e8ce79060200160405180910390a15050565b5f828152600260205260408120546001600160a01b0316801580159061159f57506001600160a01b03851615155b156116235760405180602001604052805f815250600b5f8681526020019081526020015f206040516115d090612693565b908152602001604051809103902090816115ea919061288a565b506040516115f790612693565b6040518091039020845f516020612a4c5f395f51905f5260405161161a90612980565b60405180910390a35b61162e858585611b3e565b95945050505050565b5f610519611643611c30565b8360405161190160f01b8152600281019290925260228201526042902090565b5f5f5f835160410361169a576020840151604085015160608601515f1a61168c88828585611d59565b9550955095505050506116a5565b505081515f91506002905b9250925092565b6105e0828260405180602001604052805f815250611e21565b6007546001600160a01b03163314610fc75760405163118cdaa760e01b815233600482015260240161064c565b600780546001600160a01b038381166001600160a01b0319831681179093556040519116919082907f8be0079c531659141344cd1fd0a4f28419497f9722a3daafe3b4186f6b6457e0905f90a35050565b60606117707f00000000000000000000000000000000000000000000000000000000000000006008611e38565b905090565b60606117707f00000000000000000000000000000000000000000000000000000000000000006009611e38565b6001600160a01b0382166117d457604051630b61174360e31b81526001600160a01b038316600482015260240161064c565b6001600160a01b038381165f81815260056020908152604080832094871680845294825291829020805460ff191686151590811790915591519182527f17307eab39ab6107e8899845ad3d59bd9653f200f220920489ca2b5937696c31910160405180910390a3505050565b6001600160a01b0383163b1561196157604051630a85bd0160e11b81526001600160a01b0384169063150b7a0290611882908890889087908790600401612a0f565b6020604051808303815f875af19250505080156118bc575060408051601f3d908101601f191682019092526118b99181019061280e565b60015b611923573d8080156118e9576040519150601f19603f3d011682016040523d82523d5f602084013e6118ee565b606091505b5080515f0361191b57604051633250574960e11b81526001600160a01b038516600482015260240161064c565b805160208201fd5b6001600160e01b03198116630a85bd0160e11b1461195f57604051633250574960e11b81526001600160a01b038516600482015260240161064c565b505b5050505050565b6060611973826114dd565b505f61198960408051602081019091525f815290565b90505f8151116119a75760405180602001604052805f8152506119d2565b806119b184611ee1565b6040516020016119c29291906129fb565b6040516020818303038152906040525b9392505050565b5f6001600160a01b0383161580159061122b5750826001600160a01b0316846001600160a01b03161480611a125750611a128484611309565b8061122b5750505f908152600460205260409020546001600160a01b03908116911614919050565b8080611a4e57506001600160a01b03821615155b15611b0f575f611a5d846114dd565b90506001600160a01b03831615801590611a895750826001600160a01b0316816001600160a01b031614155b8015611a9c5750611a9a8184611309565b155b15611ac55760405163a9fbf51f60e01b81526001600160a01b038416600482015260240161064c565b8115611b0d5783856001600160a01b0316826001600160a01b03167f8c5be1e5ebec7d5bd14f71427d1e84f3dd0314c0f7b2291e5b200ac8c7c3b92560405160405180910390a45b505b50505f90815260046020526040902080546001600160a01b0319166001600160a01b0392909216919091179055565b5f828152600260205260408120546001600160a01b0390811690831615611b6a57611b6a818486611f70565b6001600160a01b03811615611ba457611b855f855f5f611a3a565b6001600160a01b0381165f90815260036020526040902080545f190190555b6001600160a01b03851615611bd2576001600160a01b0385165f908152600360205260409020805460010190555b5f8481526002602052604080822080546001600160a01b0319166001600160a01b0389811691821790925591518793918516917fddf252ad1be2c89b69c2b068fc378daa952ba7f163c4a11628f55a4df523b3ef91a4949350505050565b5f306001600160a01b037f000000000000000000000000000000000000000000000000000000000000000016148015611c8857507f000000000000000000000000000000000000000000000000000000000000000046145b15611cb257507f000000000000000000000000000000000000000000000000000000000000000090565b611770604080517f8b73c3c69bb8fe3d512ecc4cf759cc79239f7b179b0ffacaa9a75d522b39400f60208201527f0000000000000000000000000000000000000000000000000000000000000000918101919091527f000000000000000000000000000000000000000000000000000000000000000060608201524660808201523060a08201525f9060c00160405160208183030381529060405280519060200120905090565b5f80807f7fffffffffffffffffffffffffffffff5d576e7357a4501ddfe92f46681b20a0841115611d9257505f91506003905082611e17565b604080515f808252602082018084528a905260ff891692820192909252606081018790526080810186905260019060a0016020604051602081039080840390855afa158015611de3573d5f5f3e3d5ffd5b5050604051601f1901519150506001600160a01b038116611e0e57505f925060019150829050611e17565b92505f91508190505b9450945094915050565b611e2b8383611fd4565b610c65335f858585611840565b606060ff8314611e5257611e4b83612035565b9050610519565b818054611e5e906126aa565b80601f0160208091040260200160405190810160405280929190818152602001828054611e8a906126aa565b8015611ed55780601f10611eac57610100808354040283529160200191611ed5565b820191905f5260205f20905b815481529060010190602001808311611eb857829003601f168201915b50505050509050610519565b60605f611eed83612072565b60010190505f816001600160401b03811115611f0b57611f0b612361565b6040519080825280601f01601f191660200182016040528015611f35576020820181803683370190505b5090508181016020015b5f19016f181899199a1a9b1b9c1cb0b131b232b360811b600a86061a8153600a8504945084611f3f57509392505050565b611f7b8383836119d9565b610c65576001600160a01b038316611fa957604051637e27328960e01b81526004810182905260240161064c565b60405163177e802f60e01b81526001600160a01b03831660048201526024810182905260440161064c565b6001600160a01b038216611ffd57604051633250574960e11b81525f600482015260240161064c565b5f61200983835f611571565b90506001600160a01b03811615610c65576040516339e3563760e11b81525f600482015260240161064c565b60605f61204183612149565b6040805160208082528183019092529192505f91906020820181803683375050509182525060208101929092525090565b5f8072184f03e93ff9f4daa797ed6e38ed64bf6a1f0160401b83106120b05772184f03e93ff9f4daa797ed6e38ed64bf6a1f0160401b830492506040015b6d04ee2d6d415b85acef810000000083106120dc576d04ee2d6d415b85acef8100000000830492506020015b662386f26fc1000083106120fa57662386f26fc10000830492506010015b6305f5e1008310612112576305f5e100830492506008015b612710831061212657612710830492506004015b60648310612138576064830492506002015b600a83106105195760010192915050565b5f60ff8216601f81111561051957604051632cd44ac360e21b815260040160405180910390fd5b5f60208284031215612180575f5ffd5b5035919050565b6001600160e01b03198116811461148b575f5ffd5b5f602082840312156121ac575f5ffd5b81356119d281612187565b5f81518084528060208401602086015e5f602082860101526020601f19601f83011685010191505092915050565b602081525f6119d260208301846121b7565b80356001600160a01b038116811461220d575f5ffd5b919050565b5f5f60408385031215612223575f5ffd5b61222c836121f7565b946020939093013593505050565b5f5f83601f84011261224a575f5ffd5b5081356001600160401b03811115612260575f5ffd5b602083019150836020828501011115612277575f5ffd5b9250929050565b5f5f5f60408486031215612290575f5ffd5b8335925060208401356001600160401b038111156122ac575f5ffd5b6122b88682870161223a565b9497909650939450505050565b5f5f5f606084860312156122d7575f5ffd5b6122e0846121f7565b92506122ee602085016121f7565b929592945050506040919091013590565b5f5f5f5f5f60808688031215612313575f5ffd5b85359450612323602087016121f7565b93506040860135925060608601356001600160401b03811115612344575f5ffd5b6123508882890161223a565b969995985093965092949392505050565b634e487b7160e01b5f52604160045260245ffd5b5f82601f830112612384575f5ffd5b8135602083015f5f6001600160401b038411156123a3576123a3612361565b50604051601f19601f85018116603f011681018181106001600160401b03821117156123d1576123d1612361565b6040528381529050808284018710156123e8575f5ffd5b838360208301375f602085830101528094505050505092915050565b5f5f5f60608486031215612416575f5ffd5b8335925060208401356001600160401b03811115612432575f5ffd5b61243e86828701612375565b92505060408401356001600160401b03811115612459575f5ffd5b61246586828701612375565b9150509250925092565b5f5f60408385031215612480575f5ffd5b612489836121f7565b915060208301356001600160401b038111156124a3575f5ffd5b6124af85828601612375565b9150509250929050565b5f602082840312156124c9575f5ffd5b6119d2826121f7565b60ff60f81b8816815260e060208201525f6124f060e08301896121b7565b828103604084015261250281896121b7565b606084018890526001600160a01b038716608085015260a0840186905283810360c0850152845180825260208087019350909101905f5b81811015612557578351835260209384019390920191600101612539565b50909b9a5050505050505050505050565b5f5f60408385031215612579575f5ffd5b612582836121f7565b915060208301358015158114612596575f5ffd5b809150509250929050565b5f5f5f5f608085870312156125b4575f5ffd5b6125bd856121f7565b93506125cb602086016121f7565b92506040850135915060608501356001600160401b038111156125ec575f5ffd5b6125f887828801612375565b91505092959194509250565b5f5f60408385031215612615575f5ffd5b8235915060208301356001600160401b038111156124a3575f5ffd5b5f5f60408385031215612642575f5ffd5b61264b836121f7565b9150612659602084016121f7565b90509250929050565b5f60208284031215612672575f5ffd5b81356001600160401b03811115612687575f5ffd5b61122b84828501612375565b6a1859d95b9d15d85b1b195d60aa1b8152600b0190565b600181811c908216806126be57607f821691505b6020821081036126dc57634e487b7160e01b5f52602260045260245ffd5b50919050565b805160208201516bffffffffffffffffffffffff1981169190601482101561272e576bffffffffffffffffffffffff196bffffffffffffffffffffffff198360140360031b1b82161692505b5050919050565b6020808252600e908201526d139bdd08185d5d1a1bdc9a5e995960921b604082015260600190565b81835281816020850137505f828201602090810191909152601f909101601f19169091010190565b602081525f61122b60208301848661275d565b634e487b7160e01b5f52601160045260245ffd5b8082018082111561051957610519612798565b634e487b7160e01b5f52602160045260245ffd5b838152604060208201525f61162e60408301848661275d565b5f81518060208401855e5f93019283525090919050565b5f6119d282846127ec565b5f6020828403121561281e575f5ffd5b81516119d281612187565b60609190911b6bffffffffffffffffffffffff1916815260140190565b601f821115610c6557805f5260205f20601f840160051c8101602085101561286b5750805b601f840160051c820191505b81811015611961575f8155600101612877565b81516001600160401b038111156128a3576128a3612361565b6128b7816128b184546126aa565b84612846565b6020601f8211600181146128e9575f83156128d25750848201515b5f19600385901b1c1916600184901b178455611961565b5f84815260208120601f198516915b8281101561291857878501518255602094850194600190920191016128f8565b508482101561293557868401515f19600387901b60f8161c191681555b50505050600190811b01905550565b604081525f61296e60408301600b81526a1859d95b9d15d85b1b195d60aa1b602082015260400190565b828103602084015261122b81856121b7565b604081525f6129aa60408301600b81526a1859d95b9d15d85b1b195d60aa1b602082015260400190565b8281036020938401525f815291909101919050565b604081525f6129d160408301856121b7565b828103602084015261162e81856121b7565b5f600182016129f4576129f4612798565b5060010190565b5f61122b612a0983866127ec565b846127ec565b6001600160a01b03858116825284166020820152604081018390526080606082018190525f90612a41908301846121b7565b969550505050505056fe2c149ed548c6d2993cd73efe187df6eccabe4538091b33adbd25fafdb8a1468ba2646970667358221220d13d020700afaa2ec2b7afd4ad872fd8a0ff49d2743d0bff617a55e0ae3d6b2064736f6c634300081c0033","opcodes":"PUSH2 0x160 PUSH1 0x40 MSTORE CALLVALUE DUP1 ISZERO PUSH2 0x10 JUMPI PUSH0 PUSH0 REVERT JUMPDEST POP PUSH1 0x40 MLOAD DUP1 PUSH1 0x40 ADD PUSH1 0x40 MSTORE DUP1 PUSH1 0x17 DUP2 MSTORE PUSH1 0x20 ADD PUSH32 0x455243383030344964656E746974795265676973747279000000000000000000 DUP2 MSTORE POP PUSH1 0x40 MLOAD DUP1 PUSH1 0x40 ADD PUSH1 0x40 MSTORE DUP1 PUSH1 0x1 DUP2 MSTORE PUSH1 0x20 ADD PUSH1 0x31 PUSH1 0xF8 SHL DUP2 MSTORE POP CALLER PUSH1 0x40 MLOAD DUP1 PUSH1 0x40 ADD PUSH1 0x40 MSTORE DUP1 PUSH1 0xD DUP2 MSTORE PUSH1 0x20 ADD PUSH13 0x4167656E744964656E74697479 PUSH1 0x98 SHL DUP2 MSTORE POP PUSH1 0x40 MLOAD DUP1 PUSH1 0x40 ADD PUSH1 0x40 MSTORE DUP1 PUSH1 0x5 DUP2 MSTORE PUSH1 0x20 ADD PUSH5 0x1051D15395 PUSH1 0xDA SHL DUP2 MSTORE POP DUP2 PUSH0 SWAP1 DUP2 PUSH2 0xB4 SWAP2 SWAP1 PUSH2 0x308 JUMP JUMPDEST POP PUSH1 0x1 PUSH2 0xC1 DUP3 DUP3 PUSH2 0x308 JUMP JUMPDEST POP POP POP PUSH1 0x1 PUSH1 0x1 PUSH1 0xA0 SHL SUB DUP2 AND PUSH2 0xF2 JUMPI PUSH1 0x40 MLOAD PUSH4 0x1E4FBDF7 PUSH1 0xE0 SHL DUP2 MSTORE PUSH0 PUSH1 0x4 DUP3 ADD MSTORE PUSH1 0x24 ADD JUMPDEST PUSH1 0x40 MLOAD DUP1 SWAP2 SUB SWAP1 REVERT JUMPDEST PUSH2 0xFB DUP2 PUSH2 0x1B0 JUMP JUMPDEST POP PUSH2 0x107 DUP3 PUSH1 0x8 PUSH2 0x201 JUMP JUMPDEST PUSH2 0x120 MSTORE PUSH2 0x116 DUP2 PUSH1 0x9 PUSH2 0x201 JUMP JUMPDEST PUSH2 0x140 MSTORE DUP2 MLOAD PUSH1 0x20 DUP1 DUP5 ADD SWAP2 SWAP1 SWAP2 KECCAK256 PUSH1 0xE0 MSTORE DUP2 MLOAD SWAP1 DUP3 ADD KECCAK256 PUSH2 0x100 MSTORE CHAINID PUSH1 0xA0 MSTORE PUSH2 0x1A2 PUSH1 0xE0 MLOAD PUSH2 0x100 MLOAD PUSH1 0x40 DUP1 MLOAD PUSH32 0x8B73C3C69BB8FE3D512ECC4CF759CC79239F7B179B0FFACAA9A75D522B39400F PUSH1 0x20 DUP3 ADD MSTORE SWAP1 DUP2 ADD SWAP3 SWAP1 SWAP3 MSTORE PUSH1 0x60 DUP3 ADD MSTORE CHAINID PUSH1 0x80 DUP3 ADD MSTORE ADDRESS PUSH1 0xA0 DUP3 ADD MSTORE PUSH0 SWAP1 PUSH1 0xC0 ADD PUSH1 0x40 MLOAD PUSH1 0x20 DUP2 DUP4 SUB SUB DUP2 MSTORE SWAP1 PUSH1 0x40 MSTORE DUP1 MLOAD SWAP1 PUSH1 0x20 ADD KECCAK256 SWAP1 POP SWAP1 JUMP JUMPDEST PUSH1 0x80 MSTORE POP POP ADDRESS PUSH1 0xC0 MSTORE PUSH2 0x41A JUMP JUMPDEST PUSH1 0x7 DUP1 SLOAD PUSH1 0x1 PUSH1 0x1 PUSH1 0xA0 SHL SUB DUP4 DUP2 AND PUSH1 0x1 PUSH1 0x1 PUSH1 0xA0 SHL SUB NOT DUP4 AND DUP2 OR SWAP1 SWAP4 SSTORE PUSH1 0x40 MLOAD SWAP2 AND SWAP2 SWAP1 DUP3 SWAP1 PUSH32 0x8BE0079C531659141344CD1FD0A4F28419497F9722A3DAAFE3B4186F6B6457E0 SWAP1 PUSH0 SWAP1 LOG3 POP POP JUMP JUMPDEST PUSH0 PUSH1 0x20 DUP4 MLOAD LT ISZERO PUSH2 0x21C JUMPI PUSH2 0x215 DUP4 PUSH2 0x233 JUMP JUMPDEST SWAP1 POP PUSH2 0x22D JUMP JUMPDEST DUP2 PUSH2 0x227 DUP5 DUP3 PUSH2 0x308 JUMP JUMPDEST POP PUSH1 0xFF SWAP1 POP JUMPDEST SWAP3 SWAP2 POP POP JUMP JUMPDEST PUSH0 PUSH0 DUP3 SWAP1 POP PUSH1 0x1F DUP2 MLOAD GT ISZERO PUSH2 0x25D JUMPI DUP3 PUSH1 0x40 MLOAD PUSH4 0x305A27A9 PUSH1 0xE0 SHL DUP2 MSTORE PUSH1 0x4 ADD PUSH2 0xE9 SWAP2 SWAP1 PUSH2 0x3C2 JUMP JUMPDEST DUP1 MLOAD PUSH2 0x268 DUP3 PUSH2 0x3F7 JUMP JUMPDEST OR SWAP4 SWAP3 POP POP POP JUMP JUMPDEST PUSH4 0x4E487B71 PUSH1 0xE0 SHL PUSH0 MSTORE PUSH1 0x41 PUSH1 0x4 MSTORE PUSH1 0x24 PUSH0 REVERT JUMPDEST PUSH1 0x1 DUP2 DUP2 SHR SWAP1 DUP3 AND DUP1 PUSH2 0x298 JUMPI PUSH1 0x7F DUP3 AND SWAP2 POP JUMPDEST PUSH1 0x20 DUP3 LT DUP2 SUB PUSH2 0x2B6 JUMPI PUSH4 0x4E487B71 PUSH1 0xE0 SHL PUSH0 MSTORE PUSH1 0x22 PUSH1 0x4 MSTORE PUSH1 0x24 PUSH0 REVERT JUMPDEST POP SWAP2 SWAP1 POP JUMP JUMPDEST PUSH1 0x1F DUP3 GT ISZERO PUSH2 0x303 JUMPI DUP1 PUSH0 MSTORE PUSH1 0x20 PUSH0 KECCAK256 PUSH1 0x1F DUP5 ADD PUSH1 0x5 SHR DUP2 ADD PUSH1 0x20 DUP6 LT ISZERO PUSH2 0x2E1 JUMPI POP DUP1 JUMPDEST PUSH1 0x1F DUP5 ADD PUSH1 0x5 SHR DUP3 ADD SWAP2 POP JUMPDEST DUP2 DUP2 LT ISZERO PUSH2 0x300 JUMPI PUSH0 DUP2 SSTORE PUSH1 0x1 ADD PUSH2 0x2ED JUMP JUMPDEST POP POP JUMPDEST POP POP POP JUMP JUMPDEST DUP2 MLOAD PUSH1 0x1 PUSH1 0x1 PUSH1 0x40 SHL SUB DUP2 GT ISZERO PUSH2 0x321 JUMPI PUSH2 0x321 PUSH2 0x270 JUMP JUMPDEST PUSH2 0x335 DUP2 PUSH2 0x32F DUP5 SLOAD PUSH2 0x284 JUMP JUMPDEST DUP5 PUSH2 0x2BC JUMP JUMPDEST PUSH1 0x20 PUSH1 0x1F DUP3 GT PUSH1 0x1 DUP2 EQ PUSH2 0x367 JUMPI PUSH0 DUP4 ISZERO PUSH2 0x350 JUMPI POP DUP5 DUP3 ADD MLOAD JUMPDEST PUSH0 NOT PUSH1 0x3 DUP6 SWAP1 SHL SHR NOT AND PUSH1 0x1 DUP5 SWAP1 SHL OR DUP5 SSTORE PUSH2 0x300 JUMP JUMPDEST PUSH0 DUP5 DUP2 MSTORE PUSH1 0x20 DUP2 KECCAK256 PUSH1 0x1F NOT DUP6 AND SWAP2 JUMPDEST DUP3 DUP2 LT ISZERO PUSH2 0x396 JUMPI DUP8 DUP6 ADD MLOAD DUP3 SSTORE PUSH1 0x20 SWAP5 DUP6 ADD SWAP5 PUSH1 0x1 SWAP1 SWAP3 ADD SWAP2 ADD PUSH2 0x376 JUMP JUMPDEST POP DUP5 DUP3 LT ISZERO PUSH2 0x3B3 JUMPI DUP7 DUP5 ADD MLOAD PUSH0 NOT PUSH1 0x3 DUP8 SWAP1 SHL PUSH1 0xF8 AND SHR NOT AND DUP2 SSTORE JUMPDEST POP POP POP POP PUSH1 0x1 SWAP1 DUP2 SHL ADD SWAP1 SSTORE POP JUMP JUMPDEST PUSH1 0x20 DUP2 MSTORE PUSH0 DUP3 MLOAD DUP1 PUSH1 0x20 DUP5 ADD MSTORE DUP1 PUSH1 0x20 DUP6 ADD PUSH1 0x40 DUP6 ADD MCOPY PUSH0 PUSH1 0x40 DUP3 DUP6 ADD ADD MSTORE PUSH1 0x40 PUSH1 0x1F NOT PUSH1 0x1F DUP4 ADD AND DUP5 ADD ADD SWAP2 POP POP SWAP3 SWAP2 POP POP JUMP JUMPDEST DUP1 MLOAD PUSH1 0x20 DUP1 DUP4 ADD MLOAD SWAP2 SWAP1 DUP2 LT ISZERO PUSH2 0x2B6 JUMPI PUSH0 NOT PUSH1 0x20 SWAP2 SWAP1 SWAP2 SUB PUSH1 0x3 SHL SHL AND SWAP2 SWAP1 POP JUMP JUMPDEST PUSH1 0x80 MLOAD PUSH1 0xA0 MLOAD PUSH1 0xC0 MLOAD PUSH1 0xE0 MLOAD PUSH2 0x100 MLOAD PUSH2 0x120 MLOAD PUSH2 0x140 MLOAD PUSH2 0x2AA1 PUSH2 0x46B PUSH0 CODECOPY PUSH0 PUSH2 0x177C ADD MSTORE PUSH0 PUSH2 0x174A ADD MSTORE PUSH0 PUSH2 0x1D09 ADD MSTORE PUSH0 PUSH2 0x1CE1 ADD MSTORE PUSH0 PUSH2 0x1C3C ADD MSTORE PUSH0 PUSH2 0x1C66 ADD MSTORE PUSH0 PUSH2 0x1C90 ADD MSTORE PUSH2 0x2AA1 PUSH0 RETURN INVALID PUSH1 0x80 PUSH1 0x40 MSTORE CALLVALUE DUP1 ISZERO PUSH2 0xF JUMPI PUSH0 PUSH0 REVERT JUMPDEST POP PUSH1 0x4 CALLDATASIZE LT PUSH2 0x1C5 JUMPI PUSH0 CALLDATALOAD PUSH1 0xE0 SHR DUP1 PUSH4 0x715018A6 GT PUSH2 0xFE JUMPI DUP1 PUSH4 0xB88D4FDE GT PUSH2 0x9E JUMPI DUP1 PUSH4 0xD95E72BE GT PUSH2 0x6E JUMPI DUP1 PUSH4 0xD95E72BE EQ PUSH2 0x3E2 JUMPI DUP1 PUSH4 0xE985E9C5 EQ PUSH2 0x3F5 JUMPI DUP1 PUSH4 0xF2C298BE EQ PUSH2 0x408 JUMPI DUP1 PUSH4 0xF2FDE38B EQ PUSH2 0x41B JUMPI PUSH0 PUSH0 REVERT JUMPDEST DUP1 PUSH4 0xB88D4FDE EQ PUSH2 0x396 JUMPI DUP1 PUSH4 0xBA904EED EQ PUSH2 0x3A9 JUMPI DUP1 PUSH4 0xC87B56DD EQ PUSH2 0x3BC JUMPI DUP1 PUSH4 0xCB4799F2 EQ PUSH2 0x3CF JUMPI PUSH0 PUSH0 REVERT JUMPDEST DUP1 PUSH4 0x8DA5CB5B GT PUSH2 0xD9 JUMPI DUP1 PUSH4 0x8DA5CB5B EQ PUSH2 0x357 JUMPI DUP1 PUSH4 0x95D89B41 EQ PUSH2 0x368 JUMPI DUP1 PUSH4 0xA22CB465 EQ PUSH2 0x370 JUMPI DUP1 PUSH4 0xAF92A693 EQ PUSH2 0x383 JUMPI PUSH0 PUSH0 REVERT JUMPDEST DUP1 PUSH4 0x715018A6 EQ PUSH2 0x312 JUMPI DUP1 PUSH4 0x84B0196E EQ PUSH2 0x31A JUMPI DUP1 PUSH4 0x89AECA76 EQ PUSH2 0x335 JUMPI PUSH0 PUSH0 REVERT JUMPDEST DUP1 PUSH4 0x2D1EF5AE GT PUSH2 0x169 JUMPI DUP1 PUSH4 0x466648DA GT PUSH2 0x144 JUMPI DUP1 PUSH4 0x466648DA EQ PUSH2 0x2B8 JUMPI DUP1 PUSH4 0x498163FD EQ PUSH2 0x2CB JUMPI DUP1 PUSH4 0x6352211E EQ PUSH2 0x2EC JUMPI DUP1 PUSH4 0x70A08231 EQ PUSH2 0x2FF JUMPI PUSH0 PUSH0 REVERT JUMPDEST DUP1 PUSH4 0x2D1EF5AE EQ PUSH2 0x27F JUMPI DUP1 PUSH4 0x3FDDCF19 EQ PUSH2 0x292 JUMPI DUP1 PUSH4 0x42842E0E EQ PUSH2 0x2A5 JUMPI PUSH0 PUSH0 REVERT JUMPDEST DUP1 PUSH4 0x81812FC GT PUSH2 0x1A4 JUMPI DUP1 PUSH4 0x81812FC EQ PUSH2 0x231 JUMPI DUP1 PUSH4 0x95EA7B3 EQ PUSH2 0x244 JUMPI DUP1 PUSH4 0xAF28BD3 EQ PUSH2 0x259 JUMPI DUP1 PUSH4 0x23B872DD EQ PUSH2 0x26C JUMPI PUSH0 PUSH0 REVERT JUMPDEST DUP1 PUSH3 0x339509 EQ PUSH2 0x1C9 JUMPI DUP1 PUSH4 0x1FFC9A7 EQ PUSH2 0x1F9 JUMPI DUP1 PUSH4 0x6FDDE03 EQ PUSH2 0x21C JUMPI JUMPDEST PUSH0 PUSH0 REVERT JUMPDEST PUSH2 0x1DC PUSH2 0x1D7 CALLDATASIZE PUSH1 0x4 PUSH2 0x2170 JUMP JUMPDEST PUSH2 0x42E JUMP JUMPDEST PUSH1 0x40 MLOAD PUSH1 0x1 PUSH1 0x1 PUSH1 0xA0 SHL SUB SWAP1 SWAP2 AND DUP2 MSTORE PUSH1 0x20 ADD JUMPDEST PUSH1 0x40 MLOAD DUP1 SWAP2 SUB SWAP1 RETURN JUMPDEST PUSH2 0x20C PUSH2 0x207 CALLDATASIZE PUSH1 0x4 PUSH2 0x219C JUMP JUMPDEST PUSH2 0x4F5 JUMP JUMPDEST PUSH1 0x40 MLOAD SWAP1 ISZERO ISZERO DUP2 MSTORE PUSH1 0x20 ADD PUSH2 0x1F0 JUMP JUMPDEST PUSH2 0x224 PUSH2 0x51F JUMP JUMPDEST PUSH1 0x40 MLOAD PUSH2 0x1F0 SWAP2 SWAP1 PUSH2 0x21E5 JUMP JUMPDEST PUSH2 0x1DC PUSH2 0x23F CALLDATASIZE PUSH1 0x4 PUSH2 0x2170 JUMP JUMPDEST PUSH2 0x5AE JUMP JUMPDEST PUSH2 0x257 PUSH2 0x252 CALLDATASIZE PUSH1 0x4 PUSH2 0x2212 JUMP JUMPDEST PUSH2 0x5D5 JUMP JUMPDEST STOP JUMPDEST PUSH2 0x257 PUSH2 0x267 CALLDATASIZE PUSH1 0x4 PUSH2 0x227E JUMP JUMPDEST PUSH2 0x5E4 JUMP JUMPDEST PUSH2 0x257 PUSH2 0x27A CALLDATASIZE PUSH1 0x4 PUSH2 0x22C5 JUMP JUMPDEST PUSH2 0x6DE JUMP JUMPDEST PUSH2 0x257 PUSH2 0x28D CALLDATASIZE PUSH1 0x4 PUSH2 0x22FF JUMP JUMPDEST PUSH2 0x767 JUMP JUMPDEST PUSH2 0x257 PUSH2 0x2A0 CALLDATASIZE PUSH1 0x4 PUSH2 0x2170 JUMP JUMPDEST PUSH2 0xB61 JUMP JUMPDEST PUSH2 0x257 PUSH2 0x2B3 CALLDATASIZE PUSH1 0x4 PUSH2 0x22C5 JUMP JUMPDEST PUSH2 0xC4B JUMP JUMPDEST PUSH2 0x257 PUSH2 0x2C6 CALLDATASIZE PUSH1 0x4 PUSH2 0x2404 JUMP JUMPDEST PUSH2 0xC6A JUMP JUMPDEST PUSH2 0x2DE PUSH2 0x2D9 CALLDATASIZE PUSH1 0x4 PUSH2 0x246F JUMP JUMPDEST PUSH2 0xDA8 JUMP JUMPDEST PUSH1 0x40 MLOAD SWAP1 DUP2 MSTORE PUSH1 0x20 ADD PUSH2 0x1F0 JUMP JUMPDEST PUSH2 0x1DC PUSH2 0x2FA CALLDATASIZE PUSH1 0x4 PUSH2 0x2170 JUMP JUMPDEST PUSH2 0xF67 JUMP JUMPDEST PUSH2 0x2DE PUSH2 0x30D CALLDATASIZE PUSH1 0x4 PUSH2 0x24B9 JUMP JUMPDEST PUSH2 0xF71 JUMP JUMPDEST PUSH2 0x257 PUSH2 0xFB6 JUMP JUMPDEST PUSH2 0x322 PUSH2 0xFC9 JUMP JUMPDEST PUSH1 0x40 MLOAD PUSH2 0x1F0 SWAP8 SWAP7 SWAP6 SWAP5 SWAP4 SWAP3 SWAP2 SWAP1 PUSH2 0x24D2 JUMP JUMPDEST PUSH2 0x20C PUSH2 0x343 CALLDATASIZE PUSH1 0x4 PUSH2 0x24B9 JUMP JUMPDEST PUSH1 0xC PUSH1 0x20 MSTORE PUSH0 SWAP1 DUP2 MSTORE PUSH1 0x40 SWAP1 KECCAK256 SLOAD PUSH1 0xFF AND DUP2 JUMP JUMPDEST PUSH1 0x7 SLOAD PUSH1 0x1 PUSH1 0x1 PUSH1 0xA0 SHL SUB AND PUSH2 0x1DC JUMP JUMPDEST PUSH2 0x224 PUSH2 0x100B JUMP JUMPDEST PUSH2 0x257 PUSH2 0x37E CALLDATASIZE PUSH1 0x4 PUSH2 0x2568 JUMP JUMPDEST PUSH2 0x101A JUMP JUMPDEST PUSH2 0x257 PUSH2 0x391 CALLDATASIZE PUSH1 0x4 PUSH2 0x24B9 JUMP JUMPDEST PUSH2 0x1025 JUMP JUMPDEST PUSH2 0x257 PUSH2 0x3A4 CALLDATASIZE PUSH1 0x4 PUSH2 0x25A1 JUMP JUMPDEST PUSH2 0x10C0 JUMP JUMPDEST PUSH2 0x257 PUSH2 0x3B7 CALLDATASIZE PUSH1 0x4 PUSH2 0x24B9 JUMP JUMPDEST PUSH2 0x10D8 JUMP JUMPDEST PUSH2 0x224 PUSH2 0x3CA CALLDATASIZE PUSH1 0x4 PUSH2 0x2170 JUMP JUMPDEST PUSH2 0x1128 JUMP JUMPDEST PUSH2 0x224 PUSH2 0x3DD CALLDATASIZE PUSH1 0x4 PUSH2 0x2604 JUMP JUMPDEST PUSH2 0x1233 JUMP JUMPDEST PUSH2 0x20C PUSH2 0x3F0 CALLDATASIZE PUSH1 0x4 PUSH2 0x2212 JUMP JUMPDEST PUSH2 0x12F1 JUMP JUMPDEST PUSH2 0x20C PUSH2 0x403 CALLDATASIZE PUSH1 0x4 PUSH2 0x2631 JUMP JUMPDEST PUSH2 0x1309 JUMP JUMPDEST PUSH2 0x2DE PUSH2 0x416 CALLDATASIZE PUSH1 0x4 PUSH2 0x2662 JUMP JUMPDEST PUSH2 0x1336 JUMP JUMPDEST PUSH2 0x257 PUSH2 0x429 CALLDATASIZE PUSH1 0x4 PUSH2 0x24B9 JUMP JUMPDEST PUSH2 0x1451 JUMP JUMPDEST PUSH0 DUP2 DUP2 MSTORE PUSH1 0xB PUSH1 0x20 MSTORE PUSH1 0x40 DUP1 DUP3 KECCAK256 SWAP1 MLOAD DUP3 SWAP2 SWAP1 PUSH2 0x44A SWAP1 PUSH2 0x2693 JUMP JUMPDEST SWAP1 DUP2 MSTORE PUSH1 0x20 ADD PUSH1 0x40 MLOAD DUP1 SWAP2 SUB SWAP1 KECCAK256 DUP1 SLOAD PUSH2 0x463 SWAP1 PUSH2 0x26AA JUMP JUMPDEST DUP1 PUSH1 0x1F ADD PUSH1 0x20 DUP1 SWAP2 DIV MUL PUSH1 0x20 ADD PUSH1 0x40 MLOAD SWAP1 DUP2 ADD PUSH1 0x40 MSTORE DUP1 SWAP3 SWAP2 SWAP1 DUP2 DUP2 MSTORE PUSH1 0x20 ADD DUP3 DUP1 SLOAD PUSH2 0x48F SWAP1 PUSH2 0x26AA JUMP JUMPDEST DUP1 ISZERO PUSH2 0x4DA JUMPI DUP1 PUSH1 0x1F LT PUSH2 0x4B1 JUMPI PUSH2 0x100 DUP1 DUP4 SLOAD DIV MUL DUP4 MSTORE SWAP2 PUSH1 0x20 ADD SWAP2 PUSH2 0x4DA JUMP JUMPDEST DUP3 ADD SWAP2 SWAP1 PUSH0 MSTORE PUSH1 0x20 PUSH0 KECCAK256 SWAP1 JUMPDEST DUP2 SLOAD DUP2 MSTORE SWAP1 PUSH1 0x1 ADD SWAP1 PUSH1 0x20 ADD DUP1 DUP4 GT PUSH2 0x4BD JUMPI DUP3 SWAP1 SUB PUSH1 0x1F AND DUP3 ADD SWAP2 JUMPDEST POP POP POP POP POP SWAP1 POP DUP1 PUSH2 0x4EB SWAP1 PUSH2 0x26E2 JUMP JUMPDEST PUSH1 0x60 SHR SWAP4 SWAP3 POP POP POP JUMP JUMPDEST PUSH0 PUSH1 0x1 PUSH1 0x1 PUSH1 0xE0 SHL SUB NOT DUP3 AND PUSH4 0x24832483 PUSH1 0xE1 SHL EQ DUP1 PUSH2 0x519 JUMPI POP PUSH2 0x519 DUP3 PUSH2 0x148E JUMP JUMPDEST SWAP3 SWAP2 POP POP JUMP JUMPDEST PUSH1 0x60 PUSH0 DUP1 SLOAD PUSH2 0x52D SWAP1 PUSH2 0x26AA JUMP JUMPDEST DUP1 PUSH1 0x1F ADD PUSH1 0x20 DUP1 SWAP2 DIV MUL PUSH1 0x20 ADD PUSH1 0x40 MLOAD SWAP1 DUP2 ADD PUSH1 0x40 MSTORE DUP1 SWAP3 SWAP2 SWAP1 DUP2 DUP2 MSTORE PUSH1 0x20 ADD DUP3 DUP1 SLOAD PUSH2 0x559 SWAP1 PUSH2 0x26AA JUMP JUMPDEST DUP1 ISZERO PUSH2 0x5A4 JUMPI DUP1 PUSH1 0x1F LT PUSH2 0x57B JUMPI PUSH2 0x100 DUP1 DUP4 SLOAD DIV MUL DUP4 MSTORE SWAP2 PUSH1 0x20 ADD SWAP2 PUSH2 0x5A4 JUMP JUMPDEST DUP3 ADD SWAP2 SWAP1 PUSH0 MSTORE PUSH1 0x20 PUSH0 KECCAK256 SWAP1 JUMPDEST DUP2 SLOAD DUP2 MSTORE SWAP1 PUSH1 0x1 ADD SWAP1 PUSH1 0x20 ADD DUP1 DUP4 GT PUSH2 0x587 JUMPI DUP3 SWAP1 SUB PUSH1 0x1F AND DUP3 ADD SWAP2 JUMPDEST POP POP POP POP POP SWAP1 POP SWAP1 JUMP JUMPDEST PUSH0 PUSH2 0x5B8 DUP3 PUSH2 0x14DD JUMP JUMPDEST POP PUSH0 DUP3 DUP2 MSTORE PUSH1 0x4 PUSH1 0x20 MSTORE PUSH1 0x40 SWAP1 KECCAK256 SLOAD PUSH1 0x1 PUSH1 0x1 PUSH1 0xA0 SHL SUB AND PUSH2 0x519 JUMP JUMPDEST PUSH2 0x5E0 DUP3 DUP3 CALLER PUSH2 0x1515 JUMP JUMPDEST POP POP JUMP JUMPDEST PUSH0 PUSH2 0x5EE DUP5 PUSH2 0xF67 JUMP JUMPDEST SWAP1 POP CALLER PUSH1 0x1 PUSH1 0x1 PUSH1 0xA0 SHL SUB DUP3 AND EQ DUP1 PUSH2 0x60C JUMPI POP PUSH2 0x60C DUP2 CALLER PUSH2 0x1309 JUMP JUMPDEST DUP1 PUSH2 0x630 JUMPI POP PUSH2 0x61B DUP5 PUSH2 0x5AE JUMP JUMPDEST PUSH1 0x1 PUSH1 0x1 PUSH1 0xA0 SHL SUB AND CALLER PUSH1 0x1 PUSH1 0x1 PUSH1 0xA0 SHL SUB AND EQ JUMPDEST PUSH2 0x655 JUMPI PUSH1 0x40 MLOAD PUSH3 0x461BCD PUSH1 0xE5 SHL DUP2 MSTORE PUSH1 0x4 ADD PUSH2 0x64C SWAP1 PUSH2 0x2735 JUMP JUMPDEST PUSH1 0x40 MLOAD DUP1 SWAP2 SUB SWAP1 REVERT JUMPDEST PUSH2 0x694 DUP5 DUP5 DUP5 DUP1 DUP1 PUSH1 0x1F ADD PUSH1 0x20 DUP1 SWAP2 DIV MUL PUSH1 0x20 ADD PUSH1 0x40 MLOAD SWAP1 DUP2 ADD PUSH1 0x40 MSTORE DUP1 SWAP4 SWAP3 SWAP2 SWAP1 DUP2 DUP2 MSTORE PUSH1 0x20 ADD DUP4 DUP4 DUP1 DUP3 DUP5 CALLDATACOPY PUSH0 SWAP3 ADD SWAP2 SWAP1 SWAP2 MSTORE POP PUSH2 0x1522 SWAP3 POP POP POP JUMP JUMPDEST CALLER PUSH1 0x1 PUSH1 0x1 PUSH1 0xA0 SHL SUB AND DUP5 PUSH32 0x3A2C7FFFC2CBA7582C690E3B82C453EA02A308326A98A3AD7576C606336409FB DUP6 DUP6 PUSH1 0x40 MLOAD PUSH2 0x6D0 SWAP3 SWAP2 SWAP1 PUSH2 0x2785 JUMP JUMPDEST PUSH1 0x40 MLOAD DUP1 SWAP2 SUB SWAP1 LOG3 POP POP POP POP JUMP JUMPDEST PUSH1 0x1 PUSH1 0x1 PUSH1 0xA0 SHL SUB DUP3 AND PUSH2 0x707 JUMPI PUSH1 0x40 MLOAD PUSH4 0x32505749 PUSH1 0xE1 SHL DUP2 MSTORE PUSH0 PUSH1 0x4 DUP3 ADD MSTORE PUSH1 0x24 ADD PUSH2 0x64C JUMP JUMPDEST PUSH0 PUSH2 0x713 DUP4 DUP4 CALLER PUSH2 0x1571 JUMP JUMPDEST SWAP1 POP DUP4 PUSH1 0x1 PUSH1 0x1 PUSH1 0xA0 SHL SUB AND DUP2 PUSH1 0x1 PUSH1 0x1 PUSH1 0xA0 SHL SUB AND EQ PUSH2 0x761 JUMPI PUSH1 0x40 MLOAD PUSH4 0x64283D7B PUSH1 0xE0 SHL DUP2 MSTORE PUSH1 0x1 PUSH1 0x1 PUSH1 0xA0 SHL SUB DUP1 DUP7 AND PUSH1 0x4 DUP4 ADD MSTORE PUSH1 0x24 DUP3 ADD DUP5 SWAP1 MSTORE DUP3 AND PUSH1 0x44 DUP3 ADD MSTORE PUSH1 0x64 ADD PUSH2 0x64C JUMP JUMPDEST POP POP POP POP JUMP JUMPDEST PUSH0 PUSH2 0x771 DUP7 PUSH2 0xF67 JUMP JUMPDEST SWAP1 POP CALLER PUSH1 0x1 PUSH1 0x1 PUSH1 0xA0 SHL SUB DUP3 AND EQ DUP1 PUSH2 0x78F JUMPI POP PUSH2 0x78F DUP2 CALLER PUSH2 0x1309 JUMP JUMPDEST DUP1 PUSH2 0x7B3 JUMPI POP PUSH2 0x79E DUP7 PUSH2 0x5AE JUMP JUMPDEST PUSH1 0x1 PUSH1 0x1 PUSH1 0xA0 SHL SUB AND CALLER PUSH1 0x1 PUSH1 0x1 PUSH1 0xA0 SHL SUB AND EQ JUMPDEST PUSH2 0x7CF JUMPI PUSH1 0x40 MLOAD PUSH3 0x461BCD PUSH1 0xE5 SHL DUP2 MSTORE PUSH1 0x4 ADD PUSH2 0x64C SWAP1 PUSH2 0x2735 JUMP JUMPDEST PUSH1 0x1 PUSH1 0x1 PUSH1 0xA0 SHL SUB DUP6 AND PUSH2 0x812 JUMPI PUSH1 0x40 MLOAD PUSH3 0x461BCD PUSH1 0xE5 SHL DUP2 MSTORE PUSH1 0x20 PUSH1 0x4 DUP3 ADD MSTORE PUSH1 0xA PUSH1 0x24 DUP3 ADD MSTORE PUSH10 0x189859081DD85B1B195D PUSH1 0xB2 SHL PUSH1 0x44 DUP3 ADD MSTORE PUSH1 0x64 ADD PUSH2 0x64C JUMP JUMPDEST DUP4 TIMESTAMP GT ISZERO PUSH2 0x84C JUMPI PUSH1 0x40 MLOAD PUSH3 0x461BCD PUSH1 0xE5 SHL DUP2 MSTORE PUSH1 0x20 PUSH1 0x4 DUP3 ADD MSTORE PUSH1 0x7 PUSH1 0x24 DUP3 ADD MSTORE PUSH7 0x195E1C1A5C9959 PUSH1 0xCA SHL PUSH1 0x44 DUP3 ADD MSTORE PUSH1 0x64 ADD PUSH2 0x64C JUMP JUMPDEST PUSH2 0x858 PUSH2 0x12C TIMESTAMP PUSH2 0x27AC JUMP JUMPDEST DUP5 GT ISZERO PUSH2 0x89A JUMPI PUSH1 0x40 MLOAD PUSH3 0x461BCD PUSH1 0xE5 SHL DUP2 MSTORE PUSH1 0x20 PUSH1 0x4 DUP3 ADD MSTORE PUSH1 0x10 PUSH1 0x24 DUP3 ADD MSTORE PUSH16 0x3232B0B23634B732903A37B7903330B9 PUSH1 0x81 SHL PUSH1 0x44 DUP3 ADD MSTORE PUSH1 0x64 ADD PUSH2 0x64C JUMP JUMPDEST PUSH1 0x40 DUP1 MLOAD PUSH32 0x678B53CD718D595370AB070EBF48EDFDCD834BEAC116BF23E625FC7F4D5B7D32 PUSH1 0x20 DUP3 ADD MSTORE SWAP1 DUP2 ADD DUP8 SWAP1 MSTORE PUSH1 0x1 PUSH1 0x1 PUSH1 0xA0 SHL SUB DUP1 DUP8 AND PUSH1 0x60 DUP4 ADD MSTORE DUP3 AND PUSH1 0x80 DUP3 ADD MSTORE PUSH1 0xA0 DUP2 ADD DUP6 SWAP1 MSTORE PUSH0 SWAP1 PUSH1 0xC0 ADD PUSH1 0x40 MLOAD PUSH1 0x20 DUP2 DUP4 SUB SUB DUP2 MSTORE SWAP1 PUSH1 0x40 MSTORE DUP1 MLOAD SWAP1 PUSH1 0x20 ADD KECCAK256 SWAP1 POP PUSH0 PUSH2 0x90F DUP3 PUSH2 0x1637 JUMP JUMPDEST SWAP1 POP PUSH0 PUSH0 PUSH2 0x952 DUP4 DUP9 DUP9 DUP1 DUP1 PUSH1 0x1F ADD PUSH1 0x20 DUP1 SWAP2 DIV MUL PUSH1 0x20 ADD PUSH1 0x40 MLOAD SWAP1 DUP2 ADD PUSH1 0x40 MSTORE DUP1 SWAP4 SWAP3 SWAP2 SWAP1 DUP2 DUP2 MSTORE PUSH1 0x20 ADD DUP4 DUP4 DUP1 DUP3 DUP5 CALLDATACOPY PUSH0 SWAP3 ADD SWAP2 SWAP1 SWAP2 MSTORE POP PUSH2 0x1663 SWAP3 POP POP POP JUMP JUMPDEST POP SWAP1 SWAP3 POP SWAP1 POP PUSH0 DUP2 PUSH1 0x3 DUP2 GT ISZERO PUSH2 0x96B JUMPI PUSH2 0x96B PUSH2 0x27BF JUMP JUMPDEST EQ ISZERO DUP1 PUSH2 0x98A JUMPI POP DUP9 PUSH1 0x1 PUSH1 0x1 PUSH1 0xA0 SHL SUB AND DUP3 PUSH1 0x1 PUSH1 0x1 PUSH1 0xA0 SHL SUB AND EQ ISZERO JUMPDEST ISZERO PUSH2 0xAAB JUMPI PUSH0 PUSH0 DUP11 PUSH1 0x1 PUSH1 0x1 PUSH1 0xA0 SHL SUB AND DUP6 DUP11 DUP11 PUSH1 0x40 MLOAD PUSH1 0x24 ADD PUSH2 0x9B0 SWAP4 SWAP3 SWAP2 SWAP1 PUSH2 0x27D3 JUMP JUMPDEST PUSH1 0x40 DUP1 MLOAD PUSH1 0x1F NOT DUP2 DUP5 SUB ADD DUP2 MSTORE SWAP2 DUP2 MSTORE PUSH1 0x20 DUP3 ADD DUP1 MLOAD PUSH1 0x1 PUSH1 0x1 PUSH1 0xE0 SHL SUB AND PUSH4 0xB135D3F PUSH1 0xE1 SHL OR SWAP1 MSTORE MLOAD PUSH2 0x9E5 SWAP2 SWAP1 PUSH2 0x2803 JUMP JUMPDEST PUSH0 PUSH1 0x40 MLOAD DUP1 DUP4 SUB DUP2 DUP6 GAS STATICCALL SWAP2 POP POP RETURNDATASIZE DUP1 PUSH0 DUP2 EQ PUSH2 0xA1D JUMPI PUSH1 0x40 MLOAD SWAP2 POP PUSH1 0x1F NOT PUSH1 0x3F RETURNDATASIZE ADD AND DUP3 ADD PUSH1 0x40 MSTORE RETURNDATASIZE DUP3 MSTORE RETURNDATASIZE PUSH0 PUSH1 0x20 DUP5 ADD RETURNDATACOPY PUSH2 0xA22 JUMP JUMPDEST PUSH1 0x60 SWAP2 POP JUMPDEST POP SWAP2 POP SWAP2 POP DUP2 DUP1 ISZERO PUSH2 0xA36 JUMPI POP PUSH1 0x20 DUP2 MLOAD LT ISZERO JUMPDEST DUP1 ISZERO PUSH2 0xA67 JUMPI POP DUP1 MLOAD PUSH4 0xB135D3F PUSH1 0xE1 SHL SWAP1 PUSH2 0xA5B SWAP1 DUP4 ADD PUSH1 0x20 SWAP1 DUP2 ADD SWAP1 DUP5 ADD PUSH2 0x280E JUMP JUMPDEST PUSH1 0x1 PUSH1 0x1 PUSH1 0xE0 SHL SUB NOT AND EQ JUMPDEST PUSH2 0xAA8 JUMPI PUSH1 0x40 MLOAD PUSH3 0x461BCD PUSH1 0xE5 SHL DUP2 MSTORE PUSH1 0x20 PUSH1 0x4 DUP3 ADD MSTORE PUSH1 0x12 PUSH1 0x24 DUP3 ADD MSTORE PUSH18 0x696E76616C69642077616C6C657420736967 PUSH1 0x70 SHL PUSH1 0x44 DUP3 ADD MSTORE PUSH1 0x64 ADD PUSH2 0x64C JUMP JUMPDEST POP POP JUMPDEST DUP9 PUSH1 0x40 MLOAD PUSH1 0x20 ADD PUSH2 0xABC SWAP2 SWAP1 PUSH2 0x2829 JUMP JUMPDEST PUSH1 0x40 DUP1 MLOAD PUSH1 0x1F NOT DUP2 DUP5 SUB ADD DUP2 MSTORE DUP3 DUP3 MSTORE PUSH0 DUP14 DUP2 MSTORE PUSH1 0xB PUSH1 0x20 MSTORE SWAP2 SWAP1 SWAP2 KECCAK256 SWAP1 SWAP2 PUSH2 0xAE4 SWAP1 PUSH2 0x2693 JUMP JUMPDEST SWAP1 DUP2 MSTORE PUSH1 0x20 ADD PUSH1 0x40 MLOAD DUP1 SWAP2 SUB SWAP1 KECCAK256 SWAP1 DUP2 PUSH2 0xAFE SWAP2 SWAP1 PUSH2 0x288A JUMP JUMPDEST POP PUSH1 0x40 MLOAD PUSH2 0xB0B SWAP1 PUSH2 0x2693 JUMP JUMPDEST PUSH1 0x40 MLOAD DUP1 SWAP2 SUB SWAP1 KECCAK256 DUP11 PUSH0 MLOAD PUSH1 0x20 PUSH2 0x2A4C PUSH0 CODECOPY PUSH0 MLOAD SWAP1 PUSH0 MSTORE DUP12 PUSH1 0x40 MLOAD PUSH1 0x20 ADD PUSH2 0xB33 SWAP2 SWAP1 PUSH2 0x2829 JUMP JUMPDEST PUSH1 0x40 DUP1 MLOAD PUSH1 0x1F NOT DUP2 DUP5 SUB ADD DUP2 MSTORE SWAP1 DUP3 SWAP1 MSTORE PUSH2 0xB4D SWAP2 PUSH2 0x2944 JUMP JUMPDEST PUSH1 0x40 MLOAD DUP1 SWAP2 SUB SWAP1 LOG3 POP POP POP POP POP POP POP POP POP POP JUMP JUMPDEST PUSH0 PUSH2 0xB6B DUP3 PUSH2 0xF67 JUMP JUMPDEST SWAP1 POP CALLER PUSH1 0x1 PUSH1 0x1 PUSH1 0xA0 SHL SUB DUP3 AND EQ DUP1 PUSH2 0xB89 JUMPI POP PUSH2 0xB89 DUP2 CALLER PUSH2 0x1309 JUMP JUMPDEST DUP1 PUSH2 0xBAD JUMPI POP PUSH2 0xB98 DUP3 PUSH2 0x5AE JUMP JUMPDEST PUSH1 0x1 PUSH1 0x1 PUSH1 0xA0 SHL SUB AND CALLER PUSH1 0x1 PUSH1 0x1 PUSH1 0xA0 SHL SUB AND EQ JUMPDEST PUSH2 0xBC9 JUMPI PUSH1 0x40 MLOAD PUSH3 0x461BCD PUSH1 0xE5 SHL DUP2 MSTORE PUSH1 0x4 ADD PUSH2 0x64C SWAP1 PUSH2 0x2735 JUMP JUMPDEST PUSH1 0x40 MLOAD DUP1 PUSH1 0x20 ADD PUSH1 0x40 MSTORE DUP1 PUSH0 DUP2 MSTORE POP PUSH1 0xB PUSH0 DUP5 DUP2 MSTORE PUSH1 0x20 ADD SWAP1 DUP2 MSTORE PUSH1 0x20 ADD PUSH0 KECCAK256 PUSH1 0x40 MLOAD PUSH2 0xBF5 SWAP1 PUSH2 0x2693 JUMP JUMPDEST SWAP1 DUP2 MSTORE PUSH1 0x20 ADD PUSH1 0x40 MLOAD DUP1 SWAP2 SUB SWAP1 KECCAK256 SWAP1 DUP2 PUSH2 0xC0F SWAP2 SWAP1 PUSH2 0x288A JUMP JUMPDEST POP PUSH1 0x40 MLOAD PUSH2 0xC1C SWAP1 PUSH2 0x2693 JUMP JUMPDEST PUSH1 0x40 MLOAD DUP1 SWAP2 SUB SWAP1 KECCAK256 DUP3 PUSH0 MLOAD PUSH1 0x20 PUSH2 0x2A4C PUSH0 CODECOPY PUSH0 MLOAD SWAP1 PUSH0 MSTORE PUSH1 0x40 MLOAD PUSH2 0xC3F SWAP1 PUSH2 0x2980 JUMP JUMPDEST PUSH1 0x40 MLOAD DUP1 SWAP2 SUB SWAP1 LOG3 POP POP JUMP JUMPDEST PUSH2 0xC65 DUP4 DUP4 DUP4 PUSH1 0x40 MLOAD DUP1 PUSH1 0x20 ADD PUSH1 0x40 MSTORE DUP1 PUSH0 DUP2 MSTORE POP PUSH2 0x10C0 JUMP JUMPDEST POP POP POP JUMP JUMPDEST PUSH0 DUP4 DUP2 MSTORE PUSH1 0x2 PUSH1 0x20 MSTORE PUSH1 0x40 SWAP1 KECCAK256 SLOAD PUSH1 0x1 PUSH1 0x1 PUSH1 0xA0 SHL SUB AND CALLER DUP2 EQ DUP1 PUSH2 0xC94 JUMPI POP PUSH2 0xC94 DUP2 CALLER PUSH2 0x1309 JUMP JUMPDEST DUP1 PUSH2 0xCB8 JUMPI POP PUSH2 0xCA3 DUP5 PUSH2 0x5AE JUMP JUMPDEST PUSH1 0x1 PUSH1 0x1 PUSH1 0xA0 SHL SUB AND CALLER PUSH1 0x1 PUSH1 0x1 PUSH1 0xA0 SHL SUB AND EQ JUMPDEST PUSH2 0xCD4 JUMPI PUSH1 0x40 MLOAD PUSH3 0x461BCD PUSH1 0xE5 SHL DUP2 MSTORE PUSH1 0x4 ADD PUSH2 0x64C SWAP1 PUSH2 0x2735 JUMP JUMPDEST DUP3 MLOAD PUSH1 0x20 DUP5 ADD KECCAK256 PUSH32 0xD539EF6CD918DF2EBCA3F2499081CA12587C60AD490E0AADF59F8771ECD4B1C7 ADD PUSH2 0xD38 JUMPI PUSH1 0x40 MLOAD PUSH3 0x461BCD PUSH1 0xE5 SHL DUP2 MSTORE PUSH1 0x20 PUSH1 0x4 DUP3 ADD MSTORE PUSH1 0xC PUSH1 0x24 DUP3 ADD MSTORE PUSH12 0x7265736572766564206B6579 PUSH1 0xA0 SHL PUSH1 0x44 DUP3 ADD MSTORE PUSH1 0x64 ADD PUSH2 0x64C JUMP JUMPDEST DUP2 PUSH1 0xB PUSH0 DUP7 DUP2 MSTORE PUSH1 0x20 ADD SWAP1 DUP2 MSTORE PUSH1 0x20 ADD PUSH0 KECCAK256 DUP5 PUSH1 0x40 MLOAD PUSH2 0xD58 SWAP2 SWAP1 PUSH2 0x2803 JUMP JUMPDEST SWAP1 DUP2 MSTORE PUSH1 0x20 ADD PUSH1 0x40 MLOAD DUP1 SWAP2 SUB SWAP1 KECCAK256 SWAP1 DUP2 PUSH2 0xD72 SWAP2 SWAP1 PUSH2 0x288A JUMP JUMPDEST POP DUP3 PUSH1 0x40 MLOAD PUSH2 0xD81 SWAP2 SWAP1 PUSH2 0x2803 JUMP JUMPDEST PUSH1 0x40 MLOAD DUP1 SWAP2 SUB SWAP1 KECCAK256 DUP5 PUSH0 MLOAD PUSH1 0x20 PUSH2 0x2A4C PUSH0 CODECOPY PUSH0 MLOAD SWAP1 PUSH0 MSTORE DUP6 DUP6 PUSH1 0x40 MLOAD PUSH2 0x6D0 SWAP3 SWAP2 SWAP1 PUSH2 0x29BF JUMP JUMPDEST CALLER PUSH0 SWAP1 DUP2 MSTORE PUSH1 0xC PUSH1 0x20 MSTORE PUSH1 0x40 DUP2 KECCAK256 SLOAD PUSH1 0xFF AND PUSH2 0xE06 JUMPI PUSH1 0x40 MLOAD PUSH3 0x461BCD PUSH1 0xE5 SHL DUP2 MSTORE PUSH1 0x20 PUSH1 0x4 DUP3 ADD MSTORE PUSH1 0x18 PUSH1 0x24 DUP3 ADD MSTORE PUSH32 0x4E6F7420617574686F72697A6564207265676973747261720000000000000000 PUSH1 0x44 DUP3 ADD MSTORE PUSH1 0x64 ADD PUSH2 0x64C JUMP JUMPDEST PUSH1 0x1 PUSH1 0x1 PUSH1 0xA0 SHL SUB DUP4 AND PUSH2 0xE4C JUMPI PUSH1 0x40 MLOAD PUSH3 0x461BCD PUSH1 0xE5 SHL DUP2 MSTORE PUSH1 0x20 PUSH1 0x4 DUP3 ADD MSTORE PUSH1 0xD PUSH1 0x24 DUP3 ADD MSTORE PUSH13 0x24B73B30B634B21037BBB732B9 PUSH1 0x99 SHL PUSH1 0x44 DUP3 ADD MSTORE PUSH1 0x64 ADD PUSH2 0x64C JUMP JUMPDEST PUSH1 0xA DUP1 SLOAD SWAP1 PUSH0 PUSH2 0xE5B DUP4 PUSH2 0x29E3 JUMP JUMPDEST SWAP2 SWAP1 POP SSTORE SWAP1 POP DUP3 PUSH1 0x40 MLOAD PUSH1 0x20 ADD PUSH2 0xE72 SWAP2 SWAP1 PUSH2 0x2829 JUMP JUMPDEST PUSH1 0x40 DUP1 MLOAD PUSH1 0x1F NOT DUP2 DUP5 SUB ADD DUP2 MSTORE DUP3 DUP3 MSTORE PUSH0 DUP5 DUP2 MSTORE PUSH1 0xB PUSH1 0x20 MSTORE SWAP2 SWAP1 SWAP2 KECCAK256 SWAP1 SWAP2 PUSH2 0xE9A SWAP1 PUSH2 0x2693 JUMP JUMPDEST SWAP1 DUP2 MSTORE PUSH1 0x20 ADD PUSH1 0x40 MLOAD DUP1 SWAP2 SUB SWAP1 KECCAK256 SWAP1 DUP2 PUSH2 0xEB4 SWAP2 SWAP1 PUSH2 0x288A JUMP JUMPDEST POP PUSH2 0xEBF DUP4 DUP3 PUSH2 0x16AC JUMP JUMPDEST PUSH2 0xEC9 DUP2 DUP4 PUSH2 0x1522 JUMP JUMPDEST DUP3 PUSH1 0x1 PUSH1 0x1 PUSH1 0xA0 SHL SUB AND DUP2 PUSH32 0xCA52E62C367D81BB2E328EB795F7C7BA24AFB478408A26C0E201D155C449BC4A DUP5 PUSH1 0x40 MLOAD PUSH2 0xF03 SWAP2 SWAP1 PUSH2 0x21E5 JUMP JUMPDEST PUSH1 0x40 MLOAD DUP1 SWAP2 SUB SWAP1 LOG3 PUSH1 0x40 MLOAD PUSH2 0xF17 SWAP1 PUSH2 0x2693 JUMP JUMPDEST PUSH1 0x40 MLOAD DUP1 SWAP2 SUB SWAP1 KECCAK256 DUP2 PUSH0 MLOAD PUSH1 0x20 PUSH2 0x2A4C PUSH0 CODECOPY PUSH0 MLOAD SWAP1 PUSH0 MSTORE DUP6 PUSH1 0x40 MLOAD PUSH1 0x20 ADD PUSH2 0xF3F SWAP2 SWAP1 PUSH2 0x2829 JUMP JUMPDEST PUSH1 0x40 DUP1 MLOAD PUSH1 0x1F NOT DUP2 DUP5 SUB ADD DUP2 MSTORE SWAP1 DUP3 SWAP1 MSTORE PUSH2 0xF59 SWAP2 PUSH2 0x2944 JUMP JUMPDEST PUSH1 0x40 MLOAD DUP1 SWAP2 SUB SWAP1 LOG3 SWAP3 SWAP2 POP POP JUMP JUMPDEST PUSH0 PUSH2 0x519 DUP3 PUSH2 0x14DD JUMP JUMPDEST PUSH0 PUSH1 0x1 PUSH1 0x1 PUSH1 0xA0 SHL SUB DUP3 AND PUSH2 0xF9B JUMPI PUSH1 0x40 MLOAD PUSH4 0x22718AD9 PUSH1 0xE2 SHL DUP2 MSTORE PUSH0 PUSH1 0x4 DUP3 ADD MSTORE PUSH1 0x24 ADD PUSH2 0x64C JUMP JUMPDEST POP PUSH1 0x1 PUSH1 0x1 PUSH1 0xA0 SHL SUB AND PUSH0 SWAP1 DUP2 MSTORE PUSH1 0x3 PUSH1 0x20 MSTORE PUSH1 0x40 SWAP1 KECCAK256 SLOAD SWAP1 JUMP JUMPDEST PUSH2 0xFBE PUSH2 0x16C5 JUMP JUMPDEST PUSH2 0xFC7 PUSH0 PUSH2 0x16F2 JUMP JUMPDEST JUMP JUMPDEST PUSH0 PUSH1 0x60 DUP1 PUSH0 PUSH0 PUSH0 PUSH1 0x60 PUSH2 0xFDA PUSH2 0x1743 JUMP JUMPDEST PUSH2 0xFE2 PUSH2 0x1775 JUMP JUMPDEST PUSH1 0x40 DUP1 MLOAD PUSH0 DUP1 DUP3 MSTORE PUSH1 0x20 DUP3 ADD SWAP1 SWAP3 MSTORE PUSH1 0xF PUSH1 0xF8 SHL SWAP12 SWAP4 SWAP11 POP SWAP2 SWAP9 POP CHAINID SWAP8 POP ADDRESS SWAP7 POP SWAP5 POP SWAP3 POP SWAP1 POP JUMP JUMPDEST PUSH1 0x60 PUSH1 0x1 DUP1 SLOAD PUSH2 0x52D SWAP1 PUSH2 0x26AA JUMP JUMPDEST PUSH2 0x5E0 CALLER DUP4 DUP4 PUSH2 0x17A2 JUMP JUMPDEST PUSH2 0x102D PUSH2 0x16C5 JUMP JUMPDEST PUSH1 0x1 PUSH1 0x1 PUSH1 0xA0 SHL SUB DUP2 AND PUSH2 0x1075 JUMPI PUSH1 0x40 MLOAD PUSH3 0x461BCD PUSH1 0xE5 SHL DUP2 MSTORE PUSH1 0x20 PUSH1 0x4 DUP3 ADD MSTORE PUSH1 0xF PUSH1 0x24 DUP3 ADD MSTORE PUSH15 0x496E76616C69642061646472657373 PUSH1 0x88 SHL PUSH1 0x44 DUP3 ADD MSTORE PUSH1 0x64 ADD PUSH2 0x64C JUMP JUMPDEST PUSH1 0x1 PUSH1 0x1 PUSH1 0xA0 SHL SUB DUP2 AND PUSH0 DUP2 DUP2 MSTORE PUSH1 0xC PUSH1 0x20 MSTORE PUSH1 0x40 DUP1 DUP3 KECCAK256 DUP1 SLOAD PUSH1 0xFF NOT AND PUSH1 0x1 OR SWAP1 SSTORE MLOAD PUSH32 0x5C38CE8FF8864A9D2A5FF5AEC72A88770E38D181DEA59173FDE1247CDAA1AEA3 SWAP2 SWAP1 LOG2 POP JUMP JUMPDEST PUSH2 0x10CB DUP5 DUP5 DUP5 PUSH2 0x6DE JUMP JUMPDEST PUSH2 0x761 CALLER DUP6 DUP6 DUP6 DUP6 PUSH2 0x1840 JUMP JUMPDEST PUSH2 0x10E0 PUSH2 0x16C5 JUMP JUMPDEST PUSH1 0x1 PUSH1 0x1 PUSH1 0xA0 SHL SUB DUP2 AND PUSH0 DUP2 DUP2 MSTORE PUSH1 0xC PUSH1 0x20 MSTORE PUSH1 0x40 DUP1 DUP3 KECCAK256 DUP1 SLOAD PUSH1 0xFF NOT AND SWAP1 SSTORE MLOAD PUSH32 0x81CB97A294B3FF5F91EF4048B3173C7F8F6943D9750ADD2071199061165E5F57 SWAP2 SWAP1 LOG2 POP JUMP JUMPDEST PUSH1 0x60 PUSH2 0x1133 DUP3 PUSH2 0x14DD JUMP JUMPDEST POP PUSH0 DUP3 DUP2 MSTORE PUSH1 0x6 PUSH1 0x20 MSTORE PUSH1 0x40 DUP2 KECCAK256 DUP1 SLOAD PUSH2 0x114C SWAP1 PUSH2 0x26AA JUMP JUMPDEST DUP1 PUSH1 0x1F ADD PUSH1 0x20 DUP1 SWAP2 DIV MUL PUSH1 0x20 ADD PUSH1 0x40 MLOAD SWAP1 DUP2 ADD PUSH1 0x40 MSTORE DUP1 SWAP3 SWAP2 SWAP1 DUP2 DUP2 MSTORE PUSH1 0x20 ADD DUP3 DUP1 SLOAD PUSH2 0x1178 SWAP1 PUSH2 0x26AA JUMP JUMPDEST DUP1 ISZERO PUSH2 0x11C3 JUMPI DUP1 PUSH1 0x1F LT PUSH2 0x119A JUMPI PUSH2 0x100 DUP1 DUP4 SLOAD DIV MUL DUP4 MSTORE SWAP2 PUSH1 0x20 ADD SWAP2 PUSH2 0x11C3 JUMP JUMPDEST DUP3 ADD SWAP2 SWAP1 PUSH0 MSTORE PUSH1 0x20 PUSH0 KECCAK256 SWAP1 JUMPDEST DUP2 SLOAD DUP2 MSTORE SWAP1 PUSH1 0x1 ADD SWAP1 PUSH1 0x20 ADD DUP1 DUP4 GT PUSH2 0x11A6 JUMPI DUP3 SWAP1 SUB PUSH1 0x1F AND DUP3 ADD SWAP2 JUMPDEST POP POP POP POP POP SWAP1 POP PUSH0 PUSH2 0x11DF PUSH1 0x40 DUP1 MLOAD PUSH1 0x20 DUP2 ADD SWAP1 SWAP2 MSTORE PUSH0 DUP2 MSTORE SWAP1 JUMP JUMPDEST SWAP1 POP DUP1 MLOAD PUSH0 SUB PUSH2 0x11F0 JUMPI POP SWAP3 SWAP2 POP POP JUMP JUMPDEST DUP2 MLOAD ISZERO PUSH2 0x1222 JUMPI DUP1 DUP3 PUSH1 0x40 MLOAD PUSH1 0x20 ADD PUSH2 0x120A SWAP3 SWAP2 SWAP1 PUSH2 0x29FB JUMP JUMPDEST PUSH1 0x40 MLOAD PUSH1 0x20 DUP2 DUP4 SUB SUB DUP2 MSTORE SWAP1 PUSH1 0x40 MSTORE SWAP3 POP POP POP SWAP2 SWAP1 POP JUMP JUMPDEST PUSH2 0x122B DUP5 PUSH2 0x1968 JUMP JUMPDEST SWAP5 SWAP4 POP POP POP POP JUMP JUMPDEST PUSH1 0x60 PUSH1 0xB PUSH0 DUP5 DUP2 MSTORE PUSH1 0x20 ADD SWAP1 DUP2 MSTORE PUSH1 0x20 ADD PUSH0 KECCAK256 DUP3 PUSH1 0x40 MLOAD PUSH2 0x1254 SWAP2 SWAP1 PUSH2 0x2803 JUMP JUMPDEST SWAP1 DUP2 MSTORE PUSH1 0x20 ADD PUSH1 0x40 MLOAD DUP1 SWAP2 SUB SWAP1 KECCAK256 DUP1 SLOAD PUSH2 0x126D SWAP1 PUSH2 0x26AA JUMP JUMPDEST DUP1 PUSH1 0x1F ADD PUSH1 0x20 DUP1 SWAP2 DIV MUL PUSH1 0x20 ADD PUSH1 0x40 MLOAD SWAP1 DUP2 ADD PUSH1 0x40 MSTORE DUP1 SWAP3 SWAP2 SWAP1 DUP2 DUP2 MSTORE PUSH1 0x20 ADD DUP3 DUP1 SLOAD PUSH2 0x1299 SWAP1 PUSH2 0x26AA JUMP JUMPDEST DUP1 ISZERO PUSH2 0x12E4 JUMPI DUP1 PUSH1 0x1F LT PUSH2 0x12BB JUMPI PUSH2 0x100 DUP1 DUP4 SLOAD DIV MUL DUP4 MSTORE SWAP2 PUSH1 0x20 ADD SWAP2 PUSH2 0x12E4 JUMP JUMPDEST DUP3 ADD SWAP2 SWAP1 PUSH0 MSTORE PUSH1 0x20 PUSH0 KECCAK256 SWAP1 JUMPDEST DUP2 SLOAD DUP2 MSTORE SWAP1 PUSH1 0x1 ADD SWAP1 PUSH1 0x20 ADD DUP1 DUP4 GT PUSH2 0x12C7 JUMPI DUP3 SWAP1 SUB PUSH1 0x1F AND DUP3 ADD SWAP2 JUMPDEST POP POP POP POP POP SWAP1 POP SWAP3 SWAP2 POP POP JUMP JUMPDEST PUSH0 PUSH0 PUSH2 0x12FC DUP4 PUSH2 0xF67 JUMP JUMPDEST SWAP1 POP PUSH2 0x122B DUP2 DUP6 DUP6 PUSH2 0x19D9 JUMP JUMPDEST PUSH1 0x1 PUSH1 0x1 PUSH1 0xA0 SHL SUB SWAP2 DUP3 AND PUSH0 SWAP1 DUP2 MSTORE PUSH1 0x5 PUSH1 0x20 SWAP1 DUP2 MSTORE PUSH1 0x40 DUP1 DUP4 KECCAK256 SWAP4 SWAP1 SWAP5 AND DUP3 MSTORE SWAP2 SWAP1 SWAP2 MSTORE KECCAK256 SLOAD PUSH1 0xFF AND SWAP1 JUMP JUMPDEST PUSH1 0xA DUP1 SLOAD PUSH0 SWAP2 DUP3 PUSH2 0x1346 DUP4 PUSH2 0x29E3 JUMP JUMPDEST SWAP2 SWAP1 POP SSTORE SWAP1 POP CALLER PUSH1 0x40 MLOAD PUSH1 0x20 ADD PUSH2 0x135D SWAP2 SWAP1 PUSH2 0x2829 JUMP JUMPDEST PUSH1 0x40 DUP1 MLOAD PUSH1 0x1F NOT DUP2 DUP5 SUB ADD DUP2 MSTORE DUP3 DUP3 MSTORE PUSH0 DUP5 DUP2 MSTORE PUSH1 0xB PUSH1 0x20 MSTORE SWAP2 SWAP1 SWAP2 KECCAK256 SWAP1 SWAP2 PUSH2 0x1385 SWAP1 PUSH2 0x2693 JUMP JUMPDEST SWAP1 DUP2 MSTORE PUSH1 0x20 ADD PUSH1 0x40 MLOAD DUP1 SWAP2 SUB SWAP1 KECCAK256 SWAP1 DUP2 PUSH2 0x139F SWAP2 SWAP1 PUSH2 0x288A JUMP JUMPDEST POP PUSH2 0x13AA CALLER DUP3 PUSH2 0x16AC JUMP JUMPDEST PUSH2 0x13B4 DUP2 DUP4 PUSH2 0x1522 JUMP JUMPDEST CALLER PUSH1 0x1 PUSH1 0x1 PUSH1 0xA0 SHL SUB AND DUP2 PUSH32 0xCA52E62C367D81BB2E328EB795F7C7BA24AFB478408A26C0E201D155C449BC4A DUP5 PUSH1 0x40 MLOAD PUSH2 0x13EE SWAP2 SWAP1 PUSH2 0x21E5 JUMP JUMPDEST PUSH1 0x40 MLOAD DUP1 SWAP2 SUB SWAP1 LOG3 PUSH1 0x40 MLOAD PUSH2 0x1402 SWAP1 PUSH2 0x2693 JUMP JUMPDEST PUSH1 0x40 MLOAD DUP1 SWAP2 SUB SWAP1 KECCAK256 DUP2 PUSH0 MLOAD PUSH1 0x20 PUSH2 0x2A4C PUSH0 CODECOPY PUSH0 MLOAD SWAP1 PUSH0 MSTORE CALLER PUSH1 0x40 MLOAD PUSH1 0x20 ADD PUSH2 0x142A SWAP2 SWAP1 PUSH2 0x2829 JUMP JUMPDEST PUSH1 0x40 DUP1 MLOAD PUSH1 0x1F NOT DUP2 DUP5 SUB ADD DUP2 MSTORE SWAP1 DUP3 SWAP1 MSTORE PUSH2 0x1444 SWAP2 PUSH2 0x2944 JUMP JUMPDEST PUSH1 0x40 MLOAD DUP1 SWAP2 SUB SWAP1 LOG3 SWAP2 SWAP1 POP JUMP JUMPDEST PUSH2 0x1459 PUSH2 0x16C5 JUMP JUMPDEST PUSH1 0x1 PUSH1 0x1 PUSH1 0xA0 SHL SUB DUP2 AND PUSH2 0x1482 JUMPI PUSH1 0x40 MLOAD PUSH4 0x1E4FBDF7 PUSH1 0xE0 SHL DUP2 MSTORE PUSH0 PUSH1 0x4 DUP3 ADD MSTORE PUSH1 0x24 ADD PUSH2 0x64C JUMP JUMPDEST PUSH2 0x148B DUP2 PUSH2 0x16F2 JUMP JUMPDEST POP JUMP JUMPDEST PUSH0 PUSH1 0x1 PUSH1 0x1 PUSH1 0xE0 SHL SUB NOT DUP3 AND PUSH4 0x80AC58CD PUSH1 0xE0 SHL EQ DUP1 PUSH2 0x14BE JUMPI POP PUSH1 0x1 PUSH1 0x1 PUSH1 0xE0 SHL SUB NOT DUP3 AND PUSH4 0x5B5E139F PUSH1 0xE0 SHL EQ JUMPDEST DUP1 PUSH2 0x519 JUMPI POP PUSH4 0x1FFC9A7 PUSH1 0xE0 SHL PUSH1 0x1 PUSH1 0x1 PUSH1 0xE0 SHL SUB NOT DUP4 AND EQ PUSH2 0x519 JUMP JUMPDEST PUSH0 DUP2 DUP2 MSTORE PUSH1 0x2 PUSH1 0x20 MSTORE PUSH1 0x40 DUP2 KECCAK256 SLOAD PUSH1 0x1 PUSH1 0x1 PUSH1 0xA0 SHL SUB AND DUP1 PUSH2 0x519 JUMPI PUSH1 0x40 MLOAD PUSH4 0x7E273289 PUSH1 0xE0 SHL DUP2 MSTORE PUSH1 0x4 DUP2 ADD DUP5 SWAP1 MSTORE PUSH1 0x24 ADD PUSH2 0x64C JUMP JUMPDEST PUSH2 0xC65 DUP4 DUP4 DUP4 PUSH1 0x1 PUSH2 0x1A3A JUMP JUMPDEST PUSH0 DUP3 DUP2 MSTORE PUSH1 0x6 PUSH1 0x20 MSTORE PUSH1 0x40 SWAP1 KECCAK256 PUSH2 0x1539 DUP3 DUP3 PUSH2 0x288A JUMP JUMPDEST POP PUSH1 0x40 MLOAD DUP3 DUP2 MSTORE PUSH32 0xF8E1A15ABA9398E019F0B49DF1A4FDE98EE17AE345CB5F6B5E2C27F5033E8CE7 SWAP1 PUSH1 0x20 ADD PUSH1 0x40 MLOAD DUP1 SWAP2 SUB SWAP1 LOG1 POP POP JUMP JUMPDEST PUSH0 DUP3 DUP2 MSTORE PUSH1 0x2 PUSH1 0x20 MSTORE PUSH1 0x40 DUP2 KECCAK256 SLOAD PUSH1 0x1 PUSH1 0x1 PUSH1 0xA0 SHL SUB AND DUP1 ISZERO DUP1 ISZERO SWAP1 PUSH2 0x159F JUMPI POP PUSH1 0x1 PUSH1 0x1 PUSH1 0xA0 SHL SUB DUP6 AND ISZERO ISZERO JUMPDEST ISZERO PUSH2 0x1623 JUMPI PUSH1 0x40 MLOAD DUP1 PUSH1 0x20 ADD PUSH1 0x40 MSTORE DUP1 PUSH0 DUP2 MSTORE POP PUSH1 0xB PUSH0 DUP7 DUP2 MSTORE PUSH1 0x20 ADD SWAP1 DUP2 MSTORE PUSH1 0x20 ADD PUSH0 KECCAK256 PUSH1 0x40 MLOAD PUSH2 0x15D0 SWAP1 PUSH2 0x2693 JUMP JUMPDEST SWAP1 DUP2 MSTORE PUSH1 0x20 ADD PUSH1 0x40 MLOAD DUP1 SWAP2 SUB SWAP1 KECCAK256 SWAP1 DUP2 PUSH2 0x15EA SWAP2 SWAP1 PUSH2 0x288A JUMP JUMPDEST POP PUSH1 0x40 MLOAD PUSH2 0x15F7 SWAP1 PUSH2 0x2693 JUMP JUMPDEST PUSH1 0x40 MLOAD DUP1 SWAP2 SUB SWAP1 KECCAK256 DUP5 PUSH0 MLOAD PUSH1 0x20 PUSH2 0x2A4C PUSH0 CODECOPY PUSH0 MLOAD SWAP1 PUSH0 MSTORE PUSH1 0x40 MLOAD PUSH2 0x161A SWAP1 PUSH2 0x2980 JUMP JUMPDEST PUSH1 0x40 MLOAD DUP1 SWAP2 SUB SWAP1 LOG3 JUMPDEST PUSH2 0x162E DUP6 DUP6 DUP6 PUSH2 0x1B3E JUMP JUMPDEST SWAP6 SWAP5 POP POP POP POP POP JUMP JUMPDEST PUSH0 PUSH2 0x519 PUSH2 0x1643 PUSH2 0x1C30 JUMP JUMPDEST DUP4 PUSH1 0x40 MLOAD PUSH2 0x1901 PUSH1 0xF0 SHL DUP2 MSTORE PUSH1 0x2 DUP2 ADD SWAP3 SWAP1 SWAP3 MSTORE PUSH1 0x22 DUP3 ADD MSTORE PUSH1 0x42 SWAP1 KECCAK256 SWAP1 JUMP JUMPDEST PUSH0 PUSH0 PUSH0 DUP4 MLOAD PUSH1 0x41 SUB PUSH2 0x169A JUMPI PUSH1 0x20 DUP5 ADD MLOAD PUSH1 0x40 DUP6 ADD MLOAD PUSH1 0x60 DUP7 ADD MLOAD PUSH0 BYTE PUSH2 0x168C DUP9 DUP3 DUP6 DUP6 PUSH2 0x1D59 JUMP JUMPDEST SWAP6 POP SWAP6 POP SWAP6 POP POP POP POP PUSH2 0x16A5 JUMP JUMPDEST POP POP DUP2 MLOAD PUSH0 SWAP2 POP PUSH1 0x2 SWAP1 JUMPDEST SWAP3 POP SWAP3 POP SWAP3 JUMP JUMPDEST PUSH2 0x5E0 DUP3 DUP3 PUSH1 0x40 MLOAD DUP1 PUSH1 0x20 ADD PUSH1 0x40 MSTORE DUP1 PUSH0 DUP2 MSTORE POP PUSH2 0x1E21 JUMP JUMPDEST PUSH1 0x7 SLOAD PUSH1 0x1 PUSH1 0x1 PUSH1 0xA0 SHL SUB AND CALLER EQ PUSH2 0xFC7 JUMPI PUSH1 0x40 MLOAD PUSH4 0x118CDAA7 PUSH1 0xE0 SHL DUP2 MSTORE CALLER PUSH1 0x4 DUP3 ADD MSTORE PUSH1 0x24 ADD PUSH2 0x64C JUMP JUMPDEST PUSH1 0x7 DUP1 SLOAD PUSH1 0x1 PUSH1 0x1 PUSH1 0xA0 SHL SUB DUP4 DUP2 AND PUSH1 0x1 PUSH1 0x1 PUSH1 0xA0 SHL SUB NOT DUP4 AND DUP2 OR SWAP1 SWAP4 SSTORE PUSH1 0x40 MLOAD SWAP2 AND SWAP2 SWAP1 DUP3 SWAP1 PUSH32 0x8BE0079C531659141344CD1FD0A4F28419497F9722A3DAAFE3B4186F6B6457E0 SWAP1 PUSH0 SWAP1 LOG3 POP POP JUMP JUMPDEST PUSH1 0x60 PUSH2 0x1770 PUSH32 0x0 PUSH1 0x8 PUSH2 0x1E38 JUMP JUMPDEST SWAP1 POP SWAP1 JUMP JUMPDEST PUSH1 0x60 PUSH2 0x1770 PUSH32 0x0 PUSH1 0x9 PUSH2 0x1E38 JUMP JUMPDEST PUSH1 0x1 PUSH1 0x1 PUSH1 0xA0 SHL SUB DUP3 AND PUSH2 0x17D4 JUMPI PUSH1 0x40 MLOAD PUSH4 0xB611743 PUSH1 0xE3 SHL DUP2 MSTORE PUSH1 0x1 PUSH1 0x1 PUSH1 0xA0 SHL SUB DUP4 AND PUSH1 0x4 DUP3 ADD MSTORE PUSH1 0x24 ADD PUSH2 0x64C JUMP JUMPDEST PUSH1 0x1 PUSH1 0x1 PUSH1 0xA0 SHL SUB DUP4 DUP2 AND PUSH0 DUP2 DUP2 MSTORE PUSH1 0x5 PUSH1 0x20 SWAP1 DUP2 MSTORE PUSH1 0x40 DUP1 DUP4 KECCAK256 SWAP5 DUP8 AND DUP1 DUP5 MSTORE SWAP5 DUP3 MSTORE SWAP2 DUP3 SWAP1 KECCAK256 DUP1 SLOAD PUSH1 0xFF NOT AND DUP7 ISZERO ISZERO SWAP1 DUP2 OR SWAP1 SWAP2 SSTORE SWAP2 MLOAD SWAP2 DUP3 MSTORE PUSH32 0x17307EAB39AB6107E8899845AD3D59BD9653F200F220920489CA2B5937696C31 SWAP2 ADD PUSH1 0x40 MLOAD DUP1 SWAP2 SUB SWAP1 LOG3 POP POP POP JUMP JUMPDEST PUSH1 0x1 PUSH1 0x1 PUSH1 0xA0 SHL SUB DUP4 AND EXTCODESIZE ISZERO PUSH2 0x1961 JUMPI PUSH1 0x40 MLOAD PUSH4 0xA85BD01 PUSH1 0xE1 SHL DUP2 MSTORE PUSH1 0x1 PUSH1 0x1 PUSH1 0xA0 SHL SUB DUP5 AND SWAP1 PUSH4 0x150B7A02 SWAP1 PUSH2 0x1882 SWAP1 DUP9 SWAP1 DUP9 SWAP1 DUP8 SWAP1 DUP8 SWAP1 PUSH1 0x4 ADD PUSH2 0x2A0F JUMP JUMPDEST PUSH1 0x20 PUSH1 0x40 MLOAD DUP1 DUP4 SUB DUP2 PUSH0 DUP8 GAS CALL SWAP3 POP POP POP DUP1 ISZERO PUSH2 0x18BC JUMPI POP PUSH1 0x40 DUP1 MLOAD PUSH1 0x1F RETURNDATASIZE SWAP1 DUP2 ADD PUSH1 0x1F NOT AND DUP3 ADD SWAP1 SWAP3 MSTORE PUSH2 0x18B9 SWAP2 DUP2 ADD SWAP1 PUSH2 0x280E JUMP JUMPDEST PUSH1 0x1 JUMPDEST PUSH2 0x1923 JUMPI RETURNDATASIZE DUP1 DUP1 ISZERO PUSH2 0x18E9 JUMPI PUSH1 0x40 MLOAD SWAP2 POP PUSH1 0x1F NOT PUSH1 0x3F RETURNDATASIZE ADD AND DUP3 ADD PUSH1 0x40 MSTORE RETURNDATASIZE DUP3 MSTORE RETURNDATASIZE PUSH0 PUSH1 0x20 DUP5 ADD RETURNDATACOPY PUSH2 0x18EE JUMP JUMPDEST PUSH1 0x60 SWAP2 POP JUMPDEST POP DUP1 MLOAD PUSH0 SUB PUSH2 0x191B JUMPI PUSH1 0x40 MLOAD PUSH4 0x32505749 PUSH1 0xE1 SHL DUP2 MSTORE PUSH1 0x1 PUSH1 0x1 PUSH1 0xA0 SHL SUB DUP6 AND PUSH1 0x4 DUP3 ADD MSTORE PUSH1 0x24 ADD PUSH2 0x64C JUMP JUMPDEST DUP1 MLOAD PUSH1 0x20 DUP3 ADD REVERT JUMPDEST PUSH1 0x1 PUSH1 0x1 PUSH1 0xE0 SHL SUB NOT DUP2 AND PUSH4 0xA85BD01 PUSH1 0xE1 SHL EQ PUSH2 0x195F JUMPI PUSH1 0x40 MLOAD PUSH4 0x32505749 PUSH1 0xE1 SHL DUP2 MSTORE PUSH1 0x1 PUSH1 0x1 PUSH1 0xA0 SHL SUB DUP6 AND PUSH1 0x4 DUP3 ADD MSTORE PUSH1 0x24 ADD PUSH2 0x64C JUMP JUMPDEST POP JUMPDEST POP POP POP POP POP JUMP JUMPDEST PUSH1 0x60 PUSH2 0x1973 DUP3 PUSH2 0x14DD JUMP JUMPDEST POP PUSH0 PUSH2 0x1989 PUSH1 0x40 DUP1 MLOAD PUSH1 0x20 DUP2 ADD SWAP1 SWAP2 MSTORE PUSH0 DUP2 MSTORE SWAP1 JUMP JUMPDEST SWAP1 POP PUSH0 DUP2 MLOAD GT PUSH2 0x19A7 JUMPI PUSH1 0x40 MLOAD DUP1 PUSH1 0x20 ADD PUSH1 0x40 MSTORE DUP1 PUSH0 DUP2 MSTORE POP PUSH2 0x19D2 JUMP JUMPDEST DUP1 PUSH2 0x19B1 DUP5 PUSH2 0x1EE1 JUMP JUMPDEST PUSH1 0x40 MLOAD PUSH1 0x20 ADD PUSH2 0x19C2 SWAP3 SWAP2 SWAP1 PUSH2 0x29FB JUMP JUMPDEST PUSH1 0x40 MLOAD PUSH1 0x20 DUP2 DUP4 SUB SUB DUP2 MSTORE SWAP1 PUSH1 0x40 MSTORE JUMPDEST SWAP4 SWAP3 POP POP POP JUMP JUMPDEST PUSH0 PUSH1 0x1 PUSH1 0x1 PUSH1 0xA0 SHL SUB DUP4 AND ISZERO DUP1 ISZERO SWAP1 PUSH2 0x122B JUMPI POP DUP3 PUSH1 0x1 PUSH1 0x1 PUSH1 0xA0 SHL SUB AND DUP5 PUSH1 0x1 PUSH1 0x1 PUSH1 0xA0 SHL SUB AND EQ DUP1 PUSH2 0x1A12 JUMPI POP PUSH2 0x1A12 DUP5 DUP5 PUSH2 0x1309 JUMP JUMPDEST DUP1 PUSH2 0x122B JUMPI POP POP PUSH0 SWAP1 DUP2 MSTORE PUSH1 0x4 PUSH1 0x20 MSTORE PUSH1 0x40 SWAP1 KECCAK256 SLOAD PUSH1 0x1 PUSH1 0x1 PUSH1 0xA0 SHL SUB SWAP1 DUP2 AND SWAP2 AND EQ SWAP2 SWAP1 POP JUMP JUMPDEST DUP1 DUP1 PUSH2 0x1A4E JUMPI POP PUSH1 0x1 PUSH1 0x1 PUSH1 0xA0 SHL SUB DUP3 AND ISZERO ISZERO JUMPDEST ISZERO PUSH2 0x1B0F JUMPI PUSH0 PUSH2 0x1A5D DUP5 PUSH2 0x14DD JUMP JUMPDEST SWAP1 POP PUSH1 0x1 PUSH1 0x1 PUSH1 0xA0 SHL SUB DUP4 AND ISZERO DUP1 ISZERO SWAP1 PUSH2 0x1A89 JUMPI POP DUP3 PUSH1 0x1 PUSH1 0x1 PUSH1 0xA0 SHL SUB AND DUP2 PUSH1 0x1 PUSH1 0x1 PUSH1 0xA0 SHL SUB AND EQ ISZERO JUMPDEST DUP1 ISZERO PUSH2 0x1A9C JUMPI POP PUSH2 0x1A9A DUP2 DUP5 PUSH2 0x1309 JUMP JUMPDEST ISZERO JUMPDEST ISZERO PUSH2 0x1AC5 JUMPI PUSH1 0x40 MLOAD PUSH4 0xA9FBF51F PUSH1 0xE0 SHL DUP2 MSTORE PUSH1 0x1 PUSH1 0x1 PUSH1 0xA0 SHL SUB DUP5 AND PUSH1 0x4 DUP3 ADD MSTORE PUSH1 0x24 ADD PUSH2 0x64C JUMP JUMPDEST DUP2 ISZERO PUSH2 0x1B0D JUMPI DUP4 DUP6 PUSH1 0x1 PUSH1 0x1 PUSH1 0xA0 SHL SUB AND DUP3 PUSH1 0x1 PUSH1 0x1 PUSH1 0xA0 SHL SUB AND PUSH32 0x8C5BE1E5EBEC7D5BD14F71427D1E84F3DD0314C0F7B2291E5B200AC8C7C3B925 PUSH1 0x40 MLOAD PUSH1 0x40 MLOAD DUP1 SWAP2 SUB SWAP1 LOG4 JUMPDEST POP JUMPDEST POP POP PUSH0 SWAP1 DUP2 MSTORE PUSH1 0x4 PUSH1 0x20 MSTORE PUSH1 0x40 SWAP1 KECCAK256 DUP1 SLOAD PUSH1 0x1 PUSH1 0x1 PUSH1 0xA0 SHL SUB NOT AND PUSH1 0x1 PUSH1 0x1 PUSH1 0xA0 SHL SUB SWAP3 SWAP1 SWAP3 AND SWAP2 SWAP1 SWAP2 OR SWAP1 SSTORE JUMP JUMPDEST PUSH0 DUP3 DUP2 MSTORE PUSH1 0x2 PUSH1 0x20 MSTORE PUSH1 0x40 DUP2 KECCAK256 SLOAD PUSH1 0x1 PUSH1 0x1 PUSH1 0xA0 SHL SUB SWAP1 DUP2 AND SWAP1 DUP4 AND ISZERO PUSH2 0x1B6A JUMPI PUSH2 0x1B6A DUP2 DUP5 DUP7 PUSH2 0x1F70 JUMP JUMPDEST PUSH1 0x1 PUSH1 0x1 PUSH1 0xA0 SHL SUB DUP2 AND ISZERO PUSH2 0x1BA4 JUMPI PUSH2 0x1B85 PUSH0 DUP6 PUSH0 PUSH0 PUSH2 0x1A3A JUMP JUMPDEST PUSH1 0x1 PUSH1 0x1 PUSH1 0xA0 SHL SUB DUP2 AND PUSH0 SWAP1 DUP2 MSTORE PUSH1 0x3 PUSH1 0x20 MSTORE PUSH1 0x40 SWAP1 KECCAK256 DUP1 SLOAD PUSH0 NOT ADD SWAP1 SSTORE JUMPDEST PUSH1 0x1 PUSH1 0x1 PUSH1 0xA0 SHL SUB DUP6 AND ISZERO PUSH2 0x1BD2 JUMPI PUSH1 0x1 PUSH1 0x1 PUSH1 0xA0 SHL SUB DUP6 AND PUSH0 SWAP1 DUP2 MSTORE PUSH1 0x3 PUSH1 0x20 MSTORE PUSH1 0x40 SWAP1 KECCAK256 DUP1 SLOAD PUSH1 0x1 ADD SWAP1 SSTORE JUMPDEST PUSH0 DUP5 DUP2 MSTORE PUSH1 0x2 PUSH1 0x20 MSTORE PUSH1 0x40 DUP1 DUP3 KECCAK256 DUP1 SLOAD PUSH1 0x1 PUSH1 0x1 PUSH1 0xA0 SHL SUB NOT AND PUSH1 0x1 PUSH1 0x1 PUSH1 0xA0 SHL SUB DUP10 DUP2 AND SWAP2 DUP3 OR SWAP1 SWAP3 SSTORE SWAP2 MLOAD DUP8 SWAP4 SWAP2 DUP6 AND SWAP2 PUSH32 0xDDF252AD1BE2C89B69C2B068FC378DAA952BA7F163C4A11628F55A4DF523B3EF SWAP2 LOG4 SWAP5 SWAP4 POP POP POP POP JUMP JUMPDEST PUSH0 ADDRESS PUSH1 0x1 PUSH1 0x1 PUSH1 0xA0 SHL SUB PUSH32 0x0 AND EQ DUP1 ISZERO PUSH2 0x1C88 JUMPI POP PUSH32 0x0 CHAINID EQ JUMPDEST ISZERO PUSH2 0x1CB2 JUMPI POP PUSH32 0x0 SWAP1 JUMP JUMPDEST PUSH2 0x1770 PUSH1 0x40 DUP1 MLOAD PUSH32 0x8B73C3C69BB8FE3D512ECC4CF759CC79239F7B179B0FFACAA9A75D522B39400F PUSH1 0x20 DUP3 ADD MSTORE PUSH32 0x0 SWAP2 DUP2 ADD SWAP2 SWAP1 SWAP2 MSTORE PUSH32 0x0 PUSH1 0x60 DUP3 ADD MSTORE CHAINID PUSH1 0x80 DUP3 ADD MSTORE ADDRESS PUSH1 0xA0 DUP3 ADD MSTORE PUSH0 SWAP1 PUSH1 0xC0 ADD PUSH1 0x40 MLOAD PUSH1 0x20 DUP2 DUP4 SUB SUB DUP2 MSTORE SWAP1 PUSH1 0x40 MSTORE DUP1 MLOAD SWAP1 PUSH1 0x20 ADD KECCAK256 SWAP1 POP SWAP1 JUMP JUMPDEST PUSH0 DUP1 DUP1 PUSH32 0x7FFFFFFFFFFFFFFFFFFFFFFFFFFFFFFF5D576E7357A4501DDFE92F46681B20A0 DUP5 GT ISZERO PUSH2 0x1D92 JUMPI POP PUSH0 SWAP2 POP PUSH1 0x3 SWAP1 POP DUP3 PUSH2 0x1E17 JUMP JUMPDEST PUSH1 0x40 DUP1 MLOAD PUSH0 DUP1 DUP3 MSTORE PUSH1 0x20 DUP3 ADD DUP1 DUP5 MSTORE DUP11 SWAP1 MSTORE PUSH1 0xFF DUP10 AND SWAP3 DUP3 ADD SWAP3 SWAP1 SWAP3 MSTORE PUSH1 0x60 DUP2 ADD DUP8 SWAP1 MSTORE PUSH1 0x80 DUP2 ADD DUP7 SWAP1 MSTORE PUSH1 0x1 SWAP1 PUSH1 0xA0 ADD PUSH1 0x20 PUSH1 0x40 MLOAD PUSH1 0x20 DUP2 SUB SWAP1 DUP1 DUP5 SUB SWAP1 DUP6 GAS STATICCALL ISZERO DUP1 ISZERO PUSH2 0x1DE3 JUMPI RETURNDATASIZE PUSH0 PUSH0 RETURNDATACOPY RETURNDATASIZE PUSH0 REVERT JUMPDEST POP POP PUSH1 0x40 MLOAD PUSH1 0x1F NOT ADD MLOAD SWAP2 POP POP PUSH1 0x1 PUSH1 0x1 PUSH1 0xA0 SHL SUB DUP2 AND PUSH2 0x1E0E JUMPI POP PUSH0 SWAP3 POP PUSH1 0x1 SWAP2 POP DUP3 SWAP1 POP PUSH2 0x1E17 JUMP JUMPDEST SWAP3 POP PUSH0 SWAP2 POP DUP2 SWAP1 POP JUMPDEST SWAP5 POP SWAP5 POP SWAP5 SWAP2 POP POP JUMP JUMPDEST PUSH2 0x1E2B DUP4 DUP4 PUSH2 0x1FD4 JUMP JUMPDEST PUSH2 0xC65 CALLER PUSH0 DUP6 DUP6 DUP6 PUSH2 0x1840 JUMP JUMPDEST PUSH1 0x60 PUSH1 0xFF DUP4 EQ PUSH2 0x1E52 JUMPI PUSH2 0x1E4B DUP4 PUSH2 0x2035 JUMP JUMPDEST SWAP1 POP PUSH2 0x519 JUMP JUMPDEST DUP2 DUP1 SLOAD PUSH2 0x1E5E SWAP1 PUSH2 0x26AA JUMP JUMPDEST DUP1 PUSH1 0x1F ADD PUSH1 0x20 DUP1 SWAP2 DIV MUL PUSH1 0x20 ADD PUSH1 0x40 MLOAD SWAP1 DUP2 ADD PUSH1 0x40 MSTORE DUP1 SWAP3 SWAP2 SWAP1 DUP2 DUP2 MSTORE PUSH1 0x20 ADD DUP3 DUP1 SLOAD PUSH2 0x1E8A SWAP1 PUSH2 0x26AA JUMP JUMPDEST DUP1 ISZERO PUSH2 0x1ED5 JUMPI DUP1 PUSH1 0x1F LT PUSH2 0x1EAC JUMPI PUSH2 0x100 DUP1 DUP4 SLOAD DIV MUL DUP4 MSTORE SWAP2 PUSH1 0x20 ADD SWAP2 PUSH2 0x1ED5 JUMP JUMPDEST DUP3 ADD SWAP2 SWAP1 PUSH0 MSTORE PUSH1 0x20 PUSH0 KECCAK256 SWAP1 JUMPDEST DUP2 SLOAD DUP2 MSTORE SWAP1 PUSH1 0x1 ADD SWAP1 PUSH1 0x20 ADD DUP1 DUP4 GT PUSH2 0x1EB8 JUMPI DUP3 SWAP1 SUB PUSH1 0x1F AND DUP3 ADD SWAP2 JUMPDEST POP POP POP POP POP SWAP1 POP PUSH2 0x519 JUMP JUMPDEST PUSH1 0x60 PUSH0 PUSH2 0x1EED DUP4 PUSH2 0x2072 JUMP JUMPDEST PUSH1 0x1 ADD SWAP1 POP PUSH0 DUP2 PUSH1 0x1 PUSH1 0x1 PUSH1 0x40 SHL SUB DUP2 GT ISZERO PUSH2 0x1F0B JUMPI PUSH2 0x1F0B PUSH2 0x2361 JUMP JUMPDEST PUSH1 0x40 MLOAD SWAP1 DUP1 DUP3 MSTORE DUP1 PUSH1 0x1F ADD PUSH1 0x1F NOT AND PUSH1 0x20 ADD DUP3 ADD PUSH1 0x40 MSTORE DUP1 ISZERO PUSH2 0x1F35 JUMPI PUSH1 0x20 DUP3 ADD DUP2 DUP1 CALLDATASIZE DUP4 CALLDATACOPY ADD SWAP1 POP JUMPDEST POP SWAP1 POP DUP2 DUP2 ADD PUSH1 0x20 ADD JUMPDEST PUSH0 NOT ADD PUSH16 0x181899199A1A9B1B9C1CB0B131B232B3 PUSH1 0x81 SHL PUSH1 0xA DUP7 MOD BYTE DUP2 MSTORE8 PUSH1 0xA DUP6 DIV SWAP5 POP DUP5 PUSH2 0x1F3F JUMPI POP SWAP4 SWAP3 POP POP POP JUMP JUMPDEST PUSH2 0x1F7B DUP4 DUP4 DUP4 PUSH2 0x19D9 JUMP JUMPDEST PUSH2 0xC65 JUMPI PUSH1 0x1 PUSH1 0x1 PUSH1 0xA0 SHL SUB DUP4 AND PUSH2 0x1FA9 JUMPI PUSH1 0x40 MLOAD PUSH4 0x7E273289 PUSH1 0xE0 SHL DUP2 MSTORE PUSH1 0x4 DUP2 ADD DUP3 SWAP1 MSTORE PUSH1 0x24 ADD PUSH2 0x64C JUMP JUMPDEST PUSH1 0x40 MLOAD PUSH4 0x177E802F PUSH1 0xE0 SHL DUP2 MSTORE PUSH1 0x1 PUSH1 0x1 PUSH1 0xA0 SHL SUB DUP4 AND PUSH1 0x4 DUP3 ADD MSTORE PUSH1 0x24 DUP2 ADD DUP3 SWAP1 MSTORE PUSH1 0x44 ADD PUSH2 0x64C JUMP JUMPDEST PUSH1 0x1 PUSH1 0x1 PUSH1 0xA0 SHL SUB DUP3 AND PUSH2 0x1FFD JUMPI PUSH1 0x40 MLOAD PUSH4 0x32505749 PUSH1 0xE1 SHL DUP2 MSTORE PUSH0 PUSH1 0x4 DUP3 ADD MSTORE PUSH1 0x24 ADD PUSH2 0x64C JUMP JUMPDEST PUSH0 PUSH2 0x2009 DUP4 DUP4 PUSH0 PUSH2 0x1571 JUMP JUMPDEST SWAP1 POP PUSH1 0x1 PUSH1 0x1 PUSH1 0xA0 SHL SUB DUP2 AND ISZERO PUSH2 0xC65 JUMPI PUSH1 0x40 MLOAD PUSH4 0x39E35637 PUSH1 0xE1 SHL DUP2 MSTORE PUSH0 PUSH1 0x4 DUP3 ADD MSTORE PUSH1 0x24 ADD PUSH2 0x64C JUMP JUMPDEST PUSH1 0x60 PUSH0 PUSH2 0x2041 DUP4 PUSH2 0x2149 JUMP JUMPDEST PUSH1 0x40 DUP1 MLOAD PUSH1 0x20 DUP1 DUP3 MSTORE DUP2 DUP4 ADD SWAP1 SWAP3 MSTORE SWAP2 SWAP3 POP PUSH0 SWAP2 SWAP1 PUSH1 0x20 DUP3 ADD DUP2 DUP1 CALLDATASIZE DUP4 CALLDATACOPY POP POP POP SWAP2 DUP3 MSTORE POP PUSH1 0x20 DUP2 ADD SWAP3 SWAP1 SWAP3 MSTORE POP SWAP1 JUMP JUMPDEST PUSH0 DUP1 PUSH19 0x184F03E93FF9F4DAA797ED6E38ED64BF6A1F01 PUSH1 0x40 SHL DUP4 LT PUSH2 0x20B0 JUMPI PUSH19 0x184F03E93FF9F4DAA797ED6E38ED64BF6A1F01 PUSH1 0x40 SHL DUP4 DIV SWAP3 POP PUSH1 0x40 ADD JUMPDEST PUSH14 0x4EE2D6D415B85ACEF8100000000 DUP4 LT PUSH2 0x20DC JUMPI PUSH14 0x4EE2D6D415B85ACEF8100000000 DUP4 DIV SWAP3 POP PUSH1 0x20 ADD JUMPDEST PUSH7 0x2386F26FC10000 DUP4 LT PUSH2 0x20FA JUMPI PUSH7 0x2386F26FC10000 DUP4 DIV SWAP3 POP PUSH1 0x10 ADD JUMPDEST PUSH4 0x5F5E100 DUP4 LT PUSH2 0x2112 JUMPI PUSH4 0x5F5E100 DUP4 DIV SWAP3 POP PUSH1 0x8 ADD JUMPDEST PUSH2 0x2710 DUP4 LT PUSH2 0x2126 JUMPI PUSH2 0x2710 DUP4 DIV SWAP3 POP PUSH1 0x4 ADD JUMPDEST PUSH1 0x64 DUP4 LT PUSH2 0x2138 JUMPI PUSH1 0x64 DUP4 DIV SWAP3 POP PUSH1 0x2 ADD JUMPDEST PUSH1 0xA DUP4 LT PUSH2 0x519 JUMPI PUSH1 0x1 ADD SWAP3 SWAP2 POP POP JUMP JUMPDEST PUSH0 PUSH1 0xFF DUP3 AND PUSH1 0x1F DUP2 GT ISZERO PUSH2 0x519 JUMPI PUSH1 0x40 MLOAD PUSH4 0x2CD44AC3 PUSH1 0xE2 SHL DUP2 MSTORE PUSH1 0x4 ADD PUSH1 0x40 MLOAD DUP1 SWAP2 SUB SWAP1 REVERT JUMPDEST PUSH0 PUSH1 0x20 DUP3 DUP5 SUB SLT ISZERO PUSH2 0x2180 JUMPI PUSH0 PUSH0 REVERT JUMPDEST POP CALLDATALOAD SWAP2 SWAP1 POP JUMP JUMPDEST PUSH1 0x1 PUSH1 0x1 PUSH1 0xE0 SHL SUB NOT DUP2 AND DUP2 EQ PUSH2 0x148B JUMPI PUSH0 PUSH0 REVERT JUMPDEST PUSH0 PUSH1 0x20 DUP3 DUP5 SUB SLT ISZERO PUSH2 0x21AC JUMPI PUSH0 PUSH0 REVERT JUMPDEST DUP2 CALLDATALOAD PUSH2 0x19D2 DUP2 PUSH2 0x2187 JUMP JUMPDEST PUSH0 DUP2 MLOAD DUP1 DUP5 MSTORE DUP1 PUSH1 0x20 DUP5 ADD PUSH1 0x20 DUP7 ADD MCOPY PUSH0 PUSH1 0x20 DUP3 DUP7 ADD ADD MSTORE PUSH1 0x20 PUSH1 0x1F NOT PUSH1 0x1F DUP4 ADD AND DUP6 ADD ADD SWAP2 POP POP SWAP3 SWAP2 POP POP JUMP JUMPDEST PUSH1 0x20 DUP2 MSTORE PUSH0 PUSH2 0x19D2 PUSH1 0x20 DUP4 ADD DUP5 PUSH2 0x21B7 JUMP JUMPDEST DUP1 CALLDATALOAD PUSH1 0x1 PUSH1 0x1 PUSH1 0xA0 SHL SUB DUP2 AND DUP2 EQ PUSH2 0x220D JUMPI PUSH0 PUSH0 REVERT JUMPDEST SWAP2 SWAP1 POP JUMP JUMPDEST PUSH0 PUSH0 PUSH1 0x40 DUP4 DUP6 SUB SLT ISZERO PUSH2 0x2223 JUMPI PUSH0 PUSH0 REVERT JUMPDEST PUSH2 0x222C DUP4 PUSH2 0x21F7 JUMP JUMPDEST SWAP5 PUSH1 0x20 SWAP4 SWAP1 SWAP4 ADD CALLDATALOAD SWAP4 POP POP POP JUMP JUMPDEST PUSH0 PUSH0 DUP4 PUSH1 0x1F DUP5 ADD SLT PUSH2 0x224A JUMPI PUSH0 PUSH0 REVERT JUMPDEST POP DUP2 CALLDATALOAD PUSH1 0x1 PUSH1 0x1 PUSH1 0x40 SHL SUB DUP2 GT ISZERO PUSH2 0x2260 JUMPI PUSH0 PUSH0 REVERT JUMPDEST PUSH1 0x20 DUP4 ADD SWAP2 POP DUP4 PUSH1 0x20 DUP3 DUP6 ADD ADD GT ISZERO PUSH2 0x2277 JUMPI PUSH0 PUSH0 REVERT JUMPDEST SWAP3 POP SWAP3 SWAP1 POP JUMP JUMPDEST PUSH0 PUSH0 PUSH0 PUSH1 0x40 DUP5 DUP7 SUB SLT ISZERO PUSH2 0x2290 JUMPI PUSH0 PUSH0 REVERT JUMPDEST DUP4 CALLDATALOAD SWAP3 POP PUSH1 0x20 DUP5 ADD CALLDATALOAD PUSH1 0x1 PUSH1 0x1 PUSH1 0x40 SHL SUB DUP2 GT ISZERO PUSH2 0x22AC JUMPI PUSH0 PUSH0 REVERT JUMPDEST PUSH2 0x22B8 DUP7 DUP3 DUP8 ADD PUSH2 0x223A JUMP JUMPDEST SWAP5 SWAP8 SWAP1 SWAP7 POP SWAP4 SWAP5 POP POP POP POP JUMP JUMPDEST PUSH0 PUSH0 PUSH0 PUSH1 0x60 DUP5 DUP7 SUB SLT ISZERO PUSH2 0x22D7 JUMPI PUSH0 PUSH0 REVERT JUMPDEST PUSH2 0x22E0 DUP5 PUSH2 0x21F7 JUMP JUMPDEST SWAP3 POP PUSH2 0x22EE PUSH1 0x20 DUP6 ADD PUSH2 0x21F7 JUMP JUMPDEST SWAP3 SWAP6 SWAP3 SWAP5 POP POP POP PUSH1 0x40 SWAP2 SWAP1 SWAP2 ADD CALLDATALOAD SWAP1 JUMP JUMPDEST PUSH0 PUSH0 PUSH0 PUSH0 PUSH0 PUSH1 0x80 DUP7 DUP9 SUB SLT ISZERO PUSH2 0x2313 JUMPI PUSH0 PUSH0 REVERT JUMPDEST DUP6 CALLDATALOAD SWAP5 POP PUSH2 0x2323 PUSH1 0x20 DUP8 ADD PUSH2 0x21F7 JUMP JUMPDEST SWAP4 POP PUSH1 0x40 DUP7 ADD CALLDATALOAD SWAP3 POP PUSH1 0x60 DUP7 ADD CALLDATALOAD PUSH1 0x1 PUSH1 0x1 PUSH1 0x40 SHL SUB DUP2 GT ISZERO PUSH2 0x2344 JUMPI PUSH0 PUSH0 REVERT JUMPDEST PUSH2 0x2350 DUP9 DUP3 DUP10 ADD PUSH2 0x223A JUMP JUMPDEST SWAP7 SWAP10 SWAP6 SWAP9 POP SWAP4 SWAP7 POP SWAP3 SWAP5 SWAP4 SWAP3 POP POP POP JUMP JUMPDEST PUSH4 0x4E487B71 PUSH1 0xE0 SHL PUSH0 MSTORE PUSH1 0x41 PUSH1 0x4 MSTORE PUSH1 0x24 PUSH0 REVERT JUMPDEST PUSH0 DUP3 PUSH1 0x1F DUP4 ADD SLT PUSH2 0x2384 JUMPI PUSH0 PUSH0 REVERT JUMPDEST DUP2 CALLDATALOAD PUSH1 0x20 DUP4 ADD PUSH0 PUSH0 PUSH1 0x1 PUSH1 0x1 PUSH1 0x40 SHL SUB DUP5 GT ISZERO PUSH2 0x23A3 JUMPI PUSH2 0x23A3 PUSH2 0x2361 JUMP JUMPDEST POP PUSH1 0x40 MLOAD PUSH1 0x1F NOT PUSH1 0x1F DUP6 ADD DUP2 AND PUSH1 0x3F ADD AND DUP2 ADD DUP2 DUP2 LT PUSH1 0x1 PUSH1 0x1 PUSH1 0x40 SHL SUB DUP3 GT OR ISZERO PUSH2 0x23D1 JUMPI PUSH2 0x23D1 PUSH2 0x2361 JUMP JUMPDEST PUSH1 0x40 MSTORE DUP4 DUP2 MSTORE SWAP1 POP DUP1 DUP3 DUP5 ADD DUP8 LT ISZERO PUSH2 0x23E8 JUMPI PUSH0 PUSH0 REVERT JUMPDEST DUP4 DUP4 PUSH1 0x20 DUP4 ADD CALLDATACOPY PUSH0 PUSH1 0x20 DUP6 DUP4 ADD ADD MSTORE DUP1 SWAP5 POP POP POP POP POP SWAP3 SWAP2 POP POP JUMP JUMPDEST PUSH0 PUSH0 PUSH0 PUSH1 0x60 DUP5 DUP7 SUB SLT ISZERO PUSH2 0x2416 JUMPI PUSH0 PUSH0 REVERT JUMPDEST DUP4 CALLDATALOAD SWAP3 POP PUSH1 0x20 DUP5 ADD CALLDATALOAD PUSH1 0x1 PUSH1 0x1 PUSH1 0x40 SHL SUB DUP2 GT ISZERO PUSH2 0x2432 JUMPI PUSH0 PUSH0 REVERT JUMPDEST PUSH2 0x243E DUP7 DUP3 DUP8 ADD PUSH2 0x2375 JUMP JUMPDEST SWAP3 POP POP PUSH1 0x40 DUP5 ADD CALLDATALOAD PUSH1 0x1 PUSH1 0x1 PUSH1 0x40 SHL SUB DUP2 GT ISZERO PUSH2 0x2459 JUMPI PUSH0 PUSH0 REVERT JUMPDEST PUSH2 0x2465 DUP7 DUP3 DUP8 ADD PUSH2 0x2375 JUMP JUMPDEST SWAP2 POP POP SWAP3 POP SWAP3 POP SWAP3 JUMP JUMPDEST PUSH0 PUSH0 PUSH1 0x40 DUP4 DUP6 SUB SLT ISZERO PUSH2 0x2480 JUMPI PUSH0 PUSH0 REVERT JUMPDEST PUSH2 0x2489 DUP4 PUSH2 0x21F7 JUMP JUMPDEST SWAP2 POP PUSH1 0x20 DUP4 ADD CALLDATALOAD PUSH1 0x1 PUSH1 0x1 PUSH1 0x40 SHL SUB DUP2 GT ISZERO PUSH2 0x24A3 JUMPI PUSH0 PUSH0 REVERT JUMPDEST PUSH2 0x24AF DUP6 DUP3 DUP7 ADD PUSH2 0x2375 JUMP JUMPDEST SWAP2 POP POP SWAP3 POP SWAP3 SWAP1 POP JUMP JUMPDEST PUSH0 PUSH1 0x20 DUP3 DUP5 SUB SLT ISZERO PUSH2 0x24C9 JUMPI PUSH0 PUSH0 REVERT JUMPDEST PUSH2 0x19D2 DUP3 PUSH2 0x21F7 JUMP JUMPDEST PUSH1 0xFF PUSH1 0xF8 SHL DUP9 AND DUP2 MSTORE PUSH1 0xE0 PUSH1 0x20 DUP3 ADD MSTORE PUSH0 PUSH2 0x24F0 PUSH1 0xE0 DUP4 ADD DUP10 PUSH2 0x21B7 JUMP JUMPDEST DUP3 DUP2 SUB PUSH1 0x40 DUP5 ADD MSTORE PUSH2 0x2502 DUP2 DUP10 PUSH2 0x21B7 JUMP JUMPDEST PUSH1 0x60 DUP5 ADD DUP9 SWAP1 MSTORE PUSH1 0x1 PUSH1 0x1 PUSH1 0xA0 SHL SUB DUP8 AND PUSH1 0x80 DUP6 ADD MSTORE PUSH1 0xA0 DUP5 ADD DUP7 SWAP1 MSTORE DUP4 DUP2 SUB PUSH1 0xC0 DUP6 ADD MSTORE DUP5 MLOAD DUP1 DUP3 MSTORE PUSH1 0x20 DUP1 DUP8 ADD SWAP4 POP SWAP1 SWAP2 ADD SWAP1 PUSH0 JUMPDEST DUP2 DUP2 LT ISZERO PUSH2 0x2557 JUMPI DUP4 MLOAD DUP4 MSTORE PUSH1 0x20 SWAP4 DUP5 ADD SWAP4 SWAP1 SWAP3 ADD SWAP2 PUSH1 0x1 ADD PUSH2 0x2539 JUMP JUMPDEST POP SWAP1 SWAP12 SWAP11 POP POP POP POP POP POP POP POP POP POP POP JUMP JUMPDEST PUSH0 PUSH0 PUSH1 0x40 DUP4 DUP6 SUB SLT ISZERO PUSH2 0x2579 JUMPI PUSH0 PUSH0 REVERT JUMPDEST PUSH2 0x2582 DUP4 PUSH2 0x21F7 JUMP JUMPDEST SWAP2 POP PUSH1 0x20 DUP4 ADD CALLDATALOAD DUP1 ISZERO ISZERO DUP2 EQ PUSH2 0x2596 JUMPI PUSH0 PUSH0 REVERT JUMPDEST DUP1 SWAP2 POP POP SWAP3 POP SWAP3 SWAP1 POP JUMP JUMPDEST PUSH0 PUSH0 PUSH0 PUSH0 PUSH1 0x80 DUP6 DUP8 SUB SLT ISZERO PUSH2 0x25B4 JUMPI PUSH0 PUSH0 REVERT JUMPDEST PUSH2 0x25BD DUP6 PUSH2 0x21F7 JUMP JUMPDEST SWAP4 POP PUSH2 0x25CB PUSH1 0x20 DUP7 ADD PUSH2 0x21F7 JUMP JUMPDEST SWAP3 POP PUSH1 0x40 DUP6 ADD CALLDATALOAD SWAP2 POP PUSH1 0x60 DUP6 ADD CALLDATALOAD PUSH1 0x1 PUSH1 0x1 PUSH1 0x40 SHL SUB DUP2 GT ISZERO PUSH2 0x25EC JUMPI PUSH0 PUSH0 REVERT JUMPDEST PUSH2 0x25F8 DUP8 DUP3 DUP9 ADD PUSH2 0x2375 JUMP JUMPDEST SWAP2 POP POP SWAP3 SWAP6 SWAP2 SWAP5 POP SWAP3 POP JUMP JUMPDEST PUSH0 PUSH0 PUSH1 0x40 DUP4 DUP6 SUB SLT ISZERO PUSH2 0x2615 JUMPI PUSH0 PUSH0 REVERT JUMPDEST DUP3 CALLDATALOAD SWAP2 POP PUSH1 0x20 DUP4 ADD CALLDATALOAD PUSH1 0x1 PUSH1 0x1 PUSH1 0x40 SHL SUB DUP2 GT ISZERO PUSH2 0x24A3 JUMPI PUSH0 PUSH0 REVERT JUMPDEST PUSH0 PUSH0 PUSH1 0x40 DUP4 DUP6 SUB SLT ISZERO PUSH2 0x2642 JUMPI PUSH0 PUSH0 REVERT JUMPDEST PUSH2 0x264B DUP4 PUSH2 0x21F7 JUMP JUMPDEST SWAP2 POP PUSH2 0x2659 PUSH1 0x20 DUP5 ADD PUSH2 0x21F7 JUMP JUMPDEST SWAP1 POP SWAP3 POP SWAP3 SWAP1 POP JUMP JUMPDEST PUSH0 PUSH1 0x20 DUP3 DUP5 SUB SLT ISZERO PUSH2 0x2672 JUMPI PUSH0 PUSH0 REVERT JUMPDEST DUP2 CALLDATALOAD PUSH1 0x1 PUSH1 0x1 PUSH1 0x40 SHL SUB DUP2 GT ISZERO PUSH2 0x2687 JUMPI PUSH0 PUSH0 REVERT JUMPDEST PUSH2 0x122B DUP5 DUP3 DUP6 ADD PUSH2 0x2375 JUMP JUMPDEST PUSH11 0x1859D95B9D15D85B1B195D PUSH1 0xAA SHL DUP2 MSTORE PUSH1 0xB ADD SWAP1 JUMP JUMPDEST PUSH1 0x1 DUP2 DUP2 SHR SWAP1 DUP3 AND DUP1 PUSH2 0x26BE JUMPI PUSH1 0x7F DUP3 AND SWAP2 POP JUMPDEST PUSH1 0x20 DUP3 LT DUP2 SUB PUSH2 0x26DC JUMPI PUSH4 0x4E487B71 PUSH1 0xE0 SHL PUSH0 MSTORE PUSH1 0x22 PUSH1 0x4 MSTORE PUSH1 0x24 PUSH0 REVERT JUMPDEST POP SWAP2 SWAP1 POP JUMP JUMPDEST DUP1 MLOAD PUSH1 0x20 DUP3 ADD MLOAD PUSH12 0xFFFFFFFFFFFFFFFFFFFFFFFF NOT DUP2 AND SWAP2 SWAP1 PUSH1 0x14 DUP3 LT ISZERO PUSH2 0x272E JUMPI PUSH12 0xFFFFFFFFFFFFFFFFFFFFFFFF NOT PUSH12 0xFFFFFFFFFFFFFFFFFFFFFFFF NOT DUP4 PUSH1 0x14 SUB PUSH1 0x3 SHL SHL DUP3 AND AND SWAP3 POP JUMPDEST POP POP SWAP2 SWAP1 POP JUMP JUMPDEST PUSH1 0x20 DUP1 DUP3 MSTORE PUSH1 0xE SWAP1 DUP3 ADD MSTORE PUSH14 0x139BDD08185D5D1A1BDC9A5E9959 PUSH1 0x92 SHL PUSH1 0x40 DUP3 ADD MSTORE PUSH1 0x60 ADD SWAP1 JUMP JUMPDEST DUP2 DUP4 MSTORE DUP2 DUP2 PUSH1 0x20 DUP6 ADD CALLDATACOPY POP PUSH0 DUP3 DUP3 ADD PUSH1 0x20 SWAP1 DUP2 ADD SWAP2 SWAP1 SWAP2 MSTORE PUSH1 0x1F SWAP1 SWAP2 ADD PUSH1 0x1F NOT AND SWAP1 SWAP2 ADD ADD SWAP1 JUMP JUMPDEST PUSH1 0x20 DUP2 MSTORE PUSH0 PUSH2 0x122B PUSH1 0x20 DUP4 ADD DUP5 DUP7 PUSH2 0x275D JUMP JUMPDEST PUSH4 0x4E487B71 PUSH1 0xE0 SHL PUSH0 MSTORE PUSH1 0x11 PUSH1 0x4 MSTORE PUSH1 0x24 PUSH0 REVERT JUMPDEST DUP1 DUP3 ADD DUP1 DUP3 GT ISZERO PUSH2 0x519 JUMPI PUSH2 0x519 PUSH2 0x2798 JUMP JUMPDEST PUSH4 0x4E487B71 PUSH1 0xE0 SHL PUSH0 MSTORE PUSH1 0x21 PUSH1 0x4 MSTORE PUSH1 0x24 PUSH0 REVERT JUMPDEST DUP4 DUP2 MSTORE PUSH1 0x40 PUSH1 0x20 DUP3 ADD MSTORE PUSH0 PUSH2 0x162E PUSH1 0x40 DUP4 ADD DUP5 DUP7 PUSH2 0x275D JUMP JUMPDEST PUSH0 DUP2 MLOAD DUP1 PUSH1 0x20 DUP5 ADD DUP6 MCOPY PUSH0 SWAP4 ADD SWAP3 DUP4 MSTORE POP SWAP1 SWAP2 SWAP1 POP JUMP JUMPDEST PUSH0 PUSH2 0x19D2 DUP3 DUP5 PUSH2 0x27EC JUMP JUMPDEST PUSH0 PUSH1 0x20 DUP3 DUP5 SUB SLT ISZERO PUSH2 0x281E JUMPI PUSH0 PUSH0 REVERT JUMPDEST DUP2 MLOAD PUSH2 0x19D2 DUP2 PUSH2 0x2187 JUMP JUMPDEST PUSH1 0x60 SWAP2 SWAP1 SWAP2 SHL PUSH12 0xFFFFFFFFFFFFFFFFFFFFFFFF NOT AND DUP2 MSTORE PUSH1 0x14 ADD SWAP1 JUMP JUMPDEST PUSH1 0x1F DUP3 GT ISZERO PUSH2 0xC65 JUMPI DUP1 PUSH0 MSTORE PUSH1 0x20 PUSH0 KECCAK256 PUSH1 0x1F DUP5 ADD PUSH1 0x5 SHR DUP2 ADD PUSH1 0x20 DUP6 LT ISZERO PUSH2 0x286B JUMPI POP DUP1 JUMPDEST PUSH1 0x1F DUP5 ADD PUSH1 0x5 SHR DUP3 ADD SWAP2 POP JUMPDEST DUP2 DUP2 LT ISZERO PUSH2 0x1961 JUMPI PUSH0 DUP2 SSTORE PUSH1 0x1 ADD PUSH2 0x2877 JUMP JUMPDEST DUP2 MLOAD PUSH1 0x1 PUSH1 0x1 PUSH1 0x40 SHL SUB DUP2 GT ISZERO PUSH2 0x28A3 JUMPI PUSH2 0x28A3 PUSH2 0x2361 JUMP JUMPDEST PUSH2 0x28B7 DUP2 PUSH2 0x28B1 DUP5 SLOAD PUSH2 0x26AA JUMP JUMPDEST DUP5 PUSH2 0x2846 JUMP JUMPDEST PUSH1 0x20 PUSH1 0x1F DUP3 GT PUSH1 0x1 DUP2 EQ PUSH2 0x28E9 JUMPI PUSH0 DUP4 ISZERO PUSH2 0x28D2 JUMPI POP DUP5 DUP3 ADD MLOAD JUMPDEST PUSH0 NOT PUSH1 0x3 DUP6 SWAP1 SHL SHR NOT AND PUSH1 0x1 DUP5 SWAP1 SHL OR DUP5 SSTORE PUSH2 0x1961 JUMP JUMPDEST PUSH0 DUP5 DUP2 MSTORE PUSH1 0x20 DUP2 KECCAK256 PUSH1 0x1F NOT DUP6 AND SWAP2 JUMPDEST DUP3 DUP2 LT ISZERO PUSH2 0x2918 JUMPI DUP8 DUP6 ADD MLOAD DUP3 SSTORE PUSH1 0x20 SWAP5 DUP6 ADD SWAP5 PUSH1 0x1 SWAP1 SWAP3 ADD SWAP2 ADD PUSH2 0x28F8 JUMP JUMPDEST POP DUP5 DUP3 LT ISZERO PUSH2 0x2935 JUMPI DUP7 DUP5 ADD MLOAD PUSH0 NOT PUSH1 0x3 DUP8 SWAP1 SHL PUSH1 0xF8 AND SHR NOT AND DUP2 SSTORE JUMPDEST POP POP POP POP PUSH1 0x1 SWAP1 DUP2 SHL ADD SWAP1 SSTORE POP JUMP JUMPDEST PUSH1 0x40 DUP2 MSTORE PUSH0 PUSH2 0x296E PUSH1 0x40 DUP4 ADD PUSH1 0xB DUP2 MSTORE PUSH11 0x1859D95B9D15D85B1B195D PUSH1 0xAA SHL PUSH1 0x20 DUP3 ADD MSTORE PUSH1 0x40 ADD SWAP1 JUMP JUMPDEST DUP3 DUP2 SUB PUSH1 0x20 DUP5 ADD MSTORE PUSH2 0x122B DUP2 DUP6 PUSH2 0x21B7 JUMP JUMPDEST PUSH1 0x40 DUP2 MSTORE PUSH0 PUSH2 0x29AA PUSH1 0x40 DUP4 ADD PUSH1 0xB DUP2 MSTORE PUSH11 0x1859D95B9D15D85B1B195D PUSH1 0xAA SHL PUSH1 0x20 DUP3 ADD MSTORE PUSH1 0x40 ADD SWAP1 JUMP JUMPDEST DUP3 DUP2 SUB PUSH1 0x20 SWAP4 DUP5 ADD MSTORE PUSH0 DUP2 MSTORE SWAP2 SWAP1 SWAP2 ADD SWAP2 SWAP1 POP JUMP JUMPDEST PUSH1 0x40 DUP2 MSTORE PUSH0 PUSH2 0x29D1 PUSH1 0x40 DUP4 ADD DUP6 PUSH2 0x21B7 JUMP JUMPDEST DUP3 DUP2 SUB PUSH1 0x20 DUP5 ADD MSTORE PUSH2 0x162E DUP2 DUP6 PUSH2 0x21B7 JUMP JUMPDEST PUSH0 PUSH1 0x1 DUP3 ADD PUSH2 0x29F4 JUMPI PUSH2 0x29F4 PUSH2 0x2798 JUMP JUMPDEST POP PUSH1 0x1 ADD SWAP1 JUMP JUMPDEST PUSH0 PUSH2 0x122B PUSH2 0x2A09 DUP4 DUP7 PUSH2 0x27EC JUMP JUMPDEST DUP5 PUSH2 0x27EC JUMP JUMPDEST PUSH1 0x1 PUSH1 0x1 PUSH1 0xA0 SHL SUB DUP6 DUP2 AND DUP3 MSTORE DUP5 AND PUSH1 0x20 DUP3 ADD MSTORE PUSH1 0x40 DUP2 ADD DUP4 SWAP1 MSTORE PUSH1 0x80 PUSH1 0x60 DUP3 ADD DUP2 SWAP1 MSTORE PUSH0 SWAP1 PUSH2 0x2A41 SWAP1 DUP4 ADD DUP5 PUSH2 0x21B7 JUMP JUMPDEST SWAP7 SWAP6 POP POP POP POP POP POP JUMP INVALID 0x2C EQ SWAP15 0xD5 BASEFEE 0xC6 0xD2 SWAP10 EXTCODECOPY 0xD7 RETURNDATACOPY INVALID XOR PUSH30 0xF6ECCABE4538091B33ADBD25FAFDB8A1468BA2646970667358221220D13D MUL SMOD STOP 0xAF 0xAA 0x2E 0xC2 0xB7 0xAF 0xD4 0xAD DUP8 0x2F 0xD8 LOG0 SELFDESTRUCT BLOBHASH 0xD2 PUSH21 0x3D0BFF617A55E0AE3D6B2064736F6C634300081C00 CALLER "},"methodIdentifiers":{"addRegistrar(address)":"af92a693","approve(address,uint256)":"095ea7b3","balanceOf(address)":"70a08231","eip712Domain()":"84b0196e","getAgentWallet(uint256)":"00339509","getApproved(uint256)":"081812fc","getMetadata(uint256,string)":"cb4799f2","isApprovedForAll(address,address)":"e985e9c5","isAuthorizedOrOwner(address,uint256)":"d95e72be","name()":"06fdde03","owner()":"8da5cb5b","ownerOf(uint256)":"6352211e","register(string)":"f2c298be","registerFor(address,string)":"498163fd","registrars(address)":"89aeca76","removeRegistrar(address)":"ba904eed","renounceOwnership()":"715018a6","safeTransferFrom(address,address,uint256)":"42842e0e","safeTransferFrom(address,address,uint256,bytes)":"b88d4fde","setAgentURI(uint256,string)":"0af28bd3","setAgentWallet(uint256,address,uint256,bytes)":"2d1ef5ae","setApprovalForAll(address,bool)":"a22cb465","setMetadata(uint256,string,bytes)":"466648da","supportsInterface(bytes4)":"01ffc9a7","symbol()":"95d89b41","tokenURI(uint256)":"c87b56dd","transferFrom(address,address,uint256)":"23b872dd","transferOwnership(address)":"f2fde38b","unsetAgentWallet(uint256)":"3fddcf19"}}}}}