{
  "_format": "hh3-artifact-1",
  "contractName": "OracleToken",
  "sourceName": "contracts/OracleToken.sol",
  "abi": [
    {
      "inputs": [],
      "stateMutability": "nonpayable",
      "type": "constructor"
    },
    {
      "inputs": [
        {
          "internalType": "address",
          "name": "spender",
          "type": "address"
        },
        {
          "internalType": "uint256",
          "name": "allowance",
          "type": "uint256"
        },
        {
          "internalType": "uint256",
          "name": "needed",
          "type": "uint256"
        }
      ],
      "name": "ERC20InsufficientAllowance",
      "type": "error"
    },
    {
      "inputs": [
        {
          "internalType": "address",
          "name": "sender",
          "type": "address"
        },
        {
          "internalType": "uint256",
          "name": "balance",
          "type": "uint256"
        },
        {
          "internalType": "uint256",
          "name": "needed",
          "type": "uint256"
        }
      ],
      "name": "ERC20InsufficientBalance",
      "type": "error"
    },
    {
      "inputs": [
        {
          "internalType": "address",
          "name": "approver",
          "type": "address"
        }
      ],
      "name": "ERC20InvalidApprover",
      "type": "error"
    },
    {
      "inputs": [
        {
          "internalType": "address",
          "name": "receiver",
          "type": "address"
        }
      ],
      "name": "ERC20InvalidReceiver",
      "type": "error"
    },
    {
      "inputs": [
        {
          "internalType": "address",
          "name": "sender",
          "type": "address"
        }
      ],
      "name": "ERC20InvalidSender",
      "type": "error"
    },
    {
      "inputs": [
        {
          "internalType": "address",
          "name": "spender",
          "type": "address"
        }
      ],
      "name": "ERC20InvalidSpender",
      "type": "error"
    },
    {
      "inputs": [
        {
          "internalType": "address",
          "name": "owner",
          "type": "address"
        }
      ],
      "name": "OwnableInvalidOwner",
      "type": "error"
    },
    {
      "inputs": [
        {
          "internalType": "address",
          "name": "account",
          "type": "address"
        }
      ],
      "name": "OwnableUnauthorizedAccount",
      "type": "error"
    },
    {
      "anonymous": false,
      "inputs": [
        {
          "indexed": true,
          "internalType": "address",
          "name": "owner",
          "type": "address"
        },
        {
          "indexed": true,
          "internalType": "address",
          "name": "spender",
          "type": "address"
        },
        {
          "indexed": false,
          "internalType": "uint256",
          "name": "value",
          "type": "uint256"
        }
      ],
      "name": "Approval",
      "type": "event"
    },
    {
      "anonymous": false,
      "inputs": [
        {
          "indexed": true,
          "internalType": "address",
          "name": "previousOwner",
          "type": "address"
        },
        {
          "indexed": true,
          "internalType": "address",
          "name": "newOwner",
          "type": "address"
        }
      ],
      "name": "OwnershipTransferred",
      "type": "event"
    },
    {
      "anonymous": false,
      "inputs": [
        {
          "indexed": true,
          "internalType": "address",
          "name": "from",
          "type": "address"
        },
        {
          "indexed": true,
          "internalType": "address",
          "name": "to",
          "type": "address"
        },
        {
          "indexed": false,
          "internalType": "uint256",
          "name": "value",
          "type": "uint256"
        }
      ],
      "name": "Transfer",
      "type": "event"
    },
    {
      "inputs": [],
      "name": "INITIAL_SUPPLY",
      "outputs": [
        {
          "internalType": "uint256",
          "name": "",
          "type": "uint256"
        }
      ],
      "stateMutability": "view",
      "type": "function"
    },
    {
      "inputs": [
        {
          "internalType": "address",
          "name": "owner",
          "type": "address"
        },
        {
          "internalType": "address",
          "name": "spender",
          "type": "address"
        }
      ],
      "name": "allowance",
      "outputs": [
        {
          "internalType": "uint256",
          "name": "",
          "type": "uint256"
        }
      ],
      "stateMutability": "view",
      "type": "function"
    },
    {
      "inputs": [
        {
          "internalType": "address",
          "name": "spender",
          "type": "address"
        },
        {
          "internalType": "uint256",
          "name": "value",
          "type": "uint256"
        }
      ],
      "name": "approve",
      "outputs": [
        {
          "internalType": "bool",
          "name": "",
          "type": "bool"
        }
      ],
      "stateMutability": "nonpayable",
      "type": "function"
    },
    {
      "inputs": [
        {
          "internalType": "address",
          "name": "account",
          "type": "address"
        }
      ],
      "name": "balanceOf",
      "outputs": [
        {
          "internalType": "uint256",
          "name": "",
          "type": "uint256"
        }
      ],
      "stateMutability": "view",
      "type": "function"
    },
    {
      "inputs": [
        {
          "internalType": "uint256",
          "name": "amount",
          "type": "uint256"
        }
      ],
      "name": "burn",
      "outputs": [],
      "stateMutability": "nonpayable",
      "type": "function"
    },
    {
      "inputs": [],
      "name": "decimals",
      "outputs": [
        {
          "internalType": "uint8",
          "name": "",
          "type": "uint8"
        }
      ],
      "stateMutability": "view",
      "type": "function"
    },
    {
      "inputs": [
        {
          "internalType": "address",
          "name": "to",
          "type": "address"
        },
        {
          "internalType": "uint256",
          "name": "amount",
          "type": "uint256"
        }
      ],
      "name": "mint",
      "outputs": [],
      "stateMutability": "nonpayable",
      "type": "function"
    },
    {
      "inputs": [],
      "name": "name",
      "outputs": [
        {
          "internalType": "string",
          "name": "",
          "type": "string"
        }
      ],
      "stateMutability": "view",
      "type": "function"
    },
    {
      "inputs": [],
      "name": "owner",
      "outputs": [
        {
          "internalType": "address",
          "name": "",
          "type": "address"
        }
      ],
      "stateMutability": "view",
      "type": "function"
    },
    {
      "inputs": [],
      "name": "renounceOwnership",
      "outputs": [],
      "stateMutability": "nonpayable",
      "type": "function"
    },
    {
      "inputs": [],
      "name": "symbol",
      "outputs": [
        {
          "internalType": "string",
          "name": "",
          "type": "string"
        }
      ],
      "stateMutability": "view",
      "type": "function"
    },
    {
      "inputs": [],
      "name": "totalSupply",
      "outputs": [
        {
          "internalType": "uint256",
          "name": "",
          "type": "uint256"
        }
      ],
      "stateMutability": "view",
      "type": "function"
    },
    {
      "inputs": [
        {
          "internalType": "address",
          "name": "to",
          "type": "address"
        },
        {
          "internalType": "uint256",
          "name": "value",
          "type": "uint256"
        }
      ],
      "name": "transfer",
      "outputs": [
        {
          "internalType": "bool",
          "name": "",
          "type": "bool"
        }
      ],
      "stateMutability": "nonpayable",
      "type": "function"
    },
    {
      "inputs": [
        {
          "internalType": "address",
          "name": "from",
          "type": "address"
        },
        {
          "internalType": "address",
          "name": "to",
          "type": "address"
        },
        {
          "internalType": "uint256",
          "name": "value",
          "type": "uint256"
        }
      ],
      "name": "transferFrom",
      "outputs": [
        {
          "internalType": "bool",
          "name": "",
          "type": "bool"
        }
      ],
      "stateMutability": "nonpayable",
      "type": "function"
    },
    {
      "inputs": [
        {
          "internalType": "address",
          "name": "newOwner",
          "type": "address"
        }
      ],
      "name": "transferOwnership",
      "outputs": [],
      "stateMutability": "nonpayable",
      "type": "function"
    }
  ],
  "bytecode": "0x608060405234801561000f575f5ffd5b50336040518060400160405280600c81526020016b27b930b1b632902a37b5b2b760a11b815250604051806040016040528060068152602001654f5241434c4560d01b8152508160039081610064919061030e565b506004610071828261030e565b5050506001600160a01b0381166100a257604051631e4fbdf760e01b81525f60048201526024015b60405180910390fd5b6100ab816100c7565b506100c2336b204fce5e3e25026110000000610118565b6103ed565b600580546001600160a01b038381166001600160a01b0319831681179093556040519116919082907f8be0079c531659141344cd1fd0a4f28419497f9722a3daafe3b4186f6b6457e0905f90a35050565b6001600160a01b0382166101415760405163ec442f0560e01b81525f6004820152602401610099565b61014c5f8383610150565b5050565b6001600160a01b03831661017a578060025f82825461016f91906103c8565b909155506101ea9050565b6001600160a01b0383165f90815260208190526040902054818110156101cc5760405163391434e360e21b81526001600160a01b03851660048201526024810182905260448101839052606401610099565b6001600160a01b0384165f9081526020819052604090209082900390555b6001600160a01b03821661020657600280548290039055610224565b6001600160a01b0382165f9081526020819052604090208054820190555b816001600160a01b0316836001600160a01b03167fddf252ad1be2c89b69c2b068fc378daa952ba7f163c4a11628f55a4df523b3ef8360405161026991815260200190565b60405180910390a3505050565b634e487b7160e01b5f52604160045260245ffd5b600181811c9082168061029e57607f821691505b6020821081036102bc57634e487b7160e01b5f52602260045260245ffd5b50919050565b601f82111561030957805f5260205f20601f840160051c810160208510156102e75750805b601f840160051c820191505b81811015610306575f81556001016102f3565b50505b505050565b81516001600160401b0381111561032757610327610276565b61033b81610335845461028a565b846102c2565b6020601f82116001811461036d575f83156103565750848201515b5f19600385901b1c1916600184901b178455610306565b5f84815260208120601f198516915b8281101561039c578785015182556020948501946001909201910161037c565b50848210156103b957868401515f19600387901b60f8161c191681555b50505050600190811b01905550565b808201808211156103e757634e487b7160e01b5f52601160045260245ffd5b92915050565b610922806103fa5f395ff3fe608060405234801561000f575f5ffd5b50600436106100f0575f3560e01c806342966c681161009357806395d89b411161006357806395d89b41146101ef578063a9059cbb146101f7578063dd62ed3e1461020a578063f2fde38b14610242575f5ffd5b806342966c681461019157806370a08231146101a4578063715018a6146101cc5780638da5cb5b146101d4575f5ffd5b806323b872dd116100ce57806323b872dd146101475780632ff2e9dc1461015a578063313ce5671461016d57806340c10f191461017c575f5ffd5b806306fdde03146100f4578063095ea7b31461011257806318160ddd14610135575b5f5ffd5b6100fc610255565b604051610109919061077b565b60405180910390f35b6101256101203660046107cb565b6102e5565b6040519015158152602001610109565b6002545b604051908152602001610109565b6101256101553660046107f3565b6102fe565b6101396b204fce5e3e2502611000000081565b60405160128152602001610109565b61018f61018a3660046107cb565b610321565b005b61018f61019f36600461082d565b610337565b6101396101b2366004610844565b6001600160a01b03165f9081526020819052604090205490565b61018f610344565b6005546040516001600160a01b039091168152602001610109565b6100fc610357565b6101256102053660046107cb565b610366565b610139610218366004610864565b6001600160a01b039182165f90815260016020908152604080832093909416825291909152205490565b61018f610250366004610844565b610373565b60606003805461026490610895565b80601f016020809104026020016040519081016040528092919081815260200182805461029090610895565b80156102db5780601f106102b2576101008083540402835291602001916102db565b820191905f5260205f20905b8154815290600101906020018083116102be57829003601f168201915b5050505050905090565b5f336102f28185856103b2565b60019150505b92915050565b5f3361030b8582856103c4565b610316858585610440565b506001949350505050565b61032961049d565b61033382826104ca565b5050565b61034133826104fe565b50565b61034c61049d565b6103555f610532565b565b60606004805461026490610895565b5f336102f2818585610440565b61037b61049d565b6001600160a01b0381166103a957604051631e4fbdf760e01b81525f60048201526024015b60405180910390fd5b61034181610532565b6103bf8383836001610583565b505050565b6001600160a01b038381165f908152600160209081526040808320938616835292905220545f1981101561043a578181101561042c57604051637dc7a0d960e11b81526001600160a01b038416600482015260248101829052604481018390526064016103a0565b61043a84848484035f610583565b50505050565b6001600160a01b03831661046957604051634b637e8f60e11b81525f60048201526024016103a0565b6001600160a01b0382166104925760405163ec442f0560e01b81525f60048201526024016103a0565b6103bf838383610655565b6005546001600160a01b031633146103555760405163118cdaa760e01b81523360048201526024016103a0565b6001600160a01b0382166104f35760405163ec442f0560e01b81525f60048201526024016103a0565b6103335f8383610655565b6001600160a01b03821661052757604051634b637e8f60e11b81525f60048201526024016103a0565b610333825f83610655565b600580546001600160a01b038381166001600160a01b0319831681179093556040519116919082907f8be0079c531659141344cd1fd0a4f28419497f9722a3daafe3b4186f6b6457e0905f90a35050565b6001600160a01b0384166105ac5760405163e602df0560e01b81525f60048201526024016103a0565b6001600160a01b0383166105d557604051634a1406b160e11b81525f60048201526024016103a0565b6001600160a01b038085165f908152600160209081526040808320938716835292905220829055801561043a57826001600160a01b0316846001600160a01b03167f8c5be1e5ebec7d5bd14f71427d1e84f3dd0314c0f7b2291e5b200ac8c7c3b9258460405161064791815260200190565b60405180910390a350505050565b6001600160a01b03831661067f578060025f82825461067491906108cd565b909155506106ef9050565b6001600160a01b0383165f90815260208190526040902054818110156106d15760405163391434e360e21b81526001600160a01b038516600482015260248101829052604481018390526064016103a0565b6001600160a01b0384165f9081526020819052604090209082900390555b6001600160a01b03821661070b57600280548290039055610729565b6001600160a01b0382165f9081526020819052604090208054820190555b816001600160a01b0316836001600160a01b03167fddf252ad1be2c89b69c2b068fc378daa952ba7f163c4a11628f55a4df523b3ef8360405161076e91815260200190565b60405180910390a3505050565b602081525f82518060208401528060208501604085015e5f604082850101526040601f19601f83011684010191505092915050565b80356001600160a01b03811681146107c6575f5ffd5b919050565b5f5f604083850312156107dc575f5ffd5b6107e5836107b0565b946020939093013593505050565b5f5f5f60608486031215610805575f5ffd5b61080e846107b0565b925061081c602085016107b0565b929592945050506040919091013590565b5f6020828403121561083d575f5ffd5b5035919050565b5f60208284031215610854575f5ffd5b61085d826107b0565b9392505050565b5f5f60408385031215610875575f5ffd5b61087e836107b0565b915061088c602084016107b0565b90509250929050565b600181811c908216806108a957607f821691505b6020821081036108c757634e487b7160e01b5f52602260045260245ffd5b50919050565b808201808211156102f857634e487b7160e01b5f52601160045260245ffdfea264697066735822122054a24201b91accc6f268cff8f8dedd1649d3598fc46b18c2d250615dd20a884e64736f6c634300081c0033",
  "linkReferences": {},
  "deployedLinkReferences": {},
  "immutableReferences": {},
  "inputSourceName": "project/contracts/OracleToken.sol",
  "buildInfoId": "solc-0_8_28-6fedb66116a1f4efc3071a86f53c8e7ef9f3df5e"
}